{
  "abi": [
    {
      "inputs": [],
      "stateMutability": "nonpayable",
      "type": "constructor"
    },
    {
      "anonymous": false,
      "inputs": [
        {
          "indexed": true,
          "internalType": "address",
          "name": "owner",
          "type": "address"
        },
        {
          "indexed": true,
          "internalType": "address",
          "name": "approved",
          "type": "address"
        },
        {
          "indexed": true,
          "internalType": "uint256",
          "name": "tokenId",
          "type": "uint256"
        }
      ],
      "name": "Approval",
      "type": "event"
    },
    {
      "anonymous": false,
      "inputs": [
        {
          "indexed": true,
          "internalType": "address",
          "name": "owner",
          "type": "address"
        },
        {
          "indexed": true,
          "internalType": "address",
          "name": "operator",
          "type": "address"
        },
        {
          "indexed": false,
          "internalType": "bool",
          "name": "approved",
          "type": "bool"
        }
      ],
      "name": "ApprovalForAll",
      "type": "event"
    },
    {
      "anonymous": false,
      "inputs": [
        {
          "indexed": true,
          "internalType": "bytes32",
          "name": "role",
          "type": "bytes32"
        },
        {
          "indexed": true,
          "internalType": "bytes32",
          "name": "previousAdminRole",
          "type": "bytes32"
        },
        {
          "indexed": true,
          "internalType": "bytes32",
          "name": "newAdminRole",
          "type": "bytes32"
        }
      ],
      "name": "RoleAdminChanged",
      "type": "event"
    },
    {
      "anonymous": false,
      "inputs": [
        {
          "indexed": true,
          "internalType": "bytes32",
          "name": "role",
          "type": "bytes32"
        },
        {
          "indexed": true,
          "internalType": "address",
          "name": "account",
          "type": "address"
        },
        {
          "indexed": true,
          "internalType": "address",
          "name": "sender",
          "type": "address"
        }
      ],
      "name": "RoleGranted",
      "type": "event"
    },
    {
      "anonymous": false,
      "inputs": [
        {
          "indexed": true,
          "internalType": "bytes32",
          "name": "role",
          "type": "bytes32"
        },
        {
          "indexed": true,
          "internalType": "address",
          "name": "account",
          "type": "address"
        },
        {
          "indexed": true,
          "internalType": "address",
          "name": "sender",
          "type": "address"
        }
      ],
      "name": "RoleRevoked",
      "type": "event"
    },
    {
      "anonymous": false,
      "inputs": [
        {
          "indexed": true,
          "internalType": "address",
          "name": "from",
          "type": "address"
        },
        {
          "indexed": true,
          "internalType": "address",
          "name": "to",
          "type": "address"
        },
        {
          "indexed": true,
          "internalType": "uint256",
          "name": "tokenId",
          "type": "uint256"
        }
      ],
      "name": "Transfer",
      "type": "event"
    },
    {
      "inputs": [],
      "name": "DEFAULT_ADMIN_ROLE",
      "outputs": [
        {
          "internalType": "bytes32",
          "name": "",
          "type": "bytes32"
        }
      ],
      "stateMutability": "view",
      "type": "function"
    },
    {
      "inputs": [],
      "name": "MINTER_ROLE",
      "outputs": [
        {
          "internalType": "bytes32",
          "name": "",
          "type": "bytes32"
        }
      ],
      "stateMutability": "view",
      "type": "function"
    },
    {
      "inputs": [
        {
          "internalType": "address",
          "name": "to",
          "type": "address"
        },
        {
          "internalType": "uint256",
          "name": "tokenId",
          "type": "uint256"
        }
      ],
      "name": "approve",
      "outputs": [],
      "stateMutability": "nonpayable",
      "type": "function"
    },
    {
      "inputs": [
        {
          "internalType": "address",
          "name": "owner",
          "type": "address"
        }
      ],
      "name": "balanceOf",
      "outputs": [
        {
          "internalType": "uint256",
          "name": "",
          "type": "uint256"
        }
      ],
      "stateMutability": "view",
      "type": "function"
    },
    {
      "inputs": [
        {
          "internalType": "uint256",
          "name": "tokenId",
          "type": "uint256"
        }
      ],
      "name": "getApproved",
      "outputs": [
        {
          "internalType": "address",
          "name": "",
          "type": "address"
        }
      ],
      "stateMutability": "view",
      "type": "function"
    },
    {
      "inputs": [
        {
          "internalType": "bytes32",
          "name": "role",
          "type": "bytes32"
        }
      ],
      "name": "getRoleAdmin",
      "outputs": [
        {
          "internalType": "bytes32",
          "name": "",
          "type": "bytes32"
        }
      ],
      "stateMutability": "view",
      "type": "function"
    },
    {
      "inputs": [
        {
          "internalType": "bytes32",
          "name": "role",
          "type": "bytes32"
        },
        {
          "internalType": "address",
          "name": "account",
          "type": "address"
        }
      ],
      "name": "grantRole",
      "outputs": [],
      "stateMutability": "nonpayable",
      "type": "function"
    },
    {
      "inputs": [
        {
          "internalType": "bytes32",
          "name": "role",
          "type": "bytes32"
        },
        {
          "internalType": "address",
          "name": "account",
          "type": "address"
        }
      ],
      "name": "hasRole",
      "outputs": [
        {
          "internalType": "bool",
          "name": "",
          "type": "bool"
        }
      ],
      "stateMutability": "view",
      "type": "function"
    },
    {
      "inputs": [
        {
          "internalType": "address",
          "name": "owner",
          "type": "address"
        },
        {
          "internalType": "address",
          "name": "operator",
          "type": "address"
        }
      ],
      "name": "isApprovedForAll",
      "outputs": [
        {
          "internalType": "bool",
          "name": "",
          "type": "bool"
        }
      ],
      "stateMutability": "view",
      "type": "function"
    },
    {
      "inputs": [],
      "name": "name",
      "outputs": [
        {
          "internalType": "string",
          "name": "",
          "type": "string"
        }
      ],
      "stateMutability": "view",
      "type": "function"
    },
    {
      "inputs": [
        {
          "internalType": "uint256",
          "name": "tokenId",
          "type": "uint256"
        }
      ],
      "name": "ownerOf",
      "outputs": [
        {
          "internalType": "address",
          "name": "",
          "type": "address"
        }
      ],
      "stateMutability": "view",
      "type": "function"
    },
    {
      "inputs": [
        {
          "internalType": "bytes32",
          "name": "role",
          "type": "bytes32"
        },
        {
          "internalType": "address",
          "name": "account",
          "type": "address"
        }
      ],
      "name": "renounceRole",
      "outputs": [],
      "stateMutability": "nonpayable",
      "type": "function"
    },
    {
      "inputs": [
        {
          "internalType": "bytes32",
          "name": "role",
          "type": "bytes32"
        },
        {
          "internalType": "address",
          "name": "account",
          "type": "address"
        }
      ],
      "name": "revokeRole",
      "outputs": [],
      "stateMutability": "nonpayable",
      "type": "function"
    },
    {
      "inputs": [
        {
          "internalType": "address",
          "name": "to",
          "type": "address"
        },
        {
          "internalType": "uint256",
          "name": "tokenId",
          "type": "uint256"
        }
      ],
      "name": "safeMint",
      "outputs": [],
      "stateMutability": "nonpayable",
      "type": "function"
    },
    {
      "inputs": [
        {
          "internalType": "address",
          "name": "from",
          "type": "address"
        },
        {
          "internalType": "address",
          "name": "to",
          "type": "address"
        },
        {
          "internalType": "uint256",
          "name": "tokenId",
          "type": "uint256"
        }
      ],
      "name": "safeTransferFrom",
      "outputs": [],
      "stateMutability": "nonpayable",
      "type": "function"
    },
    {
      "inputs": [
        {
          "internalType": "address",
          "name": "from",
          "type": "address"
        },
        {
          "internalType": "address",
          "name": "to",
          "type": "address"
        },
        {
          "internalType": "uint256",
          "name": "tokenId",
          "type": "uint256"
        },
        {
          "internalType": "bytes",
          "name": "data",
          "type": "bytes"
        }
      ],
      "name": "safeTransferFrom",
      "outputs": [],
      "stateMutability": "nonpayable",
      "type": "function"
    },
    {
      "inputs": [
        {
          "internalType": "address",
          "name": "operator",
          "type": "address"
        },
        {
          "internalType": "bool",
          "name": "approved",
          "type": "bool"
        }
      ],
      "name": "setApprovalForAll",
      "outputs": [],
      "stateMutability": "nonpayable",
      "type": "function"
    },
    {
      "inputs": [
        {
          "internalType": "bytes4",
          "name": "interfaceId",
          "type": "bytes4"
        }
      ],
      "name": "supportsInterface",
      "outputs": [
        {
          "internalType": "bool",
          "name": "",
          "type": "bool"
        }
      ],
      "stateMutability": "view",
      "type": "function"
    },
    {
      "inputs": [],
      "name": "symbol",
      "outputs": [
        {
          "internalType": "string",
          "name": "",
          "type": "string"
        }
      ],
      "stateMutability": "view",
      "type": "function"
    },
    {
      "inputs": [
        {
          "internalType": "uint256",
          "name": "tokenId",
          "type": "uint256"
        }
      ],
      "name": "tokenURI",
      "outputs": [
        {
          "internalType": "string",
          "name": "",
          "type": "string"
        }
      ],
      "stateMutability": "view",
      "type": "function"
    },
    {
      "inputs": [
        {
          "internalType": "address",
          "name": "from",
          "type": "address"
        },
        {
          "internalType": "address",
          "name": "to",
          "type": "address"
        },
        {
          "internalType": "uint256",
          "name": "tokenId",
          "type": "uint256"
        }
      ],
      "name": "transferFrom",
      "outputs": [],
      "stateMutability": "nonpayable",
      "type": "function"
    }
  ],
  "bytecode": {
    "object": "0x60c0604052600d60808190526c2f4572633732315f446174615f60981b60a0908152620000309160089190620001bc565b5060408051808201909152600580825264173539b7b760d91b60209092019182526200005f91600991620001bc565b503480156200006d57600080fd5b506040805180820190915260118082527010d95c1a195d5cd7d05cdd1c9bdb985d5d607a1b6020909201918252620000a891600291620001bc565b50604080518082019091526009808252684345502d415354524f60b81b6020909201918252620000db91600391620001bc565b50620000e96000336200011b565b620001157f9f2df0fed2c77648de5860a4cc508cd0818c85b8b8a1ab4ceeef8d981c8956a6336200011b565b6200029e565b6000828152602081815260408083206001600160a01b038516845290915290205460ff16620001b8576000828152602081815260408083206001600160a01b03851684529091529020805460ff19166001179055620001773390565b6001600160a01b0316816001600160a01b0316837f2f8788117e7eff1d82e926ec794901d17c78024a50270940304540a733656f0d60405160405180910390a45b5050565b828054620001ca9062000262565b90600052602060002090601f016020900481019282620001ee576000855562000239565b82601f106200020957805160ff191683800117855562000239565b8280016001018555821562000239579182015b82811115620002395782518255916020019190600101906200021c565b50620002479291506200024b565b5090565b5b808211156200024757600081556001016200024c565b600181811c908216806200027757607f821691505b6020821081036200029857634e487b7160e01b600052602260045260246000fd5b50919050565b611f7e80620002ae6000396000f3fe608060405234801561001057600080fd5b50600436106101775760003560e01c806370a08231116100d8578063a22cb4651161008c578063d539139311610066578063d53913931461032f578063d547741f14610356578063e985e9c51461036957600080fd5b8063a22cb465146102f6578063b88d4fde14610309578063c87b56dd1461031c57600080fd5b806395d89b41116100bd57806395d89b41146102d3578063a1448194146102db578063a217fddf146102ee57600080fd5b806370a082311461028957806391d148541461029c57600080fd5b8063248a9ca31161012f57806336568abe1161011457806336568abe1461025057806342842e0e146102635780636352211e1461027657600080fd5b8063248a9ca31461020c5780632f2ff15d1461023d57600080fd5b8063081812fc11610160578063081812fc146101b9578063095ea7b3146101e457806323b872dd146101f957600080fd5b806301ffc9a71461017c57806306fdde03146101a4575b600080fd5b61018f61018a36600461188b565b6103a5565b60405190151581526020015b60405180910390f35b6101ac61041d565b60405161019b9190611900565b6101cc6101c7366004611913565b6104af565b6040516001600160a01b03909116815260200161019b565b6101f76101f2366004611948565b6104d6565b005b6101f7610207366004611972565b61060c565b61022f61021a366004611913565b60009081526020819052604090206001015490565b60405190815260200161019b565b6101f761024b3660046119ae565b610683565b6101f761025e3660046119ae565b6106a8565b6101f7610271366004611972565b610734565b6101cc610284366004611913565b61074f565b61022f6102973660046119da565b6107b4565b61018f6102aa3660046119ae565b6000918252602082815260408084206001600160a01b0393909316845291905290205460ff1690565b6101ac61084e565b6101f76102e9366004611948565b61085d565b61022f600081565b6101f76103043660046119f5565b610891565b6101f7610317366004611a47565b61089c565b6101ac61032a366004611913565b61091a565b61022f7f9f2df0fed2c77648de5860a4cc508cd0818c85b8b8a1ab4ceeef8d981c8956a681565b6101f76103643660046119ae565b610a86565b61018f610377366004611b23565b6001600160a01b03918216600090815260076020908152604080832093909416825291909152205460ff1690565b60006001600160e01b031982167f80ac58cd00000000000000000000000000000000000000000000000000000000148061040857506001600160e01b031982167f5b5e139f00000000000000000000000000000000000000000000000000000000145b80610417575061041782610aab565b92915050565b60606002805461042c90611b4d565b80601f016020809104026020016040519081016040528092919081815260200182805461045890611b4d565b80156104a55780601f1061047a576101008083540402835291602001916104a5565b820191906000526020600020905b81548152906001019060200180831161048857829003601f168201915b5050505050905090565b60006104ba82610b12565b506000908152600660205260409020546001600160a01b031690565b60006104e18261074f565b9050806001600160a01b0316836001600160a01b03160361056f5760405162461bcd60e51b815260206004820152602160248201527f4552433732313a20617070726f76616c20746f2063757272656e74206f776e6560448201527f720000000000000000000000000000000000000000000000000000000000000060648201526084015b60405180910390fd5b336001600160a01b038216148061058b575061058b8133610377565b6105fd5760405162461bcd60e51b815260206004820152603d60248201527f4552433732313a20617070726f76652063616c6c6572206973206e6f7420746f60448201527f6b656e206f776e6572206f7220617070726f76656420666f7220616c6c0000006064820152608401610566565b6106078383610b79565b505050565b6106163382610bf4565b6106785760405162461bcd60e51b815260206004820152602d60248201527f4552433732313a2063616c6c6572206973206e6f7420746f6b656e206f776e6560448201526c1c881bdc88185c1c1c9bdd9959609a1b6064820152608401610566565b610607838383610c72565b60008281526020819052604090206001015461069e81610e85565b6106078383610e8f565b6001600160a01b03811633146107265760405162461bcd60e51b815260206004820152602f60248201527f416363657373436f6e74726f6c3a2063616e206f6e6c792072656e6f756e636560448201527f20726f6c657320666f722073656c6600000000000000000000000000000000006064820152608401610566565b6107308282610f2d565b5050565b6106078383836040518060200160405280600081525061089c565b6000818152600460205260408120546001600160a01b0316806104175760405162461bcd60e51b815260206004820152601860248201527f4552433732313a20696e76616c696420746f6b656e20494400000000000000006044820152606401610566565b60006001600160a01b0382166108325760405162461bcd60e51b815260206004820152602960248201527f4552433732313a2061646472657373207a65726f206973206e6f74206120766160448201527f6c6964206f776e657200000000000000000000000000000000000000000000006064820152608401610566565b506001600160a01b031660009081526005602052604090205490565b60606003805461042c90611b4d565b7f9f2df0fed2c77648de5860a4cc508cd0818c85b8b8a1ab4ceeef8d981c8956a661088781610e85565b6106078383610fac565b610730338383610fc6565b6108a63383610bf4565b6109085760405162461bcd60e51b815260206004820152602d60248201527f4552433732313a2063616c6c6572206973206e6f7420746f6b656e206f776e6560448201526c1c881bdc88185c1c1c9bdd9959609a1b6064820152608401610566565b61091484848484611094565b50505050565b606061092582610b12565b600061092f611112565b905060606000841180156109435750606584105b15610964576040518060600160405280602e8152602001611ef9602e913990505b606484118015610974575060c984105b15610995576040518060600160405280602e8152602001611ecb602e913990505b60c8841180156109a6575061012d84105b156109c7576040518060600160405280602e8152602001611e6f602e913990505b61012c841180156109d9575061019184105b156109fa576040518060600160405280602e8152602001611e9d602e913990505b61019084118015610a0c57506101f584105b15610a2d576040518060600160405280602e8152602001611e41602e913990505b6000825111610a4b5760405180602001604052806000815250610a7e565b81816008610a5887611132565b6009604051602001610a6e959493929190611c20565b6040516020818303038152906040525b949350505050565b600082815260208190526040902060010154610aa181610e85565b6106078383610f2d565b60006001600160e01b031982167f7965db0b00000000000000000000000000000000000000000000000000000000148061041757507f01ffc9a7000000000000000000000000000000000000000000000000000000006001600160e01b0319831614610417565b6000818152600460205260409020546001600160a01b0316610b765760405162461bcd60e51b815260206004820152601860248201527f4552433732313a20696e76616c696420746f6b656e20494400000000000000006044820152606401610566565b50565b6000818152600660205260409020805473ffffffffffffffffffffffffffffffffffffffff19166001600160a01b0384169081179091558190610bbb8261074f565b6001600160a01b03167f8c5be1e5ebec7d5bd14f71427d1e84f3dd0314c0f7b2291e5b200ac8c7c3b92560405160405180910390a45050565b600080610c008361074f565b9050806001600160a01b0316846001600160a01b03161480610c4757506001600160a01b0380821660009081526007602090815260408083209388168352929052205460ff165b80610a7e5750836001600160a01b0316610c60846104af565b6001600160a01b031614949350505050565b826001600160a01b0316610c858261074f565b6001600160a01b031614610ce95760405162461bcd60e51b815260206004820152602560248201527f4552433732313a207472616e736665722066726f6d20696e636f72726563742060448201526437bbb732b960d91b6064820152608401610566565b6001600160a01b038216610d645760405162461bcd60e51b8152602060048201526024808201527f4552433732313a207472616e7366657220746f20746865207a65726f2061646460448201527f72657373000000000000000000000000000000000000000000000000000000006064820152608401610566565b610d718383836001611233565b826001600160a01b0316610d848261074f565b6001600160a01b031614610de85760405162461bcd60e51b815260206004820152602560248201527f4552433732313a207472616e736665722066726f6d20696e636f72726563742060448201526437bbb732b960d91b6064820152608401610566565b6000818152600660209081526040808320805473ffffffffffffffffffffffffffffffffffffffff199081169091556001600160a01b0387811680865260058552838620805460001901905590871680865283862080546001019055868652600490945282852080549092168417909155905184937fddf252ad1be2c89b69c2b068fc378daa952ba7f163c4a11628f55a4df523b3ef91a4505050565b610b7681336112bb565b6000828152602081815260408083206001600160a01b038516845290915290205460ff16610730576000828152602081815260408083206001600160a01b03851684529091529020805460ff19166001179055610ee93390565b6001600160a01b0316816001600160a01b0316837f2f8788117e7eff1d82e926ec794901d17c78024a50270940304540a733656f0d60405160405180910390a45050565b6000828152602081815260408083206001600160a01b038516845290915290205460ff1615610730576000828152602081815260408083206001600160a01b0385168085529252808320805460ff1916905551339285917ff6391f5c32d9c69d2a47ea670b442974b53935d1edc7fd64eb21e047a839171b9190a45050565b610730828260405180602001604052806000815250611339565b816001600160a01b0316836001600160a01b0316036110275760405162461bcd60e51b815260206004820152601960248201527f4552433732313a20617070726f766520746f2063616c6c6572000000000000006044820152606401610566565b6001600160a01b03838116600081815260076020908152604080832094871680845294825291829020805460ff191686151590811790915591519182527f17307eab39ab6107e8899845ad3d59bd9653f200f220920489ca2b5937696c31910160405180910390a3505050565b61109f848484610c72565b6110ab848484846113b7565b6109145760405162461bcd60e51b815260206004820152603260248201527f4552433732313a207472616e7366657220746f206e6f6e20455243373231526560448201527131b2b4bb32b91034b6b83632b6b2b73a32b960711b6064820152608401610566565b6060604051806060016040528060228152602001611f2760229139905090565b6060816000036111595750506040805180820190915260018152600360fc1b602082015290565b8160005b8115611183578061116d81611c94565b915061117c9050600a83611cc3565b915061115d565b60008167ffffffffffffffff81111561119e5761119e611a31565b6040519080825280601f01601f1916602001820160405280156111c8576020820181803683370190505b5090505b8415610a7e576111dd600183611cd7565b91506111ea600a86611cee565b6111f5906030611d02565b60f81b81838151811061120a5761120a611d1a565b60200101906001600160f81b031916908160001a90535061122c600a86611cc3565b94506111cc565b6001811115610914576001600160a01b03841615611279576001600160a01b03841660009081526005602052604081208054839290611273908490611cd7565b90915550505b6001600160a01b03831615610914576001600160a01b038316600090815260056020526040812080548392906112b0908490611d02565b909155505050505050565b6000828152602081815260408083206001600160a01b038516845290915290205460ff16610730576112f7816001600160a01b03166014611503565b611302836020611503565b604051602001611313929190611d30565b60408051601f198184030181529082905262461bcd60e51b825261056691600401611900565b61134383836116cf565b61135060008484846113b7565b6106075760405162461bcd60e51b815260206004820152603260248201527f4552433732313a207472616e7366657220746f206e6f6e20455243373231526560448201527131b2b4bb32b91034b6b83632b6b2b73a32b960711b6064820152608401610566565b60006001600160a01b0384163b156114f857604051630a85bd0160e11b81526001600160a01b0385169063150b7a02906113fb903390899088908890600401611db1565b6020604051808303816000875af1925050508015611436575060408051601f3d908101601f1916820190925261143391810190611ded565b60015b6114de573d808015611464576040519150601f19603f3d011682016040523d82523d6000602084013e611469565b606091505b5080516000036114d65760405162461bcd60e51b815260206004820152603260248201527f4552433732313a207472616e7366657220746f206e6f6e20455243373231526560448201527131b2b4bb32b91034b6b83632b6b2b73a32b960711b6064820152608401610566565b805181602001fd5b6001600160e01b031916630a85bd0160e11b149050610a7e565b506001949350505050565b60606000611512836002611e0a565b61151d906002611d02565b67ffffffffffffffff81111561153557611535611a31565b6040519080825280601f01601f19166020018201604052801561155f576020820181803683370190505b509050600360fc1b8160008151811061157a5761157a611d1a565b60200101906001600160f81b031916908160001a9053507f7800000000000000000000000000000000000000000000000000000000000000816001815181106115c5576115c5611d1a565b60200101906001600160f81b031916908160001a90535060006115e9846002611e0a565b6115f4906001611d02565b90505b6001811115611679577f303132333435363738396162636465660000000000000000000000000000000085600f166010811061163557611635611d1a565b1a60f81b82828151811061164b5761164b611d1a565b60200101906001600160f81b031916908160001a90535060049490941c9361167281611e29565b90506115f7565b5083156116c85760405162461bcd60e51b815260206004820181905260248201527f537472696e67733a20686578206c656e67746820696e73756666696369656e746044820152606401610566565b9392505050565b6001600160a01b0382166117255760405162461bcd60e51b815260206004820181905260248201527f4552433732313a206d696e7420746f20746865207a65726f20616464726573736044820152606401610566565b6000818152600460205260409020546001600160a01b03161561178a5760405162461bcd60e51b815260206004820152601c60248201527f4552433732313a20746f6b656e20616c7265616479206d696e746564000000006044820152606401610566565b611798600083836001611233565b6000818152600460205260409020546001600160a01b0316156117fd5760405162461bcd60e51b815260206004820152601c60248201527f4552433732313a20746f6b656e20616c7265616479206d696e746564000000006044820152606401610566565b6001600160a01b0382166000818152600560209081526040808320805460010190558483526004909152808220805473ffffffffffffffffffffffffffffffffffffffff19168417905551839291907fddf252ad1be2c89b69c2b068fc378daa952ba7f163c4a11628f55a4df523b3ef908290a45050565b6001600160e01b031981168114610b7657600080fd5b60006020828403121561189d57600080fd5b81356116c881611875565b60005b838110156118c35781810151838201526020016118ab565b838111156109145750506000910152565b600081518084526118ec8160208601602086016118a8565b601f01601f19169290920160200192915050565b6020815260006116c860208301846118d4565b60006020828403121561192557600080fd5b5035919050565b80356001600160a01b038116811461194357600080fd5b919050565b6000806040838503121561195b57600080fd5b6119648361192c565b946020939093013593505050565b60008060006060848603121561198757600080fd5b6119908461192c565b925061199e6020850161192c565b9150604084013590509250925092565b600080604083850312156119c157600080fd5b823591506119d16020840161192c565b90509250929050565b6000602082840312156119ec57600080fd5b6116c88261192c565b60008060408385031215611a0857600080fd5b611a118361192c565b915060208301358015158114611a2657600080fd5b809150509250929050565b634e487b7160e01b600052604160045260246000fd5b60008060008060808587031215611a5d57600080fd5b611a668561192c565b9350611a746020860161192c565b925060408501359150606085013567ffffffffffffffff80821115611a9857600080fd5b818701915087601f830112611aac57600080fd5b813581811115611abe57611abe611a31565b604051601f8201601f19908116603f01168101908382118183101715611ae657611ae6611a31565b816040528281528a6020848701011115611aff57600080fd5b82602086016020830137600060208483010152809550505050505092959194509250565b60008060408385031215611b3657600080fd5b611b3f8361192c565b91506119d16020840161192c565b600181811c90821680611b6157607f821691505b602082108103611b8157634e487b7160e01b600052602260045260246000fd5b50919050565b8054600090600181811c9080831680611ba157607f831692505b60208084108203611bc257634e487b7160e01b600052602260045260246000fd5b818015611bd65760018114611be757611c14565b60ff19861689528489019650611c14565b60008881526020902060005b86811015611c0c5781548b820152908501908301611bf3565b505084890196505b50505050505092915050565b60008651611c32818460208b016118a8565b865190830190611c46818360208b016118a8565b611c5281830188611b87565b9150508451611c658183602089016118a8565b611c7181830186611b87565b9998505050505050505050565b634e487b7160e01b600052601160045260246000fd5b600060018201611ca657611ca6611c7e565b5060010190565b634e487b7160e01b600052601260045260246000fd5b600082611cd257611cd2611cad565b500490565b600082821015611ce957611ce9611c7e565b500390565b600082611cfd57611cfd611cad565b500690565b60008219821115611d1557611d15611c7e565b500190565b634e487b7160e01b600052603260045260246000fd5b7f416363657373436f6e74726f6c3a206163636f756e7420000000000000000000815260008351611d688160178501602088016118a8565b7f206973206d697373696e6720726f6c65200000000000000000000000000000006017918401918201528351611da58160288401602088016118a8565b01602801949350505050565b60006001600160a01b03808716835280861660208401525083604083015260806060830152611de360808301846118d4565b9695505050505050565b600060208284031215611dff57600080fd5b81516116c881611875565b6000816000190483118215151615611e2457611e24611c7e565b500290565b600081611e3857611e38611c7e565b50600019019056fe516d5263386550514432537a514d626d4e7878763963415563565a594e75725658794863676858396e6246485938516d637851666862644a586f454e324b4671655a6775394a7a6572456539396238746b656e3473624b646364774e516d646264417973634d504b3952396566777973676f42504d3266534c4e57467832776e3472447832435a713571516d5871686b3774734634756f7239324b437559476570574b5232643763334a717a39516d723677427778534274516d61794b5367794565367867666f5666735968645348534e6f44503137756b6644673562376d7a71475846435368747470733a2f2f676174657761792e70696e6174612e636c6f75642f697066732fa26469706673582212209fb04d4cea24085852cd5c7b66b1443669292b055058b6de8eaf40a005f3dac564736f6c634300080d0033",
    "linkReferences": {}
  },
  "methodIdentifiers": {
    "DEFAULT_ADMIN_ROLE()": "a217fddf",
    "MINTER_ROLE()": "d5391393",
    "approve(address,uint256)": "095ea7b3",
    "balanceOf(address)": "70a08231",
    "getApproved(uint256)": "081812fc",
    "getRoleAdmin(bytes32)": "248a9ca3",
    "grantRole(bytes32,address)": "2f2ff15d",
    "hasRole(bytes32,address)": "91d14854",
    "isApprovedForAll(address,address)": "e985e9c5",
    "name()": "06fdde03",
    "ownerOf(uint256)": "6352211e",
    "renounceRole(bytes32,address)": "36568abe",
    "revokeRole(bytes32,address)": "d547741f",
    "safeMint(address,uint256)": "a1448194",
    "safeTransferFrom(address,address,uint256)": "42842e0e",
    "safeTransferFrom(address,address,uint256,bytes)": "b88d4fde",
    "setApprovalForAll(address,bool)": "a22cb465",
    "supportsInterface(bytes4)": "01ffc9a7",
    "symbol()": "95d89b41",
    "tokenURI(uint256)": "c87b56dd",
    "transferFrom(address,address,uint256)": "23b872dd"
  },
  "id": 0
}