{
  "abi": [
    {
      "inputs": [],
      "stateMutability": "nonpayable",
      "type": "constructor"
    },
    {
      "anonymous": false,
      "inputs": [
        {
          "indexed": false,
          "internalType": "address",
          "name": "previousAdmin",
          "type": "address"
        },
        {
          "indexed": false,
          "internalType": "address",
          "name": "newAdmin",
          "type": "address"
        }
      ],
      "name": "AdminChanged",
      "type": "event"
    },
    {
      "anonymous": false,
      "inputs": [
        {
          "indexed": true,
          "internalType": "address",
          "name": "owner",
          "type": "address"
        },
        {
          "indexed": true,
          "internalType": "address",
          "name": "approved",
          "type": "address"
        },
        {
          "indexed": true,
          "internalType": "uint256",
          "name": "tokenId",
          "type": "uint256"
        }
      ],
      "name": "Approval",
      "type": "event"
    },
    {
      "anonymous": false,
      "inputs": [
        {
          "indexed": true,
          "internalType": "address",
          "name": "owner",
          "type": "address"
        },
        {
          "indexed": true,
          "internalType": "address",
          "name": "operator",
          "type": "address"
        },
        {
          "indexed": false,
          "internalType": "bool",
          "name": "approved",
          "type": "bool"
        }
      ],
      "name": "ApprovalForAll",
      "type": "event"
    },
    {
      "anonymous": false,
      "inputs": [
        {
          "indexed": true,
          "internalType": "address",
          "name": "beacon",
          "type": "address"
        }
      ],
      "name": "BeaconUpgraded",
      "type": "event"
    },
    {
      "anonymous": false,
      "inputs": [
        {
          "indexed": false,
          "internalType": "uint8",
          "name": "version",
          "type": "uint8"
        }
      ],
      "name": "Initialized",
      "type": "event"
    },
    {
      "anonymous": false,
      "inputs": [
        {
          "indexed": true,
          "internalType": "bytes32",
          "name": "role",
          "type": "bytes32"
        },
        {
          "indexed": true,
          "internalType": "bytes32",
          "name": "previousAdminRole",
          "type": "bytes32"
        },
        {
          "indexed": true,
          "internalType": "bytes32",
          "name": "newAdminRole",
          "type": "bytes32"
        }
      ],
      "name": "RoleAdminChanged",
      "type": "event"
    },
    {
      "anonymous": false,
      "inputs": [
        {
          "indexed": true,
          "internalType": "bytes32",
          "name": "role",
          "type": "bytes32"
        },
        {
          "indexed": true,
          "internalType": "address",
          "name": "account",
          "type": "address"
        },
        {
          "indexed": true,
          "internalType": "address",
          "name": "sender",
          "type": "address"
        }
      ],
      "name": "RoleGranted",
      "type": "event"
    },
    {
      "anonymous": false,
      "inputs": [
        {
          "indexed": true,
          "internalType": "bytes32",
          "name": "role",
          "type": "bytes32"
        },
        {
          "indexed": true,
          "internalType": "address",
          "name": "account",
          "type": "address"
        },
        {
          "indexed": true,
          "internalType": "address",
          "name": "sender",
          "type": "address"
        }
      ],
      "name": "RoleRevoked",
      "type": "event"
    },
    {
      "anonymous": false,
      "inputs": [
        {
          "indexed": true,
          "internalType": "address",
          "name": "from",
          "type": "address"
        },
        {
          "indexed": true,
          "internalType": "address",
          "name": "to",
          "type": "address"
        },
        {
          "indexed": true,
          "internalType": "uint256",
          "name": "tokenId",
          "type": "uint256"
        }
      ],
      "name": "Transfer",
      "type": "event"
    },
    {
      "anonymous": false,
      "inputs": [
        {
          "indexed": true,
          "internalType": "address",
          "name": "implementation",
          "type": "address"
        }
      ],
      "name": "Upgraded",
      "type": "event"
    },
    {
      "inputs": [],
      "name": "DEFAULT_ADMIN_ROLE",
      "outputs": [
        {
          "internalType": "bytes32",
          "name": "",
          "type": "bytes32"
        }
      ],
      "stateMutability": "view",
      "type": "function"
    },
    {
      "inputs": [],
      "name": "MINTER_ROLE",
      "outputs": [
        {
          "internalType": "bytes32",
          "name": "",
          "type": "bytes32"
        }
      ],
      "stateMutability": "view",
      "type": "function"
    },
    {
      "inputs": [],
      "name": "UPGRADER_ROLE",
      "outputs": [
        {
          "internalType": "bytes32",
          "name": "",
          "type": "bytes32"
        }
      ],
      "stateMutability": "view",
      "type": "function"
    },
    {
      "inputs": [
        {
          "internalType": "address",
          "name": "owner",
          "type": "address"
        }
      ],
      "name": "allUserTokens",
      "outputs": [
        {
          "internalType": "uint256[]",
          "name": "",
          "type": "uint256[]"
        }
      ],
      "stateMutability": "view",
      "type": "function"
    },
    {
      "inputs": [
        {
          "internalType": "address",
          "name": "to",
          "type": "address"
        },
        {
          "internalType": "uint256",
          "name": "tokenId",
          "type": "uint256"
        }
      ],
      "name": "approve",
      "outputs": [],
      "stateMutability": "nonpayable",
      "type": "function"
    },
    {
      "inputs": [
        {
          "internalType": "address",
          "name": "owner",
          "type": "address"
        }
      ],
      "name": "balanceOf",
      "outputs": [
        {
          "internalType": "uint256",
          "name": "",
          "type": "uint256"
        }
      ],
      "stateMutability": "view",
      "type": "function"
    },
    {
      "inputs": [
        {
          "internalType": "uint256",
          "name": "tokenId",
          "type": "uint256"
        }
      ],
      "name": "getApproved",
      "outputs": [
        {
          "internalType": "address",
          "name": "",
          "type": "address"
        }
      ],
      "stateMutability": "view",
      "type": "function"
    },
    {
      "inputs": [],
      "name": "getBlockTransferUntil",
      "outputs": [
        {
          "internalType": "uint256",
          "name": "",
          "type": "uint256"
        }
      ],
      "stateMutability": "view",
      "type": "function"
    },
    {
      "inputs": [],
      "name": "getNFTSold",
      "outputs": [
        {
          "internalType": "uint256",
          "name": "",
          "type": "uint256"
        }
      ],
      "stateMutability": "view",
      "type": "function"
    },
    {
      "inputs": [
        {
          "internalType": "bytes32",
          "name": "role",
          "type": "bytes32"
        }
      ],
      "name": "getRoleAdmin",
      "outputs": [
        {
          "internalType": "bytes32",
          "name": "",
          "type": "bytes32"
        }
      ],
      "stateMutability": "view",
      "type": "function"
    },
    {
      "inputs": [
        {
          "internalType": "bytes32",
          "name": "role",
          "type": "bytes32"
        },
        {
          "internalType": "address",
          "name": "account",
          "type": "address"
        }
      ],
      "name": "grantRole",
      "outputs": [],
      "stateMutability": "nonpayable",
      "type": "function"
    },
    {
      "inputs": [
        {
          "internalType": "bytes32",
          "name": "role",
          "type": "bytes32"
        },
        {
          "internalType": "address",
          "name": "account",
          "type": "address"
        }
      ],
      "name": "hasRole",
      "outputs": [
        {
          "internalType": "bool",
          "name": "",
          "type": "bool"
        }
      ],
      "stateMutability": "view",
      "type": "function"
    },
    {
      "inputs": [
        {
          "internalType": "string",
          "name": "name",
          "type": "string"
        },
        {
          "internalType": "string",
          "name": "symbole",
          "type": "string"
        },
        {
          "internalType": "uint256",
          "name": "blockTransferUntil",
          "type": "uint256"
        }
      ],
      "name": "initialize",
      "outputs": [],
      "stateMutability": "nonpayable",
      "type": "function"
    },
    {
      "inputs": [
        {
          "internalType": "address",
          "name": "owner",
          "type": "address"
        },
        {
          "internalType": "address",
          "name": "operator",
          "type": "address"
        }
      ],
      "name": "isApprovedForAll",
      "outputs": [
        {
          "internalType": "bool",
          "name": "",
          "type": "bool"
        }
      ],
      "stateMutability": "view",
      "type": "function"
    },
    {
      "inputs": [],
      "name": "name",
      "outputs": [
        {
          "internalType": "string",
          "name": "",
          "type": "string"
        }
      ],
      "stateMutability": "view",
      "type": "function"
    },
    {
      "inputs": [
        {
          "internalType": "uint256",
          "name": "tokenId",
          "type": "uint256"
        }
      ],
      "name": "ownerOf",
      "outputs": [
        {
          "internalType": "address",
          "name": "",
          "type": "address"
        }
      ],
      "stateMutability": "view",
      "type": "function"
    },
    {
      "inputs": [],
      "name": "proxiableUUID",
      "outputs": [
        {
          "internalType": "bytes32",
          "name": "",
          "type": "bytes32"
        }
      ],
      "stateMutability": "view",
      "type": "function"
    },
    {
      "inputs": [
        {
          "internalType": "bytes32",
          "name": "role",
          "type": "bytes32"
        },
        {
          "internalType": "address",
          "name": "account",
          "type": "address"
        }
      ],
      "name": "renounceRole",
      "outputs": [],
      "stateMutability": "nonpayable",
      "type": "function"
    },
    {
      "inputs": [
        {
          "internalType": "bytes32",
          "name": "role",
          "type": "bytes32"
        },
        {
          "internalType": "address",
          "name": "account",
          "type": "address"
        }
      ],
      "name": "revokeRole",
      "outputs": [],
      "stateMutability": "nonpayable",
      "type": "function"
    },
    {
      "inputs": [
        {
          "internalType": "address",
          "name": "to",
          "type": "address"
        },
        {
          "internalType": "string",
          "name": "uri",
          "type": "string"
        }
      ],
      "name": "safeMint",
      "outputs": [],
      "stateMutability": "nonpayable",
      "type": "function"
    },
    {
      "inputs": [
        {
          "internalType": "address",
          "name": "from",
          "type": "address"
        },
        {
          "internalType": "address",
          "name": "to",
          "type": "address"
        },
        {
          "internalType": "uint256",
          "name": "tokenId",
          "type": "uint256"
        }
      ],
      "name": "safeTransferFrom",
      "outputs": [],
      "stateMutability": "nonpayable",
      "type": "function"
    },
    {
      "inputs": [
        {
          "internalType": "address",
          "name": "from",
          "type": "address"
        },
        {
          "internalType": "address",
          "name": "to",
          "type": "address"
        },
        {
          "internalType": "uint256",
          "name": "tokenId",
          "type": "uint256"
        },
        {
          "internalType": "bytes",
          "name": "data",
          "type": "bytes"
        }
      ],
      "name": "safeTransferFrom",
      "outputs": [],
      "stateMutability": "nonpayable",
      "type": "function"
    },
    {
      "inputs": [
        {
          "internalType": "address",
          "name": "operator",
          "type": "address"
        },
        {
          "internalType": "bool",
          "name": "approved",
          "type": "bool"
        }
      ],
      "name": "setApprovalForAll",
      "outputs": [],
      "stateMutability": "nonpayable",
      "type": "function"
    },
    {
      "inputs": [
        {
          "internalType": "uint256",
          "name": "timeStamp",
          "type": "uint256"
        }
      ],
      "name": "setBlockTransferUntil",
      "outputs": [],
      "stateMutability": "nonpayable",
      "type": "function"
    },
    {
      "inputs": [
        {
          "internalType": "bytes4",
          "name": "interfaceId",
          "type": "bytes4"
        }
      ],
      "name": "supportsInterface",
      "outputs": [
        {
          "internalType": "bool",
          "name": "",
          "type": "bool"
        }
      ],
      "stateMutability": "view",
      "type": "function"
    },
    {
      "inputs": [],
      "name": "symbol",
      "outputs": [
        {
          "internalType": "string",
          "name": "",
          "type": "string"
        }
      ],
      "stateMutability": "view",
      "type": "function"
    },
    {
      "inputs": [
        {
          "internalType": "uint256",
          "name": "index",
          "type": "uint256"
        }
      ],
      "name": "tokenByIndex",
      "outputs": [
        {
          "internalType": "uint256",
          "name": "",
          "type": "uint256"
        }
      ],
      "stateMutability": "view",
      "type": "function"
    },
    {
      "inputs": [
        {
          "internalType": "address",
          "name": "owner",
          "type": "address"
        },
        {
          "internalType": "uint256",
          "name": "index",
          "type": "uint256"
        }
      ],
      "name": "tokenOfOwnerByIndex",
      "outputs": [
        {
          "internalType": "uint256",
          "name": "",
          "type": "uint256"
        }
      ],
      "stateMutability": "view",
      "type": "function"
    },
    {
      "inputs": [
        {
          "internalType": "uint256",
          "name": "tokenId",
          "type": "uint256"
        }
      ],
      "name": "tokenURI",
      "outputs": [
        {
          "internalType": "string",
          "name": "",
          "type": "string"
        }
      ],
      "stateMutability": "view",
      "type": "function"
    },
    {
      "inputs": [],
      "name": "totalSupply",
      "outputs": [
        {
          "internalType": "uint256",
          "name": "",
          "type": "uint256"
        }
      ],
      "stateMutability": "view",
      "type": "function"
    },
    {
      "inputs": [
        {
          "internalType": "address",
          "name": "from",
          "type": "address"
        },
        {
          "internalType": "address",
          "name": "to",
          "type": "address"
        },
        {
          "internalType": "uint256",
          "name": "tokenId",
          "type": "uint256"
        }
      ],
      "name": "transferFrom",
      "outputs": [],
      "stateMutability": "nonpayable",
      "type": "function"
    },
    {
      "inputs": [
        {
          "internalType": "string",
          "name": "baseURI",
          "type": "string"
        }
      ],
      "name": "updateBaseURI",
      "outputs": [],
      "stateMutability": "nonpayable",
      "type": "function"
    },
    {
      "inputs": [
        {
          "internalType": "uint256",
          "name": "_tokenId",
          "type": "uint256"
        },
        {
          "internalType": "string",
          "name": "_tokenUri",
          "type": "string"
        }
      ],
      "name": "updateTokenUri",
      "outputs": [],
      "stateMutability": "nonpayable",
      "type": "function"
    },
    {
      "inputs": [
        {
          "internalType": "address",
          "name": "newImplementation",
          "type": "address"
        }
      ],
      "name": "upgradeTo",
      "outputs": [],
      "stateMutability": "nonpayable",
      "type": "function"
    },
    {
      "inputs": [
        {
          "internalType": "address",
          "name": "newImplementation",
          "type": "address"
        },
        {
          "internalType": "bytes",
          "name": "data",
          "type": "bytes"
        }
      ],
      "name": "upgradeToAndCall",
      "outputs": [],
      "stateMutability": "payable",
      "type": "function"
    }
  ],
  "bytecode": {
    "object": "0x60a0604052306080523480156200001557600080fd5b506200002062000026565b620000e8565b600054610100900460ff1615620000935760405162461bcd60e51b815260206004820152602760248201527f496e697469616c697a61626c653a20636f6e747261637420697320696e697469604482015266616c697a696e6760c81b606482015260840160405180910390fd5b60005460ff9081161015620000e6576000805460ff191660ff9081179091556040519081527f7f26b83ff96e1f2b6a682f133852f6798a09c465da95921460cefb38474024989060200160405180910390a15b565b6080516135e36200012060003960008181610ada01528181610b5f01528181610d8101528181610e060152610f9001526135e36000f3fe6080604052600436106102345760003560e01c806352d1902d11610138578063b119490e116100b0578063d31af4841161007f578063d547741f11610064578063d547741f1461067d578063e985e9c51461069d578063f72c0d8b146106e657600080fd5b8063d31af48414610629578063d53913931461064957600080fd5b8063b119490e146105a9578063b88d4fde146105c9578063c87b56dd146105e9578063d204c45e1461060957600080fd5b806391d148541161010757806395d89b41116100ec57806395d89b411461055f578063a217fddf14610574578063a22cb4651461058957600080fd5b806391d14854146104f9578063931688cb1461053f57600080fd5b806352d1902d146104845780635c1e6fb6146104995780636352211e146104b957806370a08231146104d957600080fd5b80632f2ff15d116101cb57806339618ae01161019a5780634973fd011161017f5780634973fd011461043c5780634f1ef286146104515780634f6ccce71461046457600080fd5b806339618ae0146103ef57806342842e0e1461041c57600080fd5b80632f2ff15d1461036f5780632f745c591461038f57806336568abe146103af5780633659cfe6146103cf57600080fd5b8063095ea7b311610207578063095ea7b3146102e857806318160ddd1461030a57806323b872dd1461031f578063248a9ca31461033f57600080fd5b806301ffc9a714610239578063057df7bb1461026e57806306fdde031461028e578063081812fc146102b0575b600080fd5b34801561024557600080fd5b50610259610254366004612ed0565b61071a565b60405190151581526020015b60405180910390f35b34801561027a57600080fd5b50610193545b604051908152602001610265565b34801561029a57600080fd5b506102a361072b565b6040516102659190612f45565b3480156102bc57600080fd5b506102d06102cb366004612f58565b6107bd565b6040516001600160a01b039091168152602001610265565b3480156102f457600080fd5b50610308610303366004612f8d565b6107e4565b005b34801561031657600080fd5b50609954610280565b34801561032b57600080fd5b5061030861033a366004612fb7565b61091a565b34801561034b57600080fd5b5061028061035a366004612f58565b600090815260fb602052604090206001015490565b34801561037b57600080fd5b5061030861038a366004612ff3565b610977565b34801561039b57600080fd5b506102806103aa366004612f8d565b61099c565b3480156103bb57600080fd5b506103086103ca366004612ff3565b610a44565b3480156103db57600080fd5b506103086103ea36600461301f565b610ad0565b3480156103fb57600080fd5b5061040f61040a36600461301f565b610c4b565b604051610265919061303a565b34801561042857600080fd5b50610308610437366004612fb7565b610d09565b34801561044857600080fd5b50610280610d66565b61030861045f366004613121565b610d77565b34801561047057600080fd5b5061028061047f366004612f58565b610edf565b34801561049057600080fd5b50610280610f83565b3480156104a557600080fd5b506103086104b4366004612f58565b611048565b3480156104c557600080fd5b506102d06104d4366004612f58565b61105a565b3480156104e557600080fd5b506102806104f436600461301f565b6110bf565b34801561050557600080fd5b50610259610514366004612ff3565b600091825260fb602090815260408084206001600160a01b0393909316845291905290205460ff1690565b34801561054b57600080fd5b5061030861055a36600461316f565b611159565b34801561056b57600080fd5b506102a3611178565b34801561058057600080fd5b50610280600081565b34801561059557600080fd5b506103086105a43660046131a4565b611187565b3480156105b557600080fd5b506103086105c43660046131e0565b611192565b3480156105d557600080fd5b506103086105e436600461324d565b611334565b3480156105f557600080fd5b506102a3610604366004612f58565b611392565b34801561061557600080fd5b50610308610624366004613121565b61139d565b34801561063557600080fd5b506103086106443660046132b5565b6113f8565b34801561065557600080fd5b506102807f9f2df0fed2c77648de5860a4cc508cd0818c85b8b8a1ab4ceeef8d981c8956a681565b34801561068957600080fd5b50610308610698366004612ff3565b611551565b3480156106a957600080fd5b506102596106b83660046132e6565b6001600160a01b039182166000908152606a6020908152604080832093909416825291909152205460ff1690565b3480156106f257600080fd5b506102807f189ab7a9244df0848122154315af71fe140f3db0fe014031783b0946b8c9d2e381565b600061072582611576565b92915050565b60606065805461073a90613310565b80601f016020809104026020016040519081016040528092919081815260200182805461076690613310565b80156107b35780601f10610788576101008083540402835291602001916107b3565b820191906000526020600020905b81548152906001019060200180831161079657829003601f168201915b5050505050905090565b60006107c8826115b4565b506000908152606960205260409020546001600160a01b031690565b60006107ef8261105a565b9050806001600160a01b0316836001600160a01b03160361087d5760405162461bcd60e51b815260206004820152602160248201527f4552433732313a20617070726f76616c20746f2063757272656e74206f776e6560448201527f720000000000000000000000000000000000000000000000000000000000000060648201526084015b60405180910390fd5b336001600160a01b0382161480610899575061089981336106b8565b61090b5760405162461bcd60e51b815260206004820152603e60248201527f4552433732313a20617070726f76652063616c6c6572206973206e6f7420746f60448201527f6b656e206f776e6572206e6f7220617070726f76656420666f7220616c6c00006064820152608401610874565b6109158383611618565b505050565b61019354421161096c5760405162461bcd60e51b815260206004820152601360248201527f4e4654206973206c6f636b20666f72206e6f77000000000000000000000000006044820152606401610874565b610915838383611693565b600082815260fb60205260409020600101546109928161171a565b6109158383611724565b60006109a7836110bf565b8210610a1b5760405162461bcd60e51b815260206004820152602b60248201527f455243373231456e756d657261626c653a206f776e657220696e646578206f7560448201527f74206f6620626f756e64730000000000000000000000000000000000000000006064820152608401610874565b506001600160a01b03919091166000908152609760209081526040808320938352929052205490565b6001600160a01b0381163314610ac25760405162461bcd60e51b815260206004820152602f60248201527f416363657373436f6e74726f6c3a2063616e206f6e6c792072656e6f756e636560448201527f20726f6c657320666f722073656c6600000000000000000000000000000000006064820152608401610874565b610acc82826117c6565b5050565b6001600160a01b037f0000000000000000000000000000000000000000000000000000000000000000163003610b5d5760405162461bcd60e51b815260206004820152602c60248201527f46756e6374696f6e206d7573742062652063616c6c6564207468726f7567682060448201526b19195b1959d85d1958d85b1b60a21b6064820152608401610874565b7f00000000000000000000000000000000000000000000000000000000000000006001600160a01b0316610bb87f360894a13ba1a3210667c828492db98dca3e2076cc3735a920a3ca505d382bbc546001600160a01b031690565b6001600160a01b031614610c235760405162461bcd60e51b815260206004820152602c60248201527f46756e6374696f6e206d7573742062652063616c6c6564207468726f7567682060448201526b6163746976652070726f787960a01b6064820152608401610874565b610c2c81611849565b60408051600080825260208201909252610c4891839190611873565b50565b60606000610c58836110bf565b905060008167ffffffffffffffff811115610c7557610c7561307e565b604051908082528060200260200182016040528015610c9e578160200160208202803683370190505b50905060005b82811015610d01576001600160a01b03851660009081526097602090815260408083208484529091529020548251839083908110610ce457610ce461334a565b602090810291909101015280610cf981613376565b915050610ca4565b509392505050565b610193544211610d5b5760405162461bcd60e51b815260206004820152601360248201527f4e4654206973206c6f636b20666f72206e6f77000000000000000000000000006044820152606401610874565b610915838383611a13565b6000610d726101915490565b905090565b6001600160a01b037f0000000000000000000000000000000000000000000000000000000000000000163003610e045760405162461bcd60e51b815260206004820152602c60248201527f46756e6374696f6e206d7573742062652063616c6c6564207468726f7567682060448201526b19195b1959d85d1958d85b1b60a21b6064820152608401610874565b7f00000000000000000000000000000000000000000000000000000000000000006001600160a01b0316610e5f7f360894a13ba1a3210667c828492db98dca3e2076cc3735a920a3ca505d382bbc546001600160a01b031690565b6001600160a01b031614610eca5760405162461bcd60e51b815260206004820152602c60248201527f46756e6374696f6e206d7573742062652063616c6c6564207468726f7567682060448201526b6163746976652070726f787960a01b6064820152608401610874565b610ed382611849565b610acc82826001611873565b6000610eea60995490565b8210610f5e5760405162461bcd60e51b815260206004820152602c60248201527f455243373231456e756d657261626c653a20676c6f62616c20696e646578206f60448201527f7574206f6620626f756e647300000000000000000000000000000000000000006064820152608401610874565b60998281548110610f7157610f7161334a565b90600052602060002001549050919050565b6000306001600160a01b037f000000000000000000000000000000000000000000000000000000000000000016146110235760405162461bcd60e51b815260206004820152603860248201527f555550535570677261646561626c653a206d757374206e6f742062652063616c60448201527f6c6564207468726f7567682064656c656761746563616c6c00000000000000006064820152608401610874565b507f360894a13ba1a3210667c828492db98dca3e2076cc3735a920a3ca505d382bbc90565b60006110538161171a565b5061019355565b6000818152606760205260408120546001600160a01b0316806107255760405162461bcd60e51b815260206004820152601860248201527f4552433732313a20696e76616c696420746f6b656e20494400000000000000006044820152606401610874565b60006001600160a01b03821661113d5760405162461bcd60e51b815260206004820152602960248201527f4552433732313a2061646472657373207a65726f206973206e6f74206120766160448201527f6c6964206f776e657200000000000000000000000000000000000000000000006064820152608401610874565b506001600160a01b031660009081526068602052604090205490565b60006111648161171a565b815161091590610192906020850190612e21565b60606066805461073a90613310565b610acc338383611a2e565b600054610100900460ff16158080156111b25750600054600160ff909116105b806111cc5750303b1580156111cc575060005460ff166001145b61123e5760405162461bcd60e51b815260206004820152602e60248201527f496e697469616c697a61626c653a20636f6e747261637420697320616c72656160448201527f647920696e697469616c697a65640000000000000000000000000000000000006064820152608401610874565b6000805460ff191660011790558015611261576000805461ff0019166101001790555b61126b8484611afc565b611273611b71565b61127b611b71565b611283611b71565b61128e600033611724565b6112b87f9f2df0fed2c77648de5860a4cc508cd0818c85b8b8a1ab4ceeef8d981c8956a633611724565b6112e27f189ab7a9244df0848122154315af71fe140f3db0fe014031783b0946b8c9d2e333611724565b610193829055801561132e576000805461ff0019169055604051600181527f7f26b83ff96e1f2b6a682f133852f6798a09c465da95921460cefb38474024989060200160405180910390a15b50505050565b6101935442116113865760405162461bcd60e51b815260206004820152601360248201527f4e4654206973206c6f636b20666f72206e6f77000000000000000000000000006044820152606401610874565b61132e84848484611bde565b606061072582611c66565b7f9f2df0fed2c77648de5860a4cc508cd0818c85b8b8a1ab4ceeef8d981c8956a66113c78161171a565b6113d661019180546001019055565b60006113e26101915490565b90506113ee8482611d69565b61132e8184611d83565b60006114038161171a565b6000838152606760205260409020546001600160a01b031661148d5760405162461bcd60e51b815260206004820152602b60248201527f4e46543a207570646174652055524920717565727920666f72206e6f6e65786960448201527f7374656e7420746f6b656e0000000000000000000000000000000000000000006064820152608401610874565b8151156109155761149c611e2c565b826040516020016114ae92919061338f565b604051602081830303815290604052805190602001206114cd84611392565b80519060200120036115475760405162461bcd60e51b815260206004820152602560248201527f4e46543a204e657720746f6b656e205552492069732073616d6520617320757060448201527f64617465640000000000000000000000000000000000000000000000000000006064820152608401610874565b6109158383611d83565b600082815260fb602052604090206001015461156c8161171a565b61091583836117c6565b60006001600160e01b031982167f7965db0b000000000000000000000000000000000000000000000000000000001480610725575061072582611e3c565b6000818152606760205260409020546001600160a01b0316610c485760405162461bcd60e51b815260206004820152601860248201527f4552433732313a20696e76616c696420746f6b656e20494400000000000000006044820152606401610874565b6000818152606960205260409020805473ffffffffffffffffffffffffffffffffffffffff19166001600160a01b038416908117909155819061165a8261105a565b6001600160a01b03167f8c5be1e5ebec7d5bd14f71427d1e84f3dd0314c0f7b2291e5b200ac8c7c3b92560405160405180910390a45050565b61169d3382611e7a565b61170f5760405162461bcd60e51b815260206004820152602e60248201527f4552433732313a2063616c6c6572206973206e6f7420746f6b656e206f776e6560448201527f72206e6f7220617070726f7665640000000000000000000000000000000000006064820152608401610874565b610915838383611ef8565b610c4881336120dd565b600082815260fb602090815260408083206001600160a01b038516845290915290205460ff16610acc57600082815260fb602090815260408083206001600160a01b03851684529091529020805460ff191660011790556117823390565b6001600160a01b0316816001600160a01b0316837f2f8788117e7eff1d82e926ec794901d17c78024a50270940304540a733656f0d60405160405180910390a45050565b600082815260fb602090815260408083206001600160a01b038516845290915290205460ff1615610acc57600082815260fb602090815260408083206001600160a01b0385168085529252808320805460ff1916905551339285917ff6391f5c32d9c69d2a47ea670b442974b53935d1edc7fd64eb21e047a839171b9190a45050565b7f189ab7a9244df0848122154315af71fe140f3db0fe014031783b0946b8c9d2e3610acc8161171a565b7f4910fdfa16fed3260ed0e7147f7cc6da11a60208b5b9406d12a635614ffd91435460ff16156118a6576109158361215d565b826001600160a01b03166352d1902d6040518163ffffffff1660e01b8152600401602060405180830381865afa925050508015611900575060408051601f3d908101601f191682019092526118fd918101906133be565b60015b6119725760405162461bcd60e51b815260206004820152602e60248201527f45524331393637557067726164653a206e657720696d706c656d656e7461746960448201527f6f6e206973206e6f7420555550530000000000000000000000000000000000006064820152608401610874565b7f360894a13ba1a3210667c828492db98dca3e2076cc3735a920a3ca505d382bbc8114611a075760405162461bcd60e51b815260206004820152602960248201527f45524331393637557067726164653a20756e737570706f727465642070726f7860448201527f6961626c655555494400000000000000000000000000000000000000000000006064820152608401610874565b50610915838383612228565b61091583838360405180602001604052806000815250611334565b816001600160a01b0316836001600160a01b031603611a8f5760405162461bcd60e51b815260206004820152601960248201527f4552433732313a20617070726f766520746f2063616c6c6572000000000000006044820152606401610874565b6001600160a01b038381166000818152606a6020908152604080832094871680845294825291829020805460ff191686151590811790915591519182527f17307eab39ab6107e8899845ad3d59bd9653f200f220920489ca2b5937696c31910160405180910390a3505050565b600054610100900460ff16611b675760405162461bcd60e51b815260206004820152602b60248201527f496e697469616c697a61626c653a20636f6e7472616374206973206e6f74206960448201526a6e697469616c697a696e6760a81b6064820152608401610874565b610acc828261224d565b600054610100900460ff16611bdc5760405162461bcd60e51b815260206004820152602b60248201527f496e697469616c697a61626c653a20636f6e7472616374206973206e6f74206960448201526a6e697469616c697a696e6760a81b6064820152608401610874565b565b611be83383611e7a565b611c5a5760405162461bcd60e51b815260206004820152602e60248201527f4552433732313a2063616c6c6572206973206e6f7420746f6b656e206f776e6560448201527f72206e6f7220617070726f7665640000000000000000000000000000000000006064820152608401610874565b61132e848484846122df565b6060611c71826115b4565b600082815260c9602052604081208054611c8a90613310565b80601f0160208091040260200160405190810160405280929190818152602001828054611cb690613310565b8015611d035780601f10611cd857610100808354040283529160200191611d03565b820191906000526020600020905b815481529060010190602001808311611ce657829003601f168201915b505050505090506000611d14611e2c565b90508051600003611d26575092915050565b815115611d58578082604051602001611d4092919061338f565b60405160208183030381529060405292505050919050565b611d618461235d565b949350505050565b610acc8282604051806020016040528060008152506123c4565b6000828152606760205260409020546001600160a01b0316611e0d5760405162461bcd60e51b815260206004820152602e60248201527f45524337323155524953746f726167653a2055524920736574206f66206e6f6e60448201527f6578697374656e7420746f6b656e0000000000000000000000000000000000006064820152608401610874565b600082815260c960209081526040909120825161091592840190612e21565b6060610192805461073a90613310565b60006001600160e01b031982167f780e9d63000000000000000000000000000000000000000000000000000000001480610725575061072582612442565b600080611e868361105a565b9050806001600160a01b0316846001600160a01b03161480611ecd57506001600160a01b038082166000908152606a602090815260408083209388168352929052205460ff165b80611d615750836001600160a01b0316611ee6846107bd565b6001600160a01b031614949350505050565b826001600160a01b0316611f0b8261105a565b6001600160a01b031614611f875760405162461bcd60e51b815260206004820152602560248201527f4552433732313a207472616e736665722066726f6d20696e636f72726563742060448201527f6f776e65720000000000000000000000000000000000000000000000000000006064820152608401610874565b6001600160a01b0382166120025760405162461bcd60e51b8152602060048201526024808201527f4552433732313a207472616e7366657220746f20746865207a65726f2061646460448201527f72657373000000000000000000000000000000000000000000000000000000006064820152608401610874565b61200d8383836124dd565b612018600082611618565b6001600160a01b03831660009081526068602052604081208054600192906120419084906133d7565b90915550506001600160a01b038216600090815260686020526040812080546001929061206f9084906133ee565b9091555050600081815260676020526040808220805473ffffffffffffffffffffffffffffffffffffffff19166001600160a01b0386811691821790925591518493918716917fddf252ad1be2c89b69c2b068fc378daa952ba7f163c4a11628f55a4df523b3ef91a4505050565b600082815260fb602090815260408083206001600160a01b038516845290915290205460ff16610acc5761211b816001600160a01b031660146124e8565b6121268360206124e8565b604051602001612137929190613406565b60408051601f198184030181529082905262461bcd60e51b825261087491600401612f45565b6001600160a01b0381163b6121da5760405162461bcd60e51b815260206004820152602d60248201527f455243313936373a206e657720696d706c656d656e746174696f6e206973206e60448201527f6f74206120636f6e7472616374000000000000000000000000000000000000006064820152608401610874565b7f360894a13ba1a3210667c828492db98dca3e2076cc3735a920a3ca505d382bbc805473ffffffffffffffffffffffffffffffffffffffff19166001600160a01b0392909216919091179055565b612231836126ad565b60008251118061223e5750805b156109155761132e83836126ed565b600054610100900460ff166122b85760405162461bcd60e51b815260206004820152602b60248201527f496e697469616c697a61626c653a20636f6e7472616374206973206e6f74206960448201526a6e697469616c697a696e6760a81b6064820152608401610874565b81516122cb906065906020850190612e21565b508051610915906066906020840190612e21565b6122ea848484611ef8565b6122f6848484846127f8565b61132e5760405162461bcd60e51b815260206004820152603260248201527f4552433732313a207472616e7366657220746f206e6f6e20455243373231526560448201527131b2b4bb32b91034b6b83632b6b2b73a32b960711b6064820152608401610874565b6060612368826115b4565b6000612372611e2c565b9050600081511161239257604051806020016040528060008152506123bd565b8061239c84612944565b6040516020016123ad92919061338f565b6040516020818303038152906040525b9392505050565b6123ce8383612a45565b6123db60008484846127f8565b6109155760405162461bcd60e51b815260206004820152603260248201527f4552433732313a207472616e7366657220746f206e6f6e20455243373231526560448201527131b2b4bb32b91034b6b83632b6b2b73a32b960711b6064820152608401610874565b60006001600160e01b031982167f80ac58cd0000000000000000000000000000000000000000000000000000000014806124a557506001600160e01b031982167f5b5e139f00000000000000000000000000000000000000000000000000000000145b8061072557507f01ffc9a7000000000000000000000000000000000000000000000000000000006001600160e01b0319831614610725565b610915838383612ba0565b606060006124f7836002613487565b6125029060026133ee565b67ffffffffffffffff81111561251a5761251a61307e565b6040519080825280601f01601f191660200182016040528015612544576020820181803683370190505b509050600360fc1b8160008151811061255f5761255f61334a565b60200101906001600160f81b031916908160001a9053507f7800000000000000000000000000000000000000000000000000000000000000816001815181106125aa576125aa61334a565b60200101906001600160f81b031916908160001a90535060006125ce846002613487565b6125d99060016133ee565b90505b600181111561265e577f303132333435363738396162636465660000000000000000000000000000000085600f166010811061261a5761261a61334a565b1a60f81b8282815181106126305761263061334a565b60200101906001600160f81b031916908160001a90535060049490941c93612657816134a6565b90506125dc565b5083156123bd5760405162461bcd60e51b815260206004820181905260248201527f537472696e67733a20686578206c656e67746820696e73756666696369656e746044820152606401610874565b6126b68161215d565b6040516001600160a01b038216907fbc7cd75a20ee27fd9adebab32041f755214dbc6bffa90cc0225b39da2e5c2d3b90600090a250565b60606001600160a01b0383163b61276c5760405162461bcd60e51b815260206004820152602660248201527f416464726573733a2064656c65676174652063616c6c20746f206e6f6e2d636f60448201527f6e747261637400000000000000000000000000000000000000000000000000006064820152608401610874565b600080846001600160a01b03168460405161278791906134bd565b600060405180830381855af49150503d80600081146127c2576040519150601f19603f3d011682016040523d82523d6000602084013e6127c7565b606091505b50915091506127ef828260405180606001604052806027815260200161358760279139612c58565b95945050505050565b60006001600160a01b0384163b1561293957604051630a85bd0160e11b81526001600160a01b0385169063150b7a029061283c9033908990889088906004016134d9565b6020604051808303816000875af1925050508015612877575060408051601f3d908101601f1916820190925261287491810190613515565b60015b61291f573d8080156128a5576040519150601f19603f3d011682016040523d82523d6000602084013e6128aa565b606091505b5080516000036129175760405162461bcd60e51b815260206004820152603260248201527f4552433732313a207472616e7366657220746f206e6f6e20455243373231526560448201527131b2b4bb32b91034b6b83632b6b2b73a32b960711b6064820152608401610874565b805181602001fd5b6001600160e01b031916630a85bd0160e11b149050611d61565b506001949350505050565b60608160000361296b5750506040805180820190915260018152600360fc1b602082015290565b8160005b8115612995578061297f81613376565b915061298e9050600a83613548565b915061296f565b60008167ffffffffffffffff8111156129b0576129b061307e565b6040519080825280601f01601f1916602001820160405280156129da576020820181803683370190505b5090505b8415611d61576129ef6001836133d7565b91506129fc600a8661355c565b612a079060306133ee565b60f81b818381518110612a1c57612a1c61334a565b60200101906001600160f81b031916908160001a905350612a3e600a86613548565b94506129de565b6001600160a01b038216612a9b5760405162461bcd60e51b815260206004820181905260248201527f4552433732313a206d696e7420746f20746865207a65726f20616464726573736044820152606401610874565b6000818152606760205260409020546001600160a01b031615612b005760405162461bcd60e51b815260206004820152601c60248201527f4552433732313a20746f6b656e20616c7265616479206d696e746564000000006044820152606401610874565b612b0c600083836124dd565b6001600160a01b0382166000908152606860205260408120805460019290612b359084906133ee565b9091555050600081815260676020526040808220805473ffffffffffffffffffffffffffffffffffffffff19166001600160a01b03861690811790915590518392907fddf252ad1be2c89b69c2b068fc378daa952ba7f163c4a11628f55a4df523b3ef908290a45050565b6001600160a01b038316612bfb57612bf681609980546000838152609a60205260408120829055600182018355919091527f72a152ddfb8e864297c917af52ea6c1c68aead0fee1a62673fcc7e0c94979d000155565b612c1e565b816001600160a01b0316836001600160a01b031614612c1e57612c1e8382612c91565b6001600160a01b038216612c355761091581612d2e565b826001600160a01b0316826001600160a01b031614610915576109158282612ddd565b60608315612c675750816123bd565b825115612c775782518084602001fd5b8160405162461bcd60e51b81526004016108749190612f45565b60006001612c9e846110bf565b612ca891906133d7565b600083815260986020526040902054909150808214612cfb576001600160a01b03841660009081526097602090815260408083208584528252808320548484528184208190558352609890915290208190555b5060009182526098602090815260408084208490556001600160a01b039094168352609781528383209183525290812055565b609954600090612d40906001906133d7565b6000838152609a602052604081205460998054939450909284908110612d6857612d6861334a565b906000526020600020015490508060998381548110612d8957612d8961334a565b6000918252602080832090910192909255828152609a90915260408082208490558582528120556099805480612dc157612dc1613570565b6001900381819060005260206000200160009055905550505050565b6000612de8836110bf565b6001600160a01b039093166000908152609760209081526040808320868452825280832085905593825260989052919091209190915550565b828054612e2d90613310565b90600052602060002090601f016020900481019282612e4f5760008555612e95565b82601f10612e6857805160ff1916838001178555612e95565b82800160010185558215612e95579182015b82811115612e95578251825591602001919060010190612e7a565b50612ea1929150612ea5565b5090565b5b80821115612ea15760008155600101612ea6565b6001600160e01b031981168114610c4857600080fd5b600060208284031215612ee257600080fd5b81356123bd81612eba565b60005b83811015612f08578181015183820152602001612ef0565b8381111561132e5750506000910152565b60008151808452612f31816020860160208601612eed565b601f01601f19169290920160200192915050565b6020815260006123bd6020830184612f19565b600060208284031215612f6a57600080fd5b5035919050565b80356001600160a01b0381168114612f8857600080fd5b919050565b60008060408385031215612fa057600080fd5b612fa983612f71565b946020939093013593505050565b600080600060608486031215612fcc57600080fd5b612fd584612f71565b9250612fe360208501612f71565b9150604084013590509250925092565b6000806040838503121561300657600080fd5b8235915061301660208401612f71565b90509250929050565b60006020828403121561303157600080fd5b6123bd82612f71565b6020808252825182820181905260009190848201906040850190845b8181101561307257835183529284019291840191600101613056565b50909695505050505050565b634e487b7160e01b600052604160045260246000fd5b600082601f8301126130a557600080fd5b813567ffffffffffffffff808211156130c0576130c061307e565b604051601f8301601f19908116603f011681019082821181831017156130e8576130e861307e565b8160405283815286602085880101111561310157600080fd5b836020870160208301376000602085830101528094505050505092915050565b6000806040838503121561313457600080fd5b61313d83612f71565b9150602083013567ffffffffffffffff81111561315957600080fd5b61316585828601613094565b9150509250929050565b60006020828403121561318157600080fd5b813567ffffffffffffffff81111561319857600080fd5b611d6184828501613094565b600080604083850312156131b757600080fd5b6131c083612f71565b9150602083013580151581146131d557600080fd5b809150509250929050565b6000806000606084860312156131f557600080fd5b833567ffffffffffffffff8082111561320d57600080fd5b61321987838801613094565b9450602086013591508082111561322f57600080fd5b5061323c86828701613094565b925050604084013590509250925092565b6000806000806080858703121561326357600080fd5b61326c85612f71565b935061327a60208601612f71565b925060408501359150606085013567ffffffffffffffff81111561329d57600080fd5b6132a987828801613094565b91505092959194509250565b600080604083850312156132c857600080fd5b82359150602083013567ffffffffffffffff81111561315957600080fd5b600080604083850312156132f957600080fd5b61330283612f71565b915061301660208401612f71565b600181811c9082168061332457607f821691505b60208210810361334457634e487b7160e01b600052602260045260246000fd5b50919050565b634e487b7160e01b600052603260045260246000fd5b634e487b7160e01b600052601160045260246000fd5b60006001820161338857613388613360565b5060010190565b600083516133a1818460208801612eed565b8351908301906133b5818360208801612eed565b01949350505050565b6000602082840312156133d057600080fd5b5051919050565b6000828210156133e9576133e9613360565b500390565b6000821982111561340157613401613360565b500190565b7f416363657373436f6e74726f6c3a206163636f756e742000000000000000000081526000835161343e816017850160208801612eed565b7f206973206d697373696e6720726f6c6520000000000000000000000000000000601791840191820152835161347b816028840160208801612eed565b01602801949350505050565b60008160001904831182151516156134a1576134a1613360565b500290565b6000816134b5576134b5613360565b506000190190565b600082516134cf818460208701612eed565b9190910192915050565b60006001600160a01b0380871683528086166020840152508360408301526080606083015261350b6080830184612f19565b9695505050505050565b60006020828403121561352757600080fd5b81516123bd81612eba565b634e487b7160e01b600052601260045260246000fd5b60008261355757613557613532565b500490565b60008261356b5761356b613532565b500690565b634e487b7160e01b600052603160045260246000fdfe416464726573733a206c6f772d6c6576656c2064656c65676174652063616c6c206661696c6564a264697066735822122001ff8c4d62596b917e62cafda306bb6c5a751868d341d26419156f61f4d6dcea64736f6c634300080d0033",
    "linkReferences": {}
  },
  "methodIdentifiers": {
    "DEFAULT_ADMIN_ROLE()": "a217fddf",
    "MINTER_ROLE()": "d5391393",
    "UPGRADER_ROLE()": "f72c0d8b",
    "allUserTokens(address)": "39618ae0",
    "approve(address,uint256)": "095ea7b3",
    "balanceOf(address)": "70a08231",
    "getApproved(uint256)": "081812fc",
    "getBlockTransferUntil()": "057df7bb",
    "getNFTSold()": "4973fd01",
    "getRoleAdmin(bytes32)": "248a9ca3",
    "grantRole(bytes32,address)": "2f2ff15d",
    "hasRole(bytes32,address)": "91d14854",
    "initialize(string,string,uint256)": "b119490e",
    "isApprovedForAll(address,address)": "e985e9c5",
    "name()": "06fdde03",
    "ownerOf(uint256)": "6352211e",
    "proxiableUUID()": "52d1902d",
    "renounceRole(bytes32,address)": "36568abe",
    "revokeRole(bytes32,address)": "d547741f",
    "safeMint(address,string)": "d204c45e",
    "safeTransferFrom(address,address,uint256)": "42842e0e",
    "safeTransferFrom(address,address,uint256,bytes)": "b88d4fde",
    "setApprovalForAll(address,bool)": "a22cb465",
    "setBlockTransferUntil(uint256)": "5c1e6fb6",
    "supportsInterface(bytes4)": "01ffc9a7",
    "symbol()": "95d89b41",
    "tokenByIndex(uint256)": "4f6ccce7",
    "tokenOfOwnerByIndex(address,uint256)": "2f745c59",
    "tokenURI(uint256)": "c87b56dd",
    "totalSupply()": "18160ddd",
    "transferFrom(address,address,uint256)": "23b872dd",
    "updateBaseURI(string)": "931688cb",
    "updateTokenUri(uint256,string)": "d31af484",
    "upgradeTo(address)": "3659cfe6",
    "upgradeToAndCall(address,bytes)": "4f1ef286"
  },
  "id": 3
}