{
  "abi": [
    {
      "inputs": [],
      "stateMutability": "nonpayable",
      "type": "constructor"
    },
    {
      "anonymous": false,
      "inputs": [
        {
          "indexed": true,
          "internalType": "address",
          "name": "owner",
          "type": "address"
        },
        {
          "indexed": true,
          "internalType": "address",
          "name": "spender",
          "type": "address"
        },
        {
          "indexed": false,
          "internalType": "uint256",
          "name": "value",
          "type": "uint256"
        }
      ],
      "name": "Approval",
      "type": "event"
    },
    {
      "anonymous": false,
      "inputs": [
        {
          "indexed": true,
          "internalType": "address",
          "name": "from",
          "type": "address"
        },
        {
          "indexed": true,
          "internalType": "address",
          "name": "to",
          "type": "address"
        },
        {
          "indexed": false,
          "internalType": "uint256",
          "name": "value",
          "type": "uint256"
        }
      ],
      "name": "Transfer",
      "type": "event"
    },
    {
      "inputs": [
        {
          "internalType": "address",
          "name": "owner",
          "type": "address"
        },
        {
          "internalType": "address",
          "name": "spender",
          "type": "address"
        }
      ],
      "name": "allowance",
      "outputs": [
        {
          "internalType": "uint256",
          "name": "",
          "type": "uint256"
        }
      ],
      "stateMutability": "view",
      "type": "function"
    },
    {
      "inputs": [
        {
          "internalType": "address",
          "name": "spender",
          "type": "address"
        },
        {
          "internalType": "uint256",
          "name": "amount",
          "type": "uint256"
        }
      ],
      "name": "approve",
      "outputs": [
        {
          "internalType": "bool",
          "name": "",
          "type": "bool"
        }
      ],
      "stateMutability": "nonpayable",
      "type": "function"
    },
    {
      "inputs": [
        {
          "internalType": "address",
          "name": "account",
          "type": "address"
        }
      ],
      "name": "balanceOf",
      "outputs": [
        {
          "internalType": "uint256",
          "name": "",
          "type": "uint256"
        }
      ],
      "stateMutability": "view",
      "type": "function"
    },
    {
      "inputs": [],
      "name": "decimals",
      "outputs": [
        {
          "internalType": "uint8",
          "name": "",
          "type": "uint8"
        }
      ],
      "stateMutability": "view",
      "type": "function"
    },
    {
      "inputs": [
        {
          "internalType": "address",
          "name": "spender",
          "type": "address"
        },
        {
          "internalType": "uint256",
          "name": "subtractedValue",
          "type": "uint256"
        }
      ],
      "name": "decreaseAllowance",
      "outputs": [
        {
          "internalType": "bool",
          "name": "",
          "type": "bool"
        }
      ],
      "stateMutability": "nonpayable",
      "type": "function"
    },
    {
      "inputs": [
        {
          "internalType": "address",
          "name": "_address",
          "type": "address"
        }
      ],
      "name": "getFreeBUSD",
      "outputs": [],
      "stateMutability": "nonpayable",
      "type": "function"
    },
    {
      "inputs": [
        {
          "internalType": "address",
          "name": "spender",
          "type": "address"
        },
        {
          "internalType": "uint256",
          "name": "addedValue",
          "type": "uint256"
        }
      ],
      "name": "increaseAllowance",
      "outputs": [
        {
          "internalType": "bool",
          "name": "",
          "type": "bool"
        }
      ],
      "stateMutability": "nonpayable",
      "type": "function"
    },
    {
      "inputs": [
        {
          "internalType": "address",
          "name": "",
          "type": "address"
        }
      ],
      "name": "isBusdClaimed",
      "outputs": [
        {
          "internalType": "bool",
          "name": "",
          "type": "bool"
        }
      ],
      "stateMutability": "view",
      "type": "function"
    },
    {
      "inputs": [],
      "name": "name",
      "outputs": [
        {
          "internalType": "string",
          "name": "",
          "type": "string"
        }
      ],
      "stateMutability": "view",
      "type": "function"
    },
    {
      "inputs": [],
      "name": "rewardWallet",
      "outputs": [
        {
          "internalType": "address",
          "name": "",
          "type": "address"
        }
      ],
      "stateMutability": "view",
      "type": "function"
    },
    {
      "inputs": [],
      "name": "symbol",
      "outputs": [
        {
          "internalType": "string",
          "name": "",
          "type": "string"
        }
      ],
      "stateMutability": "view",
      "type": "function"
    },
    {
      "inputs": [],
      "name": "totalSupply",
      "outputs": [
        {
          "internalType": "uint256",
          "name": "",
          "type": "uint256"
        }
      ],
      "stateMutability": "view",
      "type": "function"
    },
    {
      "inputs": [
        {
          "internalType": "address",
          "name": "to",
          "type": "address"
        },
        {
          "internalType": "uint256",
          "name": "amount",
          "type": "uint256"
        }
      ],
      "name": "transfer",
      "outputs": [
        {
          "internalType": "bool",
          "name": "",
          "type": "bool"
        }
      ],
      "stateMutability": "nonpayable",
      "type": "function"
    },
    {
      "inputs": [
        {
          "internalType": "address",
          "name": "from",
          "type": "address"
        },
        {
          "internalType": "address",
          "name": "to",
          "type": "address"
        },
        {
          "internalType": "uint256",
          "name": "amount",
          "type": "uint256"
        }
      ],
      "name": "transferFrom",
      "outputs": [
        {
          "internalType": "bool",
          "name": "",
          "type": "bool"
        }
      ],
      "stateMutability": "nonpayable",
      "type": "function"
    }
  ],
  "bytecode": {
    "object": "0x60806040523480156200001157600080fd5b50604080518082018252600881526719985ad9509d5cd960c21b60208083019182528351808501909452600584526411909554d160da1b9084015281519192916200005f91600391620001a7565b50805162000075906004906020840190620001a7565b50620000819150503390565b600780546001600160a01b0319166001600160a01b0392909216919091179055620000b9336b033b2e3c9fd0803ce8000000620000bf565b620002b0565b6001600160a01b0382166200011a5760405162461bcd60e51b815260206004820152601f60248201527f45524332303a206d696e7420746f20746865207a65726f206164647265737300604482015260640160405180910390fd5b80600260008282546200012e91906200024d565b90915550506001600160a01b038216600090815260208190526040812080548392906200015d9084906200024d565b90915550506040518181526001600160a01b038316906000907fddf252ad1be2c89b69c2b068fc378daa952ba7f163c4a11628f55a4df523b3ef9060200160405180910390a35050565b828054620001b59062000274565b90600052602060002090601f016020900481019282620001d9576000855562000224565b82601f10620001f457805160ff191683800117855562000224565b8280016001018555821562000224579182015b828111156200022457825182559160200191906001019062000207565b506200023292915062000236565b5090565b5b8082111562000232576000815560010162000237565b600082198211156200026f57634e487b7160e01b600052601160045260246000fd5b500190565b600181811c908216806200028957607f821691505b602082108103620002aa57634e487b7160e01b600052602260045260246000fd5b50919050565b610abe80620002c06000396000f3fe608060405234801561001057600080fd5b50600436106100ea5760003560e01c806395d89b411161008c578063d129afd211610066578063d129afd2146101d4578063dd62ed3e146101f7578063e9d9560214610230578063fb75b2c71461024557600080fd5b806395d89b41146101a6578063a457c2d7146101ae578063a9059cbb146101c157600080fd5b806323b872dd116100c857806323b872dd14610142578063313ce56714610155578063395093511461016a57806370a082311461017d57600080fd5b806306fdde03146100ef578063095ea7b31461010d57806318160ddd14610130575b600080fd5b6100f7610270565b60405161010491906108fc565b60405180910390f35b61012061011b36600461096d565b610302565b6040519015158152602001610104565b6002545b604051908152602001610104565b610120610150366004610997565b61031a565b60065460405160ff9091168152602001610104565b61012061017836600461096d565b61033e565b61013461018b3660046109d3565b6001600160a01b031660009081526020819052604090205490565b6100f761037d565b6101206101bc36600461096d565b61038c565b6101206101cf36600461096d565b61043b565b6101206101e23660046109d3565b60056020526000908152604090205460ff1681565b6101346102053660046109f5565b6001600160a01b03918216600090815260016020908152604080832093909416825291909152205490565b61024361023e3660046109d3565b610449565b005b600754610258906001600160a01b031681565b6040516001600160a01b039091168152602001610104565b60606003805461027f90610a28565b80601f01602080910402602001604051908101604052809291908181526020018280546102ab90610a28565b80156102f85780601f106102cd576101008083540402835291602001916102f8565b820191906000526020600020905b8154815290600101906020018083116102db57829003601f168201915b5050505050905090565b6000336103108185856104fb565b5060019392505050565b600033610328858285610653565b6103338585856106e5565b506001949350505050565b3360008181526001602090815260408083206001600160a01b03871684529091528120549091906103109082908690610378908790610a62565b6104fb565b60606004805461027f90610a28565b3360008181526001602090815260408083206001600160a01b03871684529091528120549091908381101561042e5760405162461bcd60e51b815260206004820152602560248201527f45524332303a2064656372656173656420616c6c6f77616e63652062656c6f7760448201527f207a65726f00000000000000000000000000000000000000000000000000000060648201526084015b60405180910390fd5b61033382868684036104fb565b6000336103108185856106e5565b6001600160a01b03811660009081526005602052604090205460ff16156104b25760405162461bcd60e51b815260206004820152600f60248201527f416c726561647920436c61696d656400000000000000000000000000000000006044820152606401610425565b600680556007546104d7906001600160a01b03168269017b7883c069166000006106e5565b6001600160a01b03166000908152600560205260409020805460ff19166001179055565b6001600160a01b0383166105765760405162461bcd60e51b8152602060048201526024808201527f45524332303a20617070726f76652066726f6d20746865207a65726f2061646460448201527f72657373000000000000000000000000000000000000000000000000000000006064820152608401610425565b6001600160a01b0382166105f25760405162461bcd60e51b815260206004820152602260248201527f45524332303a20617070726f766520746f20746865207a65726f20616464726560448201527f73730000000000000000000000000000000000000000000000000000000000006064820152608401610425565b6001600160a01b0383811660008181526001602090815260408083209487168084529482529182902085905590518481527f8c5be1e5ebec7d5bd14f71427d1e84f3dd0314c0f7b2291e5b200ac8c7c3b925910160405180910390a3505050565b6001600160a01b0383811660009081526001602090815260408083209386168352929052205460001981146106df57818110156106d25760405162461bcd60e51b815260206004820152601d60248201527f45524332303a20696e73756666696369656e7420616c6c6f77616e63650000006044820152606401610425565b6106df84848484036104fb565b50505050565b6001600160a01b0383166107615760405162461bcd60e51b815260206004820152602560248201527f45524332303a207472616e736665722066726f6d20746865207a65726f20616460448201527f64726573730000000000000000000000000000000000000000000000000000006064820152608401610425565b6001600160a01b0382166107dd5760405162461bcd60e51b815260206004820152602360248201527f45524332303a207472616e7366657220746f20746865207a65726f206164647260448201527f65737300000000000000000000000000000000000000000000000000000000006064820152608401610425565b6001600160a01b0383166000908152602081905260409020548181101561086c5760405162461bcd60e51b815260206004820152602660248201527f45524332303a207472616e7366657220616d6f756e742065786365656473206260448201527f616c616e636500000000000000000000000000000000000000000000000000006064820152608401610425565b6001600160a01b038085166000908152602081905260408082208585039055918516815290812080548492906108a3908490610a62565b92505081905550826001600160a01b0316846001600160a01b03167fddf252ad1be2c89b69c2b068fc378daa952ba7f163c4a11628f55a4df523b3ef846040516108ef91815260200190565b60405180910390a36106df565b600060208083528351808285015260005b818110156109295785810183015185820160400152820161090d565b8181111561093b576000604083870101525b50601f01601f1916929092016040019392505050565b80356001600160a01b038116811461096857600080fd5b919050565b6000806040838503121561098057600080fd5b61098983610951565b946020939093013593505050565b6000806000606084860312156109ac57600080fd5b6109b584610951565b92506109c360208501610951565b9150604084013590509250925092565b6000602082840312156109e557600080fd5b6109ee82610951565b9392505050565b60008060408385031215610a0857600080fd5b610a1183610951565b9150610a1f60208401610951565b90509250929050565b600181811c90821680610a3c57607f821691505b602082108103610a5c57634e487b7160e01b600052602260045260246000fd5b50919050565b60008219821115610a8357634e487b7160e01b600052601160045260246000fd5b50019056fea2646970667358221220131336c6dfae5a30e2a65476c3f027323b0c236d1c4d4534defc9ab9eac4ac3164736f6c634300080d0033",
    "linkReferences": {}
  },
  "methodIdentifiers": {
    "allowance(address,address)": "dd62ed3e",
    "approve(address,uint256)": "095ea7b3",
    "balanceOf(address)": "70a08231",
    "decimals()": "313ce567",
    "decreaseAllowance(address,uint256)": "a457c2d7",
    "getFreeBUSD(address)": "e9d95602",
    "increaseAllowance(address,uint256)": "39509351",
    "isBusdClaimed(address)": "d129afd2",
    "name()": "06fdde03",
    "rewardWallet()": "fb75b2c7",
    "symbol()": "95d89b41",
    "totalSupply()": "18160ddd",
    "transfer(address,uint256)": "a9059cbb",
    "transferFrom(address,address,uint256)": "23b872dd"
  },
  "id": 5
}