{
  "abi": [
    {
      "inputs": [
        {
          "internalType": "uint256",
          "name": "chainId",
          "type": "uint256"
        },
        {
          "internalType": "address",
          "name": "tokenAddress",
          "type": "address"
        },
        {
          "internalType": "address",
          "name": "collectorAddress",
          "type": "address"
        },
        {
          "internalType": "uint256[]",
          "name": "contractTypes",
          "type": "uint256[]"
        },
        {
          "internalType": "uint256[]",
          "name": "prices",
          "type": "uint256[]"
        }
      ],
      "stateMutability": "nonpayable",
      "type": "constructor"
    },
    {
      "anonymous": false,
      "inputs": [
        {
          "indexed": true,
          "internalType": "address",
          "name": "previousOwner",
          "type": "address"
        },
        {
          "indexed": true,
          "internalType": "address",
          "name": "newOwner",
          "type": "address"
        }
      ],
      "name": "OwnershipTransferred",
      "type": "event"
    },
    {
      "inputs": [
        {
          "internalType": "bytes",
          "name": "bytecode",
          "type": "bytes"
        },
        {
          "internalType": "bytes",
          "name": "constructorArgs",
          "type": "bytes"
        },
        {
          "internalType": "address",
          "name": "deployer",
          "type": "address"
        },
        {
          "internalType": "string",
          "name": "contractName",
          "type": "string"
        },
        {
          "internalType": "uint8",
          "name": "contractType",
          "type": "uint8"
        },
        {
          "internalType": "uint256",
          "name": "amount",
          "type": "uint256"
        },
        {
          "internalType": "bool",
          "name": "mintable",
          "type": "bool"
        },
        {
          "internalType": "bool",
          "name": "burnable",
          "type": "bool"
        },
        {
          "internalType": "bool",
          "name": "capped",
          "type": "bool"
        },
        {
          "internalType": "bool",
          "name": "role",
          "type": "bool"
        },
        {
          "internalType": "bool",
          "name": "baseURI",
          "type": "bool"
        }
      ],
      "name": "deploy",
      "outputs": [
        {
          "internalType": "address",
          "name": "addr",
          "type": "address"
        }
      ],
      "stateMutability": "nonpayable",
      "type": "function"
    },
    {
      "inputs": [],
      "name": "getChainId",
      "outputs": [
        {
          "internalType": "uint256",
          "name": "",
          "type": "uint256"
        }
      ],
      "stateMutability": "view",
      "type": "function"
    },
    {
      "inputs": [],
      "name": "getCollectorAddress",
      "outputs": [
        {
          "internalType": "address",
          "name": "",
          "type": "address"
        }
      ],
      "stateMutability": "view",
      "type": "function"
    },
    {
      "inputs": [
        {
          "internalType": "address",
          "name": "user",
          "type": "address"
        },
        {
          "internalType": "uint256",
          "name": "index",
          "type": "uint256"
        },
        {
          "internalType": "uint8",
          "name": "contractType",
          "type": "uint8"
        },
        {
          "internalType": "bool[4]",
          "name": "conditions",
          "type": "bool[4]"
        }
      ],
      "name": "getContractByUserAndIndex",
      "outputs": [
        {
          "components": [
            {
              "internalType": "address",
              "name": "deployer",
              "type": "address"
            },
            {
              "internalType": "address",
              "name": "contractAddress",
              "type": "address"
            },
            {
              "internalType": "uint256",
              "name": "chainId",
              "type": "uint256"
            },
            {
              "internalType": "uint256",
              "name": "contractIndex",
              "type": "uint256"
            },
            {
              "internalType": "string",
              "name": "contractType",
              "type": "string"
            },
            {
              "internalType": "bool",
              "name": "mintable",
              "type": "bool"
            },
            {
              "internalType": "bool",
              "name": "burnable",
              "type": "bool"
            },
            {
              "internalType": "bool",
              "name": "capped",
              "type": "bool"
            },
            {
              "internalType": "bool",
              "name": "role",
              "type": "bool"
            },
            {
              "internalType": "bool",
              "name": "baseURI",
              "type": "bool"
            }
          ],
          "internalType": "struct CepheusDeployer.ContractData",
          "name": "",
          "type": "tuple"
        },
        {
          "internalType": "string",
          "name": "",
          "type": "string"
        },
        {
          "internalType": "string",
          "name": "",
          "type": "string"
        },
        {
          "internalType": "uint8",
          "name": "",
          "type": "uint8"
        },
        {
          "internalType": "uint256",
          "name": "",
          "type": "uint256"
        },
        {
          "internalType": "uint256[]",
          "name": "",
          "type": "uint256[]"
        }
      ],
      "stateMutability": "view",
      "type": "function"
    },
    {
      "inputs": [
        {
          "internalType": "uint256",
          "name": "howManyTokensPrice",
          "type": "uint256"
        }
      ],
      "name": "getDeploymentPrice",
      "outputs": [
        {
          "internalType": "uint256[]",
          "name": "",
          "type": "uint256[]"
        }
      ],
      "stateMutability": "view",
      "type": "function"
    },
    {
      "inputs": [
        {
          "internalType": "address",
          "name": "user",
          "type": "address"
        },
        {
          "internalType": "uint256",
          "name": "index",
          "type": "uint256"
        },
        {
          "internalType": "uint8",
          "name": "contractType",
          "type": "uint8"
        }
      ],
      "name": "getNFTContractByUserAndIndex",
      "outputs": [
        {
          "components": [
            {
              "internalType": "address",
              "name": "deployer",
              "type": "address"
            },
            {
              "internalType": "address",
              "name": "contractAddress",
              "type": "address"
            },
            {
              "internalType": "uint256",
              "name": "chainId",
              "type": "uint256"
            },
            {
              "internalType": "uint256",
              "name": "contractIndex",
              "type": "uint256"
            },
            {
              "internalType": "string",
              "name": "contractType",
              "type": "string"
            },
            {
              "internalType": "bool",
              "name": "mintable",
              "type": "bool"
            },
            {
              "internalType": "bool",
              "name": "burnable",
              "type": "bool"
            },
            {
              "internalType": "bool",
              "name": "capped",
              "type": "bool"
            },
            {
              "internalType": "bool",
              "name": "role",
              "type": "bool"
            },
            {
              "internalType": "bool",
              "name": "baseURI",
              "type": "bool"
            }
          ],
          "internalType": "struct CepheusDeployer.ContractData",
          "name": "",
          "type": "tuple"
        },
        {
          "internalType": "string",
          "name": "",
          "type": "string"
        },
        {
          "internalType": "string",
          "name": "",
          "type": "string"
        },
        {
          "internalType": "uint256",
          "name": "",
          "type": "uint256"
        }
      ],
      "stateMutability": "view",
      "type": "function"
    },
    {
      "inputs": [],
      "name": "getTokenAddress",
      "outputs": [
        {
          "internalType": "address",
          "name": "",
          "type": "address"
        }
      ],
      "stateMutability": "view",
      "type": "function"
    },
    {
      "inputs": [
        {
          "internalType": "address",
          "name": "deployer",
          "type": "address"
        }
      ],
      "name": "getUserContracts",
      "outputs": [
        {
          "components": [
            {
              "internalType": "address",
              "name": "deployer",
              "type": "address"
            },
            {
              "internalType": "address",
              "name": "contractAddress",
              "type": "address"
            },
            {
              "internalType": "uint256",
              "name": "chainId",
              "type": "uint256"
            },
            {
              "internalType": "uint256",
              "name": "contractIndex",
              "type": "uint256"
            },
            {
              "internalType": "string",
              "name": "contractType",
              "type": "string"
            },
            {
              "internalType": "bool",
              "name": "mintable",
              "type": "bool"
            },
            {
              "internalType": "bool",
              "name": "burnable",
              "type": "bool"
            },
            {
              "internalType": "bool",
              "name": "capped",
              "type": "bool"
            },
            {
              "internalType": "bool",
              "name": "role",
              "type": "bool"
            },
            {
              "internalType": "bool",
              "name": "baseURI",
              "type": "bool"
            }
          ],
          "internalType": "struct CepheusDeployer.ContractData[]",
          "name": "",
          "type": "tuple[]"
        },
        {
          "components": [
            {
              "internalType": "address",
              "name": "deployer",
              "type": "address"
            },
            {
              "internalType": "address",
              "name": "contractAddress",
              "type": "address"
            },
            {
              "internalType": "uint256",
              "name": "chainId",
              "type": "uint256"
            },
            {
              "internalType": "uint256",
              "name": "contractIndex",
              "type": "uint256"
            },
            {
              "internalType": "string",
              "name": "contractType",
              "type": "string"
            },
            {
              "internalType": "bool",
              "name": "mintable",
              "type": "bool"
            },
            {
              "internalType": "bool",
              "name": "burnable",
              "type": "bool"
            },
            {
              "internalType": "bool",
              "name": "capped",
              "type": "bool"
            },
            {
              "internalType": "bool",
              "name": "role",
              "type": "bool"
            },
            {
              "internalType": "bool",
              "name": "baseURI",
              "type": "bool"
            }
          ],
          "internalType": "struct CepheusDeployer.ContractData[]",
          "name": "",
          "type": "tuple[]"
        },
        {
          "components": [
            {
              "internalType": "address",
              "name": "deployer",
              "type": "address"
            },
            {
              "internalType": "address",
              "name": "contractAddress",
              "type": "address"
            },
            {
              "internalType": "uint256",
              "name": "chainId",
              "type": "uint256"
            },
            {
              "internalType": "uint256",
              "name": "contractIndex",
              "type": "uint256"
            },
            {
              "internalType": "string",
              "name": "contractType",
              "type": "string"
            },
            {
              "internalType": "bool",
              "name": "mintable",
              "type": "bool"
            },
            {
              "internalType": "bool",
              "name": "burnable",
              "type": "bool"
            },
            {
              "internalType": "bool",
              "name": "capped",
              "type": "bool"
            },
            {
              "internalType": "bool",
              "name": "role",
              "type": "bool"
            },
            {
              "internalType": "bool",
              "name": "baseURI",
              "type": "bool"
            }
          ],
          "internalType": "struct CepheusDeployer.ContractData[]",
          "name": "",
          "type": "tuple[]"
        },
        {
          "components": [
            {
              "internalType": "address",
              "name": "deployer",
              "type": "address"
            },
            {
              "internalType": "address",
              "name": "contractAddress",
              "type": "address"
            },
            {
              "internalType": "uint256",
              "name": "chainId",
              "type": "uint256"
            },
            {
              "internalType": "uint256",
              "name": "contractIndex",
              "type": "uint256"
            },
            {
              "internalType": "string",
              "name": "contractType",
              "type": "string"
            },
            {
              "internalType": "bool",
              "name": "mintable",
              "type": "bool"
            },
            {
              "internalType": "bool",
              "name": "burnable",
              "type": "bool"
            },
            {
              "internalType": "bool",
              "name": "capped",
              "type": "bool"
            },
            {
              "internalType": "bool",
              "name": "role",
              "type": "bool"
            },
            {
              "internalType": "bool",
              "name": "baseURI",
              "type": "bool"
            }
          ],
          "internalType": "struct CepheusDeployer.ContractData[]",
          "name": "",
          "type": "tuple[]"
        },
        {
          "components": [
            {
              "internalType": "address",
              "name": "deployer",
              "type": "address"
            },
            {
              "internalType": "address",
              "name": "contractAddress",
              "type": "address"
            },
            {
              "internalType": "uint256",
              "name": "chainId",
              "type": "uint256"
            },
            {
              "internalType": "uint256",
              "name": "contractIndex",
              "type": "uint256"
            },
            {
              "internalType": "string",
              "name": "contractType",
              "type": "string"
            },
            {
              "internalType": "bool",
              "name": "mintable",
              "type": "bool"
            },
            {
              "internalType": "bool",
              "name": "burnable",
              "type": "bool"
            },
            {
              "internalType": "bool",
              "name": "capped",
              "type": "bool"
            },
            {
              "internalType": "bool",
              "name": "role",
              "type": "bool"
            },
            {
              "internalType": "bool",
              "name": "baseURI",
              "type": "bool"
            }
          ],
          "internalType": "struct CepheusDeployer.ContractData[]",
          "name": "",
          "type": "tuple[]"
        },
        {
          "components": [
            {
              "internalType": "address",
              "name": "deployer",
              "type": "address"
            },
            {
              "internalType": "address",
              "name": "contractAddress",
              "type": "address"
            },
            {
              "internalType": "uint256",
              "name": "chainId",
              "type": "uint256"
            },
            {
              "internalType": "uint256",
              "name": "contractIndex",
              "type": "uint256"
            },
            {
              "internalType": "string",
              "name": "contractType",
              "type": "string"
            },
            {
              "internalType": "bool",
              "name": "mintable",
              "type": "bool"
            },
            {
              "internalType": "bool",
              "name": "burnable",
              "type": "bool"
            },
            {
              "internalType": "bool",
              "name": "capped",
              "type": "bool"
            },
            {
              "internalType": "bool",
              "name": "role",
              "type": "bool"
            },
            {
              "internalType": "bool",
              "name": "baseURI",
              "type": "bool"
            }
          ],
          "internalType": "struct CepheusDeployer.ContractData[]",
          "name": "",
          "type": "tuple[]"
        }
      ],
      "stateMutability": "view",
      "type": "function"
    },
    {
      "inputs": [],
      "name": "owner",
      "outputs": [
        {
          "internalType": "address",
          "name": "",
          "type": "address"
        }
      ],
      "stateMutability": "view",
      "type": "function"
    },
    {
      "inputs": [],
      "name": "renounceOwnership",
      "outputs": [],
      "stateMutability": "nonpayable",
      "type": "function"
    },
    {
      "inputs": [
        {
          "internalType": "uint256",
          "name": "chainId",
          "type": "uint256"
        }
      ],
      "name": "setChainId",
      "outputs": [],
      "stateMutability": "nonpayable",
      "type": "function"
    },
    {
      "inputs": [
        {
          "internalType": "address",
          "name": "collectorAddress",
          "type": "address"
        }
      ],
      "name": "setCollectorAddress",
      "outputs": [],
      "stateMutability": "nonpayable",
      "type": "function"
    },
    {
      "inputs": [
        {
          "internalType": "address",
          "name": "deployer",
          "type": "address"
        },
        {
          "internalType": "address",
          "name": "contractAddress",
          "type": "address"
        },
        {
          "internalType": "string",
          "name": "contractName",
          "type": "string"
        },
        {
          "internalType": "uint8",
          "name": "contractType",
          "type": "uint8"
        },
        {
          "internalType": "bool",
          "name": "mintable",
          "type": "bool"
        },
        {
          "internalType": "bool",
          "name": "burnable",
          "type": "bool"
        },
        {
          "internalType": "bool",
          "name": "capped",
          "type": "bool"
        },
        {
          "internalType": "bool",
          "name": "role",
          "type": "bool"
        },
        {
          "internalType": "bool",
          "name": "baseURI",
          "type": "bool"
        }
      ],
      "name": "setNewContractOfDeployer",
      "outputs": [],
      "stateMutability": "nonpayable",
      "type": "function"
    },
    {
      "inputs": [
        {
          "internalType": "uint256",
          "name": "contractType",
          "type": "uint256"
        },
        {
          "internalType": "uint256",
          "name": "price",
          "type": "uint256"
        }
      ],
      "name": "setPriceOfContractType",
      "outputs": [],
      "stateMutability": "nonpayable",
      "type": "function"
    },
    {
      "inputs": [
        {
          "internalType": "address",
          "name": "tokenAddress",
          "type": "address"
        }
      ],
      "name": "setTokenAddress",
      "outputs": [],
      "stateMutability": "nonpayable",
      "type": "function"
    },
    {
      "inputs": [
        {
          "internalType": "uint8",
          "name": "contractType",
          "type": "uint8"
        },
        {
          "internalType": "address",
          "name": "contractAddress",
          "type": "address"
        },
        {
          "internalType": "address",
          "name": "deployer",
          "type": "address"
        },
        {
          "internalType": "address",
          "name": "newDeployer",
          "type": "address"
        },
        {
          "internalType": "uint256",
          "name": "index",
          "type": "uint256"
        }
      ],
      "name": "transferOwnership",
      "outputs": [],
      "stateMutability": "nonpayable",
      "type": "function"
    },
    {
      "inputs": [
        {
          "internalType": "address",
          "name": "newOwner",
          "type": "address"
        }
      ],
      "name": "transferOwnership",
      "outputs": [],
      "stateMutability": "nonpayable",
      "type": "function"
    }
  ],
  "bytecode": {
    "object": "0x60806040523480156200001157600080fd5b50604051620026583803806200265883398101604081905262000034916200022a565b6200003f3362000103565b6001859055600680546001600160a01b038087166001600160a01b03199283161790925560058054928616929091169190911790558151815181146200008457600080fd5b60005b81811015620000f657828181518110620000a557620000a5620002c4565b602002602001015160046000868481518110620000c657620000c6620002c4565b60200260200101518152602001908152602001600020819055508080620000ed90620002da565b91505062000087565b5050505050505062000302565b600080546001600160a01b038381166001600160a01b0319831681178455604051919092169283917f8be0079c531659141344cd1fd0a4f28419497f9722a3daafe3b4186f6b6457e09190a35050565b80516001600160a01b03811681146200016b57600080fd5b919050565b634e487b7160e01b600052604160045260246000fd5b600082601f8301126200019857600080fd5b815160206001600160401b0380831115620001b757620001b762000170565b8260051b604051601f19603f83011681018181108482111715620001df57620001df62000170565b604052938452858101830193838101925087851115620001fe57600080fd5b83870191505b848210156200021f5781518352918301919083019062000204565b979650505050505050565b600080600080600060a086880312156200024357600080fd5b85519450620002556020870162000153565b9350620002656040870162000153565b60608701519093506001600160401b03808211156200028357600080fd5b6200029189838a0162000186565b93506080880151915080821115620002a857600080fd5b50620002b78882890162000186565b9150509295509295909350565b634e487b7160e01b600052603260045260246000fd5b600060018201620002fb57634e487b7160e01b600052601160045260246000fd5b5060010190565b61234680620003126000396000f3fe608060405234801561001057600080fd5b506004361061011b5760003560e01c806339843b2b116100b2578063b320e79011610081578063c7a6b3c011610066578063c7a6b3c014610263578063ef0e2ff414610286578063f2fde38b1461029957600080fd5b8063b320e7901461023d578063c344a90c1461025057600080fd5b806339843b2b146101df578063715018a6146101ff57806373ec8f14146102075780638da5cb5b1461022c57600080fd5b80632c4df734116100ee5780632c4df734146101835780632da25223146101965780633408e470146101a957806334c925f0146101ba57600080fd5b80630f82c0521461012057806310fe9ae81461013557806326a4e8d21461015f5780632848eeb814610172575b600080fd5b61013361012e366004611a00565b6102ac565b005b6006546001600160a01b03165b6040516001600160a01b0390911681526020015b60405180910390f35b61013361016d366004611a3e565b6102c6565b6005546001600160a01b0316610142565b610133610191366004611a3e565b6102f0565b6101336101a4366004611b58565b61031a565b600154604051908152602001610156565b6101cd6101c8366004611a3e565b61033e565b60405161015696959493929190611d93565b6101f26101ed366004611e15565b61039d565b6040516101569190611e69565b61013361043f565b61021a610215366004611e7c565b610453565b60405161015696959493929190611f31565b6000546001600160a01b0316610142565b61014261024b366004611f8d565b610a1b565b61013361025e366004612098565b610b77565b6102766102713660046120f6565b610fcc565b6040516101569493929190612136565b610133610294366004611e15565b6112d4565b6101336102a7366004611a3e565b6112e1565b6102b4611371565b60009182526004602052604090912055565b6102ce611371565b600680546001600160a01b0319166001600160a01b0392909216919091179055565b6102f8611371565b600580546001600160a01b0319166001600160a01b0392909216919091179055565b610322611371565b6103338988888b89898989896113cb565b505050505050505050565b60608060608060608061035260018861160f565b61035d60028961160f565b61036860038a61160f565b61037360048b61160f565b61037e60058c61160f565b61038960068d61160f565b949c939b5091995097509550909350915050565b606060008267ffffffffffffffff8111156103ba576103ba611a60565b6040519080825280602002602001820160405280156103e3578160200160208202803683370190505b50905060015b838111610438576000818152600460205260409020548261040b600184612197565b8151811061041b5761041b6121ae565b602090810291909101015280610430816121c4565b9150506103e9565b5092915050565b610447611371565b6104516000611862565b565b60408051610140810182526000808252602082018190529181018290526060808201839052608082015260a0810182905260c0810182905260e081018290526101008101829052610120810191909152606080600080828160036040519080825280602002602001820160405280156104d6578160200160208202803683370190505b5090506000600360008b60ff16815260200190815260200160002060008d6001600160a01b03166001600160a01b0316815260200190815260200160002060008c815260200190815260200160002060010160009054906101000a90046001600160a01b03169050600081905089600060048110610556576105566121ae565b6020020151156105e257806001600160a01b031663355274ea6040518163ffffffff1660e01b8152600401602060405180830381865afa15801561059e573d6000803e3d6000fd5b505050506040513d601f19601f820116820180604052508101906105c291906121dd565b836000815181106105d5576105d56121ae565b6020026020010181815250505b60408a01511561066e57806001600160a01b0316631a5f351c6040518163ffffffff1660e01b8152600401602060405180830381865afa15801561062a573d6000803e3d6000fd5b505050506040513d601f19601f8201168201806040525081019061064e91906121dd565b83600181518110610661576106616121ae565b6020026020010181815250505b60608a0151156106fa57806001600160a01b031663d4edf2c76040518163ffffffff1660e01b8152600401602060405180830381865afa1580156106b6573d6000803e3d6000fd5b505050506040513d601f19601f820116820180604052508101906106da91906121dd565b836002815181106106ed576106ed6121ae565b6020026020010181815250505b600360008c60ff16815260200190815260200160002060008e6001600160a01b03166001600160a01b0316815260200190815260200160002060008d8152602001908152602001600020816001600160a01b03166306fdde036040518163ffffffff1660e01b8152600401600060405180830381865afa158015610782573d6000803e3d6000fd5b505050506040513d6000823e601f3d908101601f191682016040526107aa91908101906121f6565b826001600160a01b03166395d89b416040518163ffffffff1660e01b8152600401600060405180830381865afa1580156107e8573d6000803e3d6000fd5b505050506040513d6000823e601f3d908101601f1916820160405261081091908101906121f6565b836001600160a01b031663313ce5676040518163ffffffff1660e01b8152600401602060405180830381865afa15801561084e573d6000803e3d6000fd5b505050506040513d601f19601f82011682018060405250810190610872919061226d565b846001600160a01b03166318160ddd6040518163ffffffff1660e01b8152600401602060405180830381865afa1580156108b0573d6000803e3d6000fd5b505050506040513d601f19601f820116820180604052508101906108d491906121dd565b604080516101408101825286546001600160a01b0390811682526001880154166020820152600287015491810191909152600386015460608201526004860180548a929188916080840191906109299061228a565b80601f01602080910402602001604051908101604052809291908181526020018280546109559061228a565b80156109a25780601f10610977576101008083540402835291602001916109a2565b820191906000526020600020905b81548152906001019060200180831161098557829003601f168201915b50505091835250506005919091015460ff8082161515602084015261010082048116151560408401526201000082048116151560608401526301000000820481161515608084015264010000000090910416151560a0909101529e50939c50919a50985096509450505050509499939850945094509450565b60ff87166000908152600460205260408120548714610a815760405162461bcd60e51b815260206004820152600d60248201527f496e76616c69642070726963650000000000000000000000000000000000000060448201526064015b60405180910390fd5b6006546005546040517f23b872dd0000000000000000000000000000000000000000000000000000000081523360048201526001600160a01b039182166024820152604481018a90529116906323b872dd906064016020604051808303816000875af1158015610af5573d6000803e3d6000fd5b505050506040513d601f19601f82011682018060405250810190610b1991906122c4565b5060008c8c604051602001610b2f9291906122e1565b60405160208183030381529060405290508051602082016000f09150813b610b5657600080fd5b610b678b8b8b858b8b8b8b8b6113cb565b509b9a5050505050505050505050565b336001600160a01b03841614610bcf5760405162461bcd60e51b815260206004820152601560248201527f4e6f74206f776e6572206f6620636f6e747261637400000000000000000000006044820152606401610a78565b60ff851660009081526003602090815260408083206001600160a01b03878116855290835281842085855290925290912060010154811690851614610c565760405162461bcd60e51b815260206004820152601960248201527f496e76616c696420436f6e747261637420746f20696e646578000000000000006044820152606401610a78565b60ff851660009081526003602081815260408084206001600160a01b038881168652818452828620878752845282862088821687529184528286208787529093529320835481549083166001600160a01b03199182161782556001808601549083018054919094169116179091556002808401549082015582820154918101919091556004808301805491830191610ced9061228a565b610cf89291906118b2565b506005918201805491909201805460ff928316151560ff19821681178355845461010090819004851615150261ff001990911661ffff19909216919091171780825583546201000090819004841615150262ff0000198216811783558454630100000090819004851615150263ff0000001990911663ffff0000199092169190911717808255925464010000000090819004831615150264ff000000001990931692909217909155851660009081526002602090815260408083206001600160a01b03861684529091528120805491610dd0836121c4565b909155505060ff851660009081526002602090815260408083206001600160a01b0387168452909152812054610e0890600190612197565b9050808214610f505760ff861660009081526003602081815260408084206001600160a01b0389811686529083528185208686529092528084208685529320835481549083166001600160a01b03199182161782556001808601549083018054919094169116179091556002808401549082015582820154918101919091556004808301805491830191610e9b9061228a565b610ea69291906118b2565b506005918201805491909201805460ff19811660ff93841615159081178355845461ffff1990921661ff001990911617610100918290048416151590910217808255835462ff00001982166201000091829004851615159091029081178355845463ffff00001990921663ff00000019909116176301000000918290048416151590910217808255925464ff00000000199093166401000000009384900490921615159092021790555b60ff861660009081526003602081815260408084206001600160a01b03891685528252808420858552909152822080546001600160a01b0319908116825560018201805490911690556002810183905590810182905590610fb4600483018261193d565b50600501805464ffffffffff19169055505050505050565b60408051610140810182526000808252602080830182905282840182905260608084018390526080840181905260a0840183905260c0840183905260e084018390526101008401839052610120840183905260ff86168352600382528483206001600160a01b038981168552908352858420888552909252848320600181015486517f06fdde03000000000000000000000000000000000000000000000000000000008152965195969295869594919091169283929183916306fdde0391600480830192899291908290030181865afa1580156110ad573d6000803e3d6000fd5b505050506040513d6000823e601f3d908101601f191682016040526110d591908101906121f6565b826001600160a01b03166395d89b416040518163ffffffff1660e01b8152600401600060405180830381865afa158015611113573d6000803e3d6000fd5b505050506040513d6000823e601f3d908101601f1916820160405261113b91908101906121f6565b836001600160a01b03166318160ddd6040518163ffffffff1660e01b8152600401602060405180830381865afa158015611179573d6000803e3d6000fd5b505050506040513d601f19601f8201168201806040525081019061119d91906121dd565b604080516101408101825285546001600160a01b039081168252600187015416602082015260028601549181019190915260038501546060820152600485018054869160808401916111ee9061228a565b80601f016020809104026020016040519081016040528092919081815260200182805461121a9061228a565b80156112675780601f1061123c57610100808354040283529160200191611267565b820191906000526020600020905b81548152906001019060200180831161124a57829003601f168201915b50505091835250506005919091015460ff8082161515602084015261010082048116151560408401526201000082048116151560608401526301000000820481161515608084015264010000000090910416151560a0909101529d929c50909a5098509650505050505050565b6112dc611371565b600155565b6112e9611371565b6001600160a01b0381166113655760405162461bcd60e51b815260206004820152602660248201527f4f776e61626c653a206e6577206f776e657220697320746865207a65726f206160448201527f64647265737300000000000000000000000000000000000000000000000000006064820152608401610a78565b61136e81611862565b50565b6000546001600160a01b031633146104515760405162461bcd60e51b815260206004820181905260248201527f4f776e61626c653a2063616c6c6572206973206e6f7420746865206f776e65726044820152606401610a78565b6000600260008960ff16815260200190815260200160002060008b6001600160a01b03166001600160a01b0316815260200190815260200160002054905060006040518061014001604052808c6001600160a01b03168152602001896001600160a01b0316815260200160015481526020018381526020018b81526020018815158152602001871515815260200186151581526020018515158152602001841515815250905080600360008b60ff16815260200190815260200160002060008d6001600160a01b03166001600160a01b03168152602001908152602001600020600084815260200190815260200160002060008201518160000160006101000a8154816001600160a01b0302191690836001600160a01b0316021790555060208201518160010160006101000a8154816001600160a01b0302191690836001600160a01b0316021790555060408201518160020155606082015181600301556080820151816004019080519060200190611546929190611977565b5060a0820151600591909101805460c084015160e0850151610100808701516101209097015161ffff1990941695151561ff001916959095179115159094021763ffff00001916620100009315159390930263ff0000001916929092176301000000931515939093029290921764ff0000000019166401000000009115159190910217905560ff891660009081526002602090815260408083206001600160a01b038f16845290915281208054916115fd836121c4565b91905055505050505050505050505050565b60ff821660009081526002602090815260408083206001600160a01b03851684529091528120546060918167ffffffffffffffff81111561165257611652611a60565b6040519080825280602002602001820160405280156116d057816020015b6040805161014081018252600080825260208083018290529282018190526060808301829052608083015260a0820181905260c0820181905260e08201819052610100820181905261012082015282526000199092019101816116705790505b50905060005b828110156118595760ff861660009081526003602081815260408084206001600160a01b03808b1686529083528185208686528352938190208151610140810183528154861681526001820154909516928501929092526002820154908401529081015460608301526004810180546080840191906117549061228a565b80601f01602080910402602001604051908101604052809291908181526020018280546117809061228a565b80156117cd5780601f106117a2576101008083540402835291602001916117cd565b820191906000526020600020905b8154815290600101906020018083116117b057829003601f168201915b50505091835250506005919091015460ff8082161515602084015261010082048116151560408401526201000082048116151560608401526301000000820481161515608084015264010000000090910416151560a090910152825183908390811061183b5761183b6121ae565b60200260200101819052508080611851906121c4565b9150506116d6565b50949350505050565b600080546001600160a01b038381166001600160a01b0319831681178455604051919092169283917f8be0079c531659141344cd1fd0a4f28419497f9722a3daafe3b4186f6b6457e09190a35050565b8280546118be9061228a565b90600052602060002090601f0160209004810192826118e0576000855561192d565b82601f106118f1578054855561192d565b8280016001018555821561192d57600052602060002091601f016020900482015b8281111561192d578254825591600101919060010190611912565b506119399291506119eb565b5090565b5080546119499061228a565b6000825580601f10611959575050565b601f01602090049060005260206000209081019061136e91906119eb565b8280546119839061228a565b90600052602060002090601f0160209004810192826119a5576000855561192d565b82601f106119be57805160ff191683800117855561192d565b8280016001018555821561192d579182015b8281111561192d5782518255916020019190600101906119d0565b5b8082111561193957600081556001016119ec565b60008060408385031215611a1357600080fd5b50508035926020909101359150565b80356001600160a01b0381168114611a3957600080fd5b919050565b600060208284031215611a5057600080fd5b611a5982611a22565b9392505050565b634e487b7160e01b600052604160045260246000fd5b604051601f8201601f1916810167ffffffffffffffff81118282101715611a9f57611a9f611a60565b604052919050565b600067ffffffffffffffff821115611ac157611ac1611a60565b50601f01601f191660200190565b600082601f830112611ae057600080fd5b8135611af3611aee82611aa7565b611a76565b818152846020838601011115611b0857600080fd5b816020850160208301376000918101602001919091529392505050565b60ff8116811461136e57600080fd5b8035611a3981611b25565b801515811461136e57600080fd5b8035611a3981611b3f565b60008060008060008060008060006101208a8c031215611b7757600080fd5b611b808a611a22565b9850611b8e60208b01611a22565b975060408a013567ffffffffffffffff811115611baa57600080fd5b611bb68c828d01611acf565b97505060608a0135611bc781611b25565b955060808a0135611bd781611b3f565b945060a08a0135611be781611b3f565b935060c08a0135611bf781611b3f565b925060e08a0135611c0781611b3f565b91506101008a0135611c1881611b3f565b809150509295985092959850929598565b60005b83811015611c44578181015183820152602001611c2c565b83811115611c53576000848401525b50505050565b60008151808452611c71816020860160208601611c29565b601f01601f19169290920160200192915050565b80516001600160a01b0316825260006101406020830151611cb160208601826001600160a01b03169052565b5060408301516040850152606083015160608501526080830151816080860152611cdd82860182611c59565b91505060a0830151611cf360a086018215159052565b5060c0830151611d0760c086018215159052565b5060e0830151611d1b60e086018215159052565b506101008381015115159085015261012092830151151592909301919091525090565b600081518084526020808501808196508360051b8101915082860160005b85811015611d86578284038952611d74848351611c85565b98850198935090840190600101611d5c565b5091979650505050505050565b60c081526000611da660c0830189611d3e565b8281036020840152611db88189611d3e565b90508281036040840152611dcc8188611d3e565b90508281036060840152611de08187611d3e565b90508281036080840152611df48186611d3e565b905082810360a0840152611e088185611d3e565b9998505050505050505050565b600060208284031215611e2757600080fd5b5035919050565b600081518084526020808501945080840160005b83811015611e5e57815187529582019590820190600101611e42565b509495945050505050565b602081526000611a596020830184611e2e565b60008060008060e08587031215611e9257600080fd5b611e9b85611a22565b935060208086013593506040860135611eb381611b25565b9250607f86018713611ec457600080fd5b6040516080810181811067ffffffffffffffff82111715611ee757611ee7611a60565b6040528060e0880189811115611efc57600080fd5b606089015b81811015611f21578035611f1481611b3f565b8352918401918401611f01565b5096999598509396509450505050565b60c081526000611f4460c0830189611c85565b8281036020840152611f568189611c59565b90508281036040840152611f6a8188611c59565b905060ff8616606084015284608084015282810360a0840152611e088185611e2e565b60008060008060008060008060008060006101608c8e031215611faf57600080fd5b67ffffffffffffffff808d351115611fc657600080fd5b611fd38e8e358f01611acf565b9b508060208e01351115611fe657600080fd5b611ff68e60208f01358f01611acf565b9a5061200460408e01611a22565b99508060608e0135111561201757600080fd5b506120288d60608e01358e01611acf565b975061203660808d01611b34565b965060a08c0135955061204b60c08d01611b4d565b945061205960e08d01611b4d565b93506120686101008d01611b4d565b92506120776101208d01611b4d565b91506120866101408d01611b4d565b90509295989b509295989b9093969950565b600080600080600060a086880312156120b057600080fd5b85356120bb81611b25565b94506120c960208701611a22565b93506120d760408701611a22565b92506120e560608701611a22565b949793965091946080013592915050565b60008060006060848603121561210b57600080fd5b61211484611a22565b925060208401359150604084013561212b81611b25565b809150509250925092565b6080815260006121496080830187611c85565b828103602084015261215b8187611c59565b9050828103604084015261216f8186611c59565b91505082606083015295945050505050565b634e487b7160e01b600052601160045260246000fd5b6000828210156121a9576121a9612181565b500390565b634e487b7160e01b600052603260045260246000fd5b6000600182016121d6576121d6612181565b5060010190565b6000602082840312156121ef57600080fd5b5051919050565b60006020828403121561220857600080fd5b815167ffffffffffffffff81111561221f57600080fd5b8201601f8101841361223057600080fd5b805161223e611aee82611aa7565b81815285602083850101111561225357600080fd5b612264826020830160208601611c29565b95945050505050565b60006020828403121561227f57600080fd5b8151611a5981611b25565b600181811c9082168061229e57607f821691505b6020821081036122be57634e487b7160e01b600052602260045260246000fd5b50919050565b6000602082840312156122d657600080fd5b8151611a5981611b3f565b600083516122f3818460208801611c29565b835190830190612307818360208801611c29565b0194935050505056fea2646970667358221220a6f81fa311eea62b22df891ee4f1d1923d4b0f58c0885a29c2f2d30032190abb64736f6c634300080d0033",
    "linkReferences": {}
  },
  "methodIdentifiers": {
    "deploy(bytes,bytes,address,string,uint8,uint256,bool,bool,bool,bool,bool)": "b320e790",
    "getChainId()": "3408e470",
    "getCollectorAddress()": "2848eeb8",
    "getContractByUserAndIndex(address,uint256,uint8,bool[4])": "73ec8f14",
    "getDeploymentPrice(uint256)": "39843b2b",
    "getNFTContractByUserAndIndex(address,uint256,uint8)": "c7a6b3c0",
    "getTokenAddress()": "10fe9ae8",
    "getUserContracts(address)": "34c925f0",
    "owner()": "8da5cb5b",
    "renounceOwnership()": "715018a6",
    "setChainId(uint256)": "ef0e2ff4",
    "setCollectorAddress(address)": "2c4df734",
    "setNewContractOfDeployer(address,address,string,uint8,bool,bool,bool,bool,bool)": "2da25223",
    "setPriceOfContractType(uint256,uint256)": "0f82c052",
    "setTokenAddress(address)": "26a4e8d2",
    "transferOwnership(address)": "f2fde38b",
    "transferOwnership(uint8,address,address,address,uint256)": "c344a90c"
  },
  "id": 0
}