{
  "abi": [
    {
      "inputs": [
        {
          "internalType": "address[]",
          "name": "recipents",
          "type": "address[]"
        },
        {
          "internalType": "uint256[]",
          "name": "amounts",
          "type": "uint256[]"
        }
      ],
      "name": "batchNativeTransfer",
      "outputs": [],
      "stateMutability": "payable",
      "type": "function"
    },
    {
      "inputs": [
        {
          "internalType": "address",
          "name": "tokenAddress",
          "type": "address"
        },
        {
          "internalType": "address[]",
          "name": "recipents",
          "type": "address[]"
        },
        {
          "internalType": "uint256[]",
          "name": "amounts",
          "type": "uint256[]"
        }
      ],
      "name": "batchTokenTransfer",
      "outputs": [],
      "stateMutability": "nonpayable",
      "type": "function"
    }
  ],
  "bytecode": {
    "object": "0x608060405234801561001057600080fd5b50600160005561069a806100256000396000f3fe6080604052600436106100295760003560e01c80637b8781751461002e578063c171337714610050575b600080fd5b34801561003a57600080fd5b5061004e610049366004610506565b610063565b005b61004e61005e36600461057a565b6101f8565b600180547fffffffffffffffffffffffff0000000000000000000000000000000000000000166001600160a01b03851617905581516000339050825182146100f25760405162461bcd60e51b815260206004820152600f60248201527f4c656e677468206d69736d61746368000000000000000000000000000000000060448201526064015b60405180910390fd5b60005b828110156101f05760015485516001600160a01b03909116906323b872dd908490889085908110610128576101286105de565b6020026020010151878581518110610142576101426105de565b60209081029190910101516040517fffffffff0000000000000000000000000000000000000000000000000000000060e086901b1681526001600160a01b03938416600482015292909116602483015260448201526064016020604051808303816000875af11580156101b9573d6000803e3d6000fd5b505050506040513d601f19601f820116820180604052508101906101dd91906105f4565b50806101e881610633565b9150506100f5565b505050505050565b60026000540361024a5760405162461bcd60e51b815260206004820152601f60248201527f5265656e7472616e637947756172643a207265656e7472616e742063616c6c0060448201526064016100e9565b600260009081558251825190919082146102a65760405162461bcd60e51b815260206004820152600f60248201527f4c656e677468206d69736d61746368000000000000000000000000000000000060448201526064016100e9565b60005b82811015610356578481815181106102c3576102c36105de565b60200260200101516001600160a01b03166108fc8583815181106102e9576102e96105de565b60200260200101519081150290604051600060405180830381858888f1935050505015801561031c573d6000803e3d6000fd5b5083818151811061032f5761032f6105de565b602002602001015182610342919061064c565b91508061034e81610633565b9150506102a9565b50803410156103a75760405162461bcd60e51b815260206004820152601b60248201527f496e76616c6964204e617469766520746f6b656e20616d6f756e74000000000060448201526064016100e9565b505060016000555050565b80356001600160a01b03811681146103c957600080fd5b919050565b634e487b7160e01b600052604160045260246000fd5b604051601f8201601f1916810167ffffffffffffffff8111828210171561040d5761040d6103ce565b604052919050565b600067ffffffffffffffff82111561042f5761042f6103ce565b5060051b60200190565b600082601f83011261044a57600080fd5b8135602061045f61045a83610415565b6103e4565b82815260059290921b8401810191818101908684111561047e57600080fd5b8286015b848110156104a057610493816103b2565b8352918301918301610482565b509695505050505050565b600082601f8301126104bc57600080fd5b813560206104cc61045a83610415565b82815260059290921b840181019181810190868411156104eb57600080fd5b8286015b848110156104a057803583529183019183016104ef565b60008060006060848603121561051b57600080fd5b610524846103b2565b9250602084013567ffffffffffffffff8082111561054157600080fd5b61054d87838801610439565b9350604086013591508082111561056357600080fd5b50610570868287016104ab565b9150509250925092565b6000806040838503121561058d57600080fd5b823567ffffffffffffffff808211156105a557600080fd5b6105b186838701610439565b935060208501359150808211156105c757600080fd5b506105d4858286016104ab565b9150509250929050565b634e487b7160e01b600052603260045260246000fd5b60006020828403121561060657600080fd5b8151801515811461061657600080fd5b9392505050565b634e487b7160e01b600052601160045260246000fd5b6000600182016106455761064561061d565b5060010190565b6000821982111561065f5761065f61061d565b50019056fea264697066735822122068e1bd469c2c844ede9817dcc71498d5ed5475ac24f4c872a7aed096b55ca44664736f6c634300080d0033",
    "linkReferences": {}
  },
  "methodIdentifiers": {
    "batchNativeTransfer(address[],uint256[])": "c1713377",
    "batchTokenTransfer(address,address[],uint256[])": "7b878175"
  },
  "id": 6
}