{
  "abi": [
    {
      "anonymous": false,
      "inputs": [
        {
          "indexed": false,
          "internalType": "address",
          "name": "previousAdmin",
          "type": "address"
        },
        {
          "indexed": false,
          "internalType": "address",
          "name": "newAdmin",
          "type": "address"
        }
      ],
      "name": "AdminChanged",
      "type": "event"
    },
    {
      "anonymous": false,
      "inputs": [
        {
          "indexed": true,
          "internalType": "address",
          "name": "beacon",
          "type": "address"
        }
      ],
      "name": "BeaconUpgraded",
      "type": "event"
    },
    {
      "anonymous": false,
      "inputs": [
        {
          "indexed": false,
          "internalType": "uint8",
          "name": "version",
          "type": "uint8"
        }
      ],
      "name": "Initialized",
      "type": "event"
    },
    {
      "anonymous": false,
      "inputs": [
        {
          "indexed": true,
          "internalType": "address",
          "name": "previousOwner",
          "type": "address"
        },
        {
          "indexed": true,
          "internalType": "address",
          "name": "newOwner",
          "type": "address"
        }
      ],
      "name": "OwnershipTransferred",
      "type": "event"
    },
    {
      "anonymous": false,
      "inputs": [
        {
          "indexed": true,
          "internalType": "address",
          "name": "implementation",
          "type": "address"
        }
      ],
      "name": "Upgraded",
      "type": "event"
    },
    {
      "inputs": [
        {
          "internalType": "uint256",
          "name": "_nftType",
          "type": "uint256"
        },
        {
          "internalType": "uint256",
          "name": "quantity",
          "type": "uint256"
        },
        {
          "internalType": "bytes32",
          "name": "_Link",
          "type": "bytes32"
        }
      ],
      "name": "batchCreateNFTs",
      "outputs": [],
      "stateMutability": "nonpayable",
      "type": "function"
    },
    {
      "inputs": [
        {
          "internalType": "bool",
          "name": "_restriction",
          "type": "bool"
        }
      ],
      "name": "changeAstroRestriction",
      "outputs": [],
      "stateMutability": "nonpayable",
      "type": "function"
    },
    {
      "inputs": [
        {
          "internalType": "address",
          "name": "_changedAdd",
          "type": "address"
        }
      ],
      "name": "changeCollectorAdd",
      "outputs": [],
      "stateMutability": "nonpayable",
      "type": "function"
    },
    {
      "inputs": [
        {
          "internalType": "uint256",
          "name": "_nftType",
          "type": "uint256"
        },
        {
          "internalType": "bytes32",
          "name": "_Link",
          "type": "bytes32"
        }
      ],
      "name": "createNFT",
      "outputs": [],
      "stateMutability": "nonpayable",
      "type": "function"
    },
    {
      "inputs": [],
      "name": "getAllAddresses",
      "outputs": [
        {
          "internalType": "address[6]",
          "name": "",
          "type": "address[6]"
        }
      ],
      "stateMutability": "view",
      "type": "function"
    },
    {
      "inputs": [],
      "name": "getAllNFTSold",
      "outputs": [
        {
          "internalType": "uint256",
          "name": "",
          "type": "uint256"
        },
        {
          "internalType": "uint256",
          "name": "",
          "type": "uint256"
        },
        {
          "internalType": "uint256",
          "name": "",
          "type": "uint256"
        }
      ],
      "stateMutability": "view",
      "type": "function"
    },
    {
      "inputs": [],
      "name": "getAllReferralLinks",
      "outputs": [
        {
          "internalType": "bytes32[]",
          "name": "",
          "type": "bytes32[]"
        }
      ],
      "stateMutability": "view",
      "type": "function"
    },
    {
      "inputs": [],
      "name": "getBaseURIs",
      "outputs": [
        {
          "internalType": "string[3]",
          "name": "",
          "type": "string[3]"
        }
      ],
      "stateMutability": "view",
      "type": "function"
    },
    {
      "inputs": [],
      "name": "getDiscountPriceOfNFTs",
      "outputs": [
        {
          "internalType": "uint256[3]",
          "name": "",
          "type": "uint256[3]"
        }
      ],
      "stateMutability": "view",
      "type": "function"
    },
    {
      "inputs": [],
      "name": "getIsAstroNFTNeccesary",
      "outputs": [
        {
          "internalType": "bool",
          "name": "",
          "type": "bool"
        }
      ],
      "stateMutability": "view",
      "type": "function"
    },
    {
      "inputs": [
        {
          "internalType": "uint256",
          "name": "_nftType",
          "type": "uint256"
        }
      ],
      "name": "getNFTRemaining",
      "outputs": [
        {
          "internalType": "uint256",
          "name": "",
          "type": "uint256"
        }
      ],
      "stateMutability": "view",
      "type": "function"
    },
    {
      "inputs": [
        {
          "internalType": "uint256",
          "name": "_nftType",
          "type": "uint256"
        }
      ],
      "name": "getNFTSold",
      "outputs": [
        {
          "internalType": "uint256",
          "name": "",
          "type": "uint256"
        }
      ],
      "stateMutability": "view",
      "type": "function"
    },
    {
      "inputs": [
        {
          "internalType": "uint256",
          "name": "_nftType",
          "type": "uint256"
        }
      ],
      "name": "getNFTTotal",
      "outputs": [
        {
          "internalType": "uint256",
          "name": "",
          "type": "uint256"
        }
      ],
      "stateMutability": "view",
      "type": "function"
    },
    {
      "inputs": [],
      "name": "getPriceOfNFTs",
      "outputs": [
        {
          "internalType": "uint256[3]",
          "name": "",
          "type": "uint256[3]"
        }
      ],
      "stateMutability": "view",
      "type": "function"
    },
    {
      "inputs": [
        {
          "internalType": "bytes32",
          "name": "_Link",
          "type": "bytes32"
        }
      ],
      "name": "getRefLinkPurchaseDataOfRigel",
      "outputs": [
        {
          "internalType": "uint256",
          "name": "",
          "type": "uint256"
        }
      ],
      "stateMutability": "view",
      "type": "function"
    },
    {
      "inputs": [
        {
          "internalType": "bytes32",
          "name": "_Link",
          "type": "bytes32"
        }
      ],
      "name": "getRefLinkPurchaseDataOfSirius",
      "outputs": [
        {
          "internalType": "uint256",
          "name": "",
          "type": "uint256"
        }
      ],
      "stateMutability": "view",
      "type": "function"
    },
    {
      "inputs": [
        {
          "internalType": "bytes32",
          "name": "_Link",
          "type": "bytes32"
        }
      ],
      "name": "getRefLinkPurchaseDataOfVega",
      "outputs": [
        {
          "internalType": "uint256",
          "name": "",
          "type": "uint256"
        }
      ],
      "stateMutability": "view",
      "type": "function"
    },
    {
      "inputs": [
        {
          "internalType": "bytes32",
          "name": "_Link",
          "type": "bytes32"
        }
      ],
      "name": "getRefLinkTotalPurchaseData",
      "outputs": [
        {
          "internalType": "uint256",
          "name": "",
          "type": "uint256"
        }
      ],
      "stateMutability": "view",
      "type": "function"
    },
    {
      "inputs": [],
      "name": "getSaleEndTime",
      "outputs": [
        {
          "internalType": "uint256",
          "name": "",
          "type": "uint256"
        }
      ],
      "stateMutability": "view",
      "type": "function"
    },
    {
      "inputs": [],
      "name": "getSuffix",
      "outputs": [
        {
          "internalType": "string",
          "name": "",
          "type": "string"
        }
      ],
      "stateMutability": "view",
      "type": "function"
    },
    {
      "inputs": [],
      "name": "getTotalNFTs",
      "outputs": [
        {
          "internalType": "uint256",
          "name": "",
          "type": "uint256"
        },
        {
          "internalType": "uint256",
          "name": "",
          "type": "uint256"
        },
        {
          "internalType": "uint256",
          "name": "",
          "type": "uint256"
        }
      ],
      "stateMutability": "view",
      "type": "function"
    },
    {
      "inputs": [
        {
          "internalType": "address[6]",
          "name": "addr",
          "type": "address[6]"
        },
        {
          "internalType": "uint256[3]",
          "name": "amounts",
          "type": "uint256[3]"
        },
        {
          "internalType": "uint256[3]",
          "name": "nftQuan",
          "type": "uint256[3]"
        },
        {
          "internalType": "uint256[3]",
          "name": "_presaleDis",
          "type": "uint256[3]"
        },
        {
          "internalType": "string[3]",
          "name": "baseUri",
          "type": "string[3]"
        },
        {
          "internalType": "string",
          "name": "suffix",
          "type": "string"
        },
        {
          "internalType": "bool",
          "name": "_isAstroNftNeccesary",
          "type": "bool"
        },
        {
          "internalType": "uint256",
          "name": "saleEndTime",
          "type": "uint256"
        }
      ],
      "name": "initialize",
      "outputs": [],
      "stateMutability": "nonpayable",
      "type": "function"
    },
    {
      "inputs": [
        {
          "internalType": "address",
          "name": "userAddress",
          "type": "address"
        }
      ],
      "name": "isEligible",
      "outputs": [
        {
          "internalType": "bool",
          "name": "",
          "type": "bool"
        }
      ],
      "stateMutability": "view",
      "type": "function"
    },
    {
      "inputs": [
        {
          "internalType": "bytes32",
          "name": "referral",
          "type": "bytes32"
        }
      ],
      "name": "isValidReferral",
      "outputs": [
        {
          "internalType": "bool",
          "name": "",
          "type": "bool"
        }
      ],
      "stateMutability": "view",
      "type": "function"
    },
    {
      "inputs": [
        {
          "internalType": "address",
          "name": "",
          "type": "address"
        },
        {
          "internalType": "address",
          "name": "",
          "type": "address"
        },
        {
          "internalType": "uint256",
          "name": "",
          "type": "uint256"
        },
        {
          "internalType": "bytes",
          "name": "",
          "type": "bytes"
        }
      ],
      "name": "onERC721Received",
      "outputs": [
        {
          "internalType": "bytes4",
          "name": "",
          "type": "bytes4"
        }
      ],
      "stateMutability": "nonpayable",
      "type": "function"
    },
    {
      "inputs": [],
      "name": "owner",
      "outputs": [
        {
          "internalType": "address",
          "name": "",
          "type": "address"
        }
      ],
      "stateMutability": "view",
      "type": "function"
    },
    {
      "inputs": [],
      "name": "proxiableUUID",
      "outputs": [
        {
          "internalType": "bytes32",
          "name": "",
          "type": "bytes32"
        }
      ],
      "stateMutability": "view",
      "type": "function"
    },
    {
      "inputs": [],
      "name": "removeAllReferralLinks",
      "outputs": [],
      "stateMutability": "nonpayable",
      "type": "function"
    },
    {
      "inputs": [
        {
          "internalType": "bytes32",
          "name": "link",
          "type": "bytes32"
        }
      ],
      "name": "removeReferralLink",
      "outputs": [],
      "stateMutability": "nonpayable",
      "type": "function"
    },
    {
      "inputs": [],
      "name": "renounceOwnership",
      "outputs": [],
      "stateMutability": "nonpayable",
      "type": "function"
    },
    {
      "inputs": [
        {
          "internalType": "address",
          "name": "astro",
          "type": "address"
        }
      ],
      "name": "setAstrolistAddress",
      "outputs": [],
      "stateMutability": "nonpayable",
      "type": "function"
    },
    {
      "inputs": [
        {
          "internalType": "string[3]",
          "name": "newURI",
          "type": "string[3]"
        }
      ],
      "name": "setBaseURI",
      "outputs": [],
      "stateMutability": "nonpayable",
      "type": "function"
    },
    {
      "inputs": [
        {
          "internalType": "uint256[3]",
          "name": "buyPrice",
          "type": "uint256[3]"
        }
      ],
      "name": "setBuyPrice",
      "outputs": [],
      "stateMutability": "nonpayable",
      "type": "function"
    },
    {
      "inputs": [
        {
          "internalType": "uint256[3]",
          "name": "_presaleDis",
          "type": "uint256[3]"
        }
      ],
      "name": "setDiscountOnPresale",
      "outputs": [],
      "stateMutability": "nonpayable",
      "type": "function"
    },
    {
      "inputs": [
        {
          "internalType": "address",
          "name": "usdt",
          "type": "address"
        }
      ],
      "name": "setERC20TokenAddress",
      "outputs": [],
      "stateMutability": "nonpayable",
      "type": "function"
    },
    {
      "inputs": [
        {
          "internalType": "uint16[3]",
          "name": "_increaseNFT",
          "type": "uint16[3]"
        }
      ],
      "name": "setNFTPresaleQuant",
      "outputs": [],
      "stateMutability": "nonpayable",
      "type": "function"
    },
    {
      "inputs": [
        {
          "internalType": "uint256[3]",
          "name": "discounts",
          "type": "uint256[3]"
        }
      ],
      "name": "setPresaleDiscount",
      "outputs": [],
      "stateMutability": "nonpayable",
      "type": "function"
    },
    {
      "inputs": [
        {
          "internalType": "bytes32[]",
          "name": "_setRefLink",
          "type": "bytes32[]"
        }
      ],
      "name": "setReferralLinks",
      "outputs": [],
      "stateMutability": "nonpayable",
      "type": "function"
    },
    {
      "inputs": [
        {
          "internalType": "address",
          "name": "rigel",
          "type": "address"
        }
      ],
      "name": "setRigelAddress",
      "outputs": [],
      "stateMutability": "nonpayable",
      "type": "function"
    },
    {
      "inputs": [
        {
          "internalType": "uint256",
          "name": "saleEndTime",
          "type": "uint256"
        }
      ],
      "name": "setSaleEndTime",
      "outputs": [],
      "stateMutability": "nonpayable",
      "type": "function"
    },
    {
      "inputs": [
        {
          "internalType": "address",
          "name": "sirius",
          "type": "address"
        }
      ],
      "name": "setSiriusAddress",
      "outputs": [],
      "stateMutability": "nonpayable",
      "type": "function"
    },
    {
      "inputs": [
        {
          "internalType": "string",
          "name": "newSuffix",
          "type": "string"
        }
      ],
      "name": "setSuffix",
      "outputs": [],
      "stateMutability": "nonpayable",
      "type": "function"
    },
    {
      "inputs": [
        {
          "internalType": "address",
          "name": "vega",
          "type": "address"
        }
      ],
      "name": "setVegaAddress",
      "outputs": [],
      "stateMutability": "nonpayable",
      "type": "function"
    },
    {
      "inputs": [
        {
          "internalType": "address",
          "name": "newOwner",
          "type": "address"
        }
      ],
      "name": "transferOwnership",
      "outputs": [],
      "stateMutability": "nonpayable",
      "type": "function"
    },
    {
      "inputs": [
        {
          "internalType": "address",
          "name": "newImplementation",
          "type": "address"
        }
      ],
      "name": "upgradeTo",
      "outputs": [],
      "stateMutability": "nonpayable",
      "type": "function"
    },
    {
      "inputs": [
        {
          "internalType": "address",
          "name": "newImplementation",
          "type": "address"
        },
        {
          "internalType": "bytes",
          "name": "data",
          "type": "bytes"
        }
      ],
      "name": "upgradeToAndCall",
      "outputs": [],
      "stateMutability": "payable",
      "type": "function"
    }
  ],
  "bytecode": {
    "object": "0x60a06040523060805234801561001457600080fd5b5060805161333761004c60003960008181610d8601528181610e0b01528181610f0101528181610f86015261106c01526133376000f3fe6080604052600436106102fd5760003560e01c80637bf75d981161018f578063d042896b116100e1578063f2fde38b1161008a578063fb605eb711610064578063fb605eb714610a14578063fcddb5af14610a34578063fdc38de714610a5657600080fd5b8063f2fde38b146109b4578063f88592b1146109d4578063fa5e622a146109f457600080fd5b8063eabaf1cd116100bb578063eabaf1cd14610954578063eae483c514610974578063ecfe30221461099457600080fd5b8063d042896b146108dc578063d132391a14610914578063ddff84e51461093457600080fd5b80639516a10411610143578063a697298e1161011d578063a697298e146108a7578063a6995826146108c7578063c43c069b1461060e57600080fd5b80639516a104146108455780639fe7037814610867578063a2c043391461088757600080fd5b80638156b9d0116101745780638156b9d0146107db5780638bf2b661146107fb5780638da5cb5b1461081d57600080fd5b80637bf75d981461079b5780638024ee64146107bb57600080fd5b8063468a3c86116102535780636e8b1eaf116101fc57806375d8f19d116101d657806375d8f19d146106d7578063787048d0146106ec5780637bd42ec51461070c57600080fd5b80636e8b1eaf14610680578063715018a6146106a257806375d5ae9f146106b757600080fd5b80635d7e5d2a1161022d5780635d7e5d2a1461060e57806366e305fd1461062e578063678ab5c51461064e57600080fd5b8063468a3c86146105ad5780634f1ef286146105e657806352d1902d146105f957600080fd5b80631c2e624d116102b55780633659cfe61161028f5780633659cfe61461051257806338f16139146105325780633c6caa581461057357600080fd5b80631c2e624d1461041a5780632a818c521461043a57806330bdb3511461045a57600080fd5b8063150b7a02116102e6578063150b7a021461034957806317f35a8e146103be5780631c0e1d09146103f857600080fd5b8063065d83571461030257806314b452e414610324575b600080fd5b34801561030e57600080fd5b5061032261031d36600461292c565b610a76565b005b34801561033057600080fd5b50610110545b6040519081526020015b60405180910390f35b34801561035557600080fd5b5061038d610364366004612a77565b7f150b7a0200000000000000000000000000000000000000000000000000000000949350505050565b6040517fffffffff000000000000000000000000000000000000000000000000000000009091168152602001610340565b3480156103ca57600080fd5b506103366103d9366004612adf565b6000908152610107602090815260408083206001845290915290205490565b34801561040457600080fd5b5061040d610ca8565b6040516103409190612b50565b34801561042657600080fd5b50610322610435366004612bd6565b610d3b565b34801561044657600080fd5b50610322610455366004612c1b565b610d55565b34801561046657600080fd5b506104f761010b6020527f053a497187f043e06d3c7bcdaec804489d8611080d89254a48d3f6b783c2c9ec547f6e52e526d0a430c19b585340217228bc17d6c1fa1e249cf1b148e60115ab631d5460026000527ffa18e2fe51d171d01510a2028b71d30b26d8c0c58e2a78608e07477a601c60605461ffff6201000093849004811694928490048116939091041690565b60408051938452602084019290925290820152606001610340565b34801561051e57600080fd5b5061032261052d366004612c36565b610d7c565b34801561053e57600080fd5b5061056361054d366004612adf565b6000908152610105602052604090205460ff1690565b6040519015158152602001610340565b34801561057f57600080fd5b5061033661058e366004612adf565b6000908152610107602090815260408083206002845290915290205490565b3480156105b957600080fd5b506103366105c8366004612adf565b60009081526101076020908152604080832083805290915290205490565b6103226105f4366004612c51565b610ef7565b34801561060557600080fd5b5061033661105f565b34801561061a57600080fd5b50610322610629366004612ce4565b611124565b34801561063a57600080fd5b50610563610649366004612c36565b61113a565b34801561065a57600080fd5b50610336610669366004612adf565b600090815261010b602052604090205461ffff1690565b34801561068c57600080fd5b506106956111c2565b6040516103409190612d00565b3480156106ae57600080fd5b506103226111fe565b3480156106c357600080fd5b506103226106d2366004612d31565b611212565b3480156106e357600080fd5b5061032261122e565b3480156106f857600080fd5b50610322610707366004612c36565b6112a2565b34801561071857600080fd5b5061010b6020527f053a497187f043e06d3c7bcdaec804489d8611080d89254a48d3f6b783c2c9ec547f6e52e526d0a430c19b585340217228bc17d6c1fa1e249cf1b148e60115ab631d5460026000527ffa18e2fe51d171d01510a2028b71d30b26d8c0c58e2a78608e07477a601c60605461ffff9283169291821691166104f7565b3480156107a757600080fd5b506103226107b6366004612adf565b6112cc565b3480156107c757600080fd5b506103366107d6366004612adf565b61134c565b3480156107e757600080fd5b506103226107f6366004612c36565b611380565b34801561080757600080fd5b506108106113ab565b6040516103409190612d66565b34801561082957600080fd5b506065546040516001600160a01b039091168152602001610340565b34801561085157600080fd5b5061085a611402565b6040516103409190612daa565b34801561087357600080fd5b50610322610882366004612ce4565b61145e565b34801561089357600080fd5b506103226108a2366004612ddb565b611474565b3480156108b357600080fd5b506103366108c2366004612adf565b6117e0565b3480156108d357600080fd5b5061069561182f565b3480156108e857600080fd5b506103366108f7366004612adf565b600090815261010b602052604090205462010000900461ffff1690565b34801561092057600080fd5b5061032261092f366004612adf565b611867565b34801561094057600080fd5b5061032261094f366004612c36565b611875565b34801561096057600080fd5b5061032261096f366004612ee8565b61189f565b34801561098057600080fd5b5061032261098f366004612c36565b611abf565b3480156109a057600080fd5b5061010354600160a01b900460ff16610563565b3480156109c057600080fd5b506103226109cf366004612c36565b611ae9565b3480156109e057600080fd5b506103226109ef366004612c36565b611b76565b348015610a0057600080fd5b50610322610a0f366004612f0a565b611ba0565b348015610a2057600080fd5b50610322610a2f366004612c36565b611c40565b348015610a4057600080fd5b50610a49611c6a565b6040516103409190612fb0565b348015610a6257600080fd5b50610322610a71366004612ffd565b611d32565b610110544210610abd5760405162461bcd60e51b815260206004820152600d60248201526c14d85b19481a5cc8115b991959609a1b60448201526064015b60405180910390fd5b60fb546040516370a0823160e01b81523360048201526000916001600160a01b0316906370a0823190602401602060405180830381865afa158015610b06573d6000803e3d6000fd5b505050506040513d601f19601f82011682018060405250810190610b2a9190613063565b61010354909150600160a01b900460ff1615610b91576001811015610b915760405162461bcd60e51b815260206004820181905260248201527f43616e277420627579206e667420776974686f757420417374726f20444e46546044820152606401610ab4565b33600060018310610bd9576101088660038110610bb057610bb061307c565b01546101008760038110610bc657610bc661307c565b0154610bd291906130a8565b9050610bf2565b6101008660038110610bed57610bed61307c565b015490505b6000610bfe86836130bf565b9050610c0c83828989611dfe565b610c17838888611f04565b600087815261010b6020526040902054610c3690879061ffff166130de565b600088815261010b60209081526040808320805461ffff191661ffff95909516949094179093558782526101059052205460ff1615610c9f576000858152610107602090815260408083208a845290915281208054889290610c99908490613104565b90915550505b50505050505050565b606061010f8054610cb89061311c565b80601f0160208091040260200160405190810160405280929190818152602001828054610ce49061311c565b8015610d315780601f10610d0657610100808354040283529160200191610d31565b820191906000526020600020905b815481529060010190602001808311610d1457829003601f168201915b5050505050905090565b610d4361206f565b610d5161010c826003612760565b5050565b610d5d61206f565b6101038054911515600160a01b0260ff60a01b19909216919091179055565b6001600160a01b037f0000000000000000000000000000000000000000000000000000000000000000163003610e095760405162461bcd60e51b815260206004820152602c60248201527f46756e6374696f6e206d7573742062652063616c6c6564207468726f7567682060448201526b19195b1959d85d1958d85b1b60a21b6064820152608401610ab4565b7f00000000000000000000000000000000000000000000000000000000000000006001600160a01b0316610e647f360894a13ba1a3210667c828492db98dca3e2076cc3735a920a3ca505d382bbc546001600160a01b031690565b6001600160a01b031614610ecf5760405162461bcd60e51b815260206004820152602c60248201527f46756e6374696f6e206d7573742062652063616c6c6564207468726f7567682060448201526b6163746976652070726f787960a01b6064820152608401610ab4565b610ed8816120c9565b60408051600080825260208201909252610ef4918391906120d1565b50565b6001600160a01b037f0000000000000000000000000000000000000000000000000000000000000000163003610f845760405162461bcd60e51b815260206004820152602c60248201527f46756e6374696f6e206d7573742062652063616c6c6564207468726f7567682060448201526b19195b1959d85d1958d85b1b60a21b6064820152608401610ab4565b7f00000000000000000000000000000000000000000000000000000000000000006001600160a01b0316610fdf7f360894a13ba1a3210667c828492db98dca3e2076cc3735a920a3ca505d382bbc546001600160a01b031690565b6001600160a01b03161461104a5760405162461bcd60e51b815260206004820152602c60248201527f46756e6374696f6e206d7573742062652063616c6c6564207468726f7567682060448201526b6163746976652070726f787960a01b6064820152608401610ab4565b611053826120c9565b610d51828260016120d1565b6000306001600160a01b037f000000000000000000000000000000000000000000000000000000000000000016146110ff5760405162461bcd60e51b815260206004820152603860248201527f555550535570677261646561626c653a206d757374206e6f742062652063616c60448201527f6c6564207468726f7567682064656c656761746563616c6c00000000000000006064820152608401610ab4565b507f360894a13ba1a3210667c828492db98dca3e2076cc3735a920a3ca505d382bbc90565b61112c61206f565b610d516101088260036127b0565b60fb546040516370a0823160e01b81526001600160a01b0383811660048301526000926001929116906370a0823190602401602060405180830381865afa158015611189573d6000803e3d6000fd5b505050506040513d601f19601f820116820180604052508101906111ad9190613063565b106111ba57506001919050565b506000919050565b6111ca6127ea565b604080516060810191829052906101009060039082845b8154815260200190600101908083116111e1575050505050905090565b61120661206f565b6112106000612276565b565b61121a61206f565b8051610d519061010f906020840190612808565b61123661206f565b60005b61010654811015610ef45760006101056000610106848154811061125f5761125f61307c565b9060005260206000200154815260200190815260200160002060006101000a81548160ff021916908315150217905550808061129a90613156565b915050611239565b6112aa61206f565b60fc80546001600160a01b0319166001600160a01b0392909216919091179055565b6112d461206f565b6000818152610105602052604090205460ff166113335760405162461bcd60e51b815260206004820152600f60248201527f416c72656164792072656d6f76656400000000000000000000000000000000006044820152606401610ab4565b600090815261010560205260409020805460ff19169055565b600081815261010b602052604081205481906113759061ffff808216916201000090041661316f565b61ffff169392505050565b61138861206f565b61010380546001600160a01b0319166001600160a01b0392909216919091179055565b6060610106805480602002602001604051908101604052809291908181526020018280548015610d3157602002820191906000526020600020908154815260200190600101908083116111e1575050505050905090565b61140a61287b565b506040805160c08101825260fb546001600160a01b03908116825260fc548116602083015260fd5481169282019290925260fe548216606082015260ff54821660808201526101035490911660a082015290565b61146661206f565b610d516101008260036127b0565b600054610100900460ff16158080156114945750600054600160ff909116105b806114ae5750303b1580156114ae575060005460ff166001145b6115205760405162461bcd60e51b815260206004820152602e60248201527f496e697469616c697a61626c653a20636f6e747261637420697320616c72656160448201527f647920696e697469616c697a65640000000000000000000000000000000000006064820152608401610ab4565b6000805460ff191660011790558015611543576000805461ff0019166101001790555b61154b6122c8565b886000602002015160fc80546001600160a01b0319166001600160a01b03909216919091179055886001602002015160fd80546001600160a01b0319166001600160a01b03909216919091179055886002602002015160fe80546001600160a01b0319166001600160a01b03909216919091179055886003602002015160ff80546001600160a01b0319166001600160a01b03909216919091179055886004602002015161010380546001600160a01b0319166001600160a01b03909216919091179055886005602002015160fb80546001600160a01b0319166001600160a01b03909216919091179055866000602090810291909101516000805261010b9091527f053a497187f043e06d3c7bcdaec804489d8611080d89254a48d3f6b783c2c9ec805461ffff909216620100000263ffff00001990921691909117905586600160209081029190910151600160005261010b9091527f6e52e526d0a430c19b585340217228bc17d6c1fa1e249cf1b148e60115ab631d805461ffff909216620100000263ffff00001990921691909117905586600260209081029190910151600260005261010b9091527ffa18e2fe51d171d01510a2028b71d30b26d8c0c58e2a78608e07477a601c6060805463ffff000019166201000061ffff90931692909202919091179055610103805460ff60a01b1916600160a01b8515150217905561175686611124565b6117646101008960036127b0565b5061177361010c866003612760565b5083516117889061010f906020870190612808565b5061011082905580156117d5576000805461ff0019169055604051600181527f7f26b83ff96e1f2b6a682f133852f6798a09c465da95921460cefb38474024989060200160405180910390a15b505050505050505050565b60008060005b6003811015611828576000848152610107602090815260408083208484529091529020546118149083613104565b91508061182081613156565b9150506117e6565b5092915050565b6118376127ea565b604080516060810191829052610108805482529091600390610109602085018083116111e1575050505050905090565b61186f61206f565b61011055565b61187d61206f565b60fb80546001600160a01b0319166001600160a01b0392909216919091179055565b6101105442106118e15760405162461bcd60e51b815260206004820152600d60248201526c14d85b19481a5cc8115b991959609a1b6044820152606401610ab4565b60fb546040516370a0823160e01b81523360048201526000916001600160a01b0316906370a0823190602401602060405180830381865afa15801561192a573d6000803e3d6000fd5b505050506040513d601f19601f8201168201806040525081019061194e9190613063565b61010354909150600160a01b900460ff16156119b55760018110156119b55760405162461bcd60e51b815260206004820181905260248201527f43616e277420627579206e667420776974686f757420417374726f20444e46546044820152606401610ab4565b600033600183106119fd5761010885600381106119d4576119d461307c565b015461010086600381106119ea576119ea61307c565b01546119f691906130a8565b9150611a16565b6101008560038110611a1157611a1161307c565b015491505b611a238183876001611dfe565b611a2f81866001611f04565b600085815261010b6020526040902054611a4e9061ffff1660016130de565b600086815261010b60209081526040808320805461ffff191661ffff95909516949094179093558682526101059052205460ff1615611ab8576000848152610107602090815260408083208884529091528120805460019290611ab2908490613104565b90915550505b5050505050565b611ac761206f565b60ff80546001600160a01b0319166001600160a01b0392909216919091179055565b611af161206f565b6001600160a01b038116611b6d5760405162461bcd60e51b815260206004820152602660248201527f4f776e61626c653a206e6577206f776e657220697320746865207a65726f206160448201527f64647265737300000000000000000000000000000000000000000000000000006064820152608401610ab4565b610ef481612276565b611b7e61206f565b60fd80546001600160a01b0319166001600160a01b0392909216919091179055565b611ba861206f565b60005b8151811015610d515760016101056000848481518110611bcd57611bcd61307c565b6020026020010151815260200190815260200160002060006101000a81548160ff021916908315150217905550610106828281518110611c0f57611c0f61307c565b6020908102919091018101518254600181018455600093845291909220015580611c3881613156565b915050611bab565b611c4861206f565b60fe80546001600160a01b0319166001600160a01b0392909216919091179055565b611c72612899565b604080516060810190915261010c60036000835b82821015611d29578382018054611c9c9061311c565b80601f0160208091040260200160405190810160405280929190818152602001828054611cc89061311c565b8015611d155780601f10611cea57610100808354040283529160200191611d15565b820191906000526020600020905b815481529060010190602001808311611cf857829003601f168201915b505050505081526020019060010190611c86565b50505050905090565b611d3a61206f565b8051600080805261010b60209081527f053a497187f043e06d3c7bcdaec804489d8611080d89254a48d3f6b783c2c9ec805461ffff9485166201000090810263ffff0000199283161790925591850151600184527f6e52e526d0a430c19b585340217228bc17d6c1fa1e249cf1b148e60115ab631d8054918616830291841691909117905560409094015160029092527ffa18e2fe51d171d01510a2028b71d30b26d8c0c58e2a78608e07477a601c60608054929093169093029216919091179055565b600082815261010b602052604090205461ffff620100008204811691611e2691849116613104565b1115611e745760405162461bcd60e51b815260206004820152600c60248201527f416c6c204e465420736f6c6400000000000000000000000000000000000000006044820152606401610ab4565b60ff54610103546040517f23b872dd0000000000000000000000000000000000000000000000000000000081526001600160a01b0387811660048301529182166024820152604481018690529116906323b872dd90606401600060405180830381600087803b158015611ee657600080fd5b505af1158015611efa573d6000803e3d6000fd5b5050505050505050565b600082815261010b602052604081205461ffff16905b82811015611ab85781611f2c81613156565b925050600061010c8560038110611f4557611f4561307c565b01611f4f8461233b565b61010f604051602001611f649392919061322b565b604051602081830303815290604052905084600003611fe75760fc54604051636902622f60e11b81526001600160a01b039091169063d204c45e90611faf908990859060040161325e565b600060405180830381600087803b158015611fc957600080fd5b505af1158015611fdd573d6000803e3d6000fd5b505050505061205d565b846001036120215760fd54604051636902622f60e11b81526001600160a01b039091169063d204c45e90611faf908990859060040161325e565b8460020361205b5760fe54604051636902622f60e11b81526001600160a01b039091169063d204c45e90611faf908990859060040161325e565b505b8061206781613156565b915050611f1a565b6065546001600160a01b031633146112105760405162461bcd60e51b815260206004820181905260248201527f4f776e61626c653a2063616c6c6572206973206e6f7420746865206f776e65726044820152606401610ab4565b610ef461206f565b7f4910fdfa16fed3260ed0e7147f7cc6da11a60208b5b9406d12a635614ffd91435460ff16156121095761210483612478565b505050565b826001600160a01b03166352d1902d6040518163ffffffff1660e01b8152600401602060405180830381865afa925050508015612163575060408051601f3d908101601f1916820190925261216091810190613063565b60015b6121d55760405162461bcd60e51b815260206004820152602e60248201527f45524331393637557067726164653a206e657720696d706c656d656e7461746960448201527f6f6e206973206e6f7420555550530000000000000000000000000000000000006064820152608401610ab4565b7f360894a13ba1a3210667c828492db98dca3e2076cc3735a920a3ca505d382bbc811461226a5760405162461bcd60e51b815260206004820152602960248201527f45524331393637557067726164653a20756e737570706f727465642070726f7860448201527f6961626c655555494400000000000000000000000000000000000000000000006064820152608401610ab4565b50612104838383612536565b606580546001600160a01b038381166001600160a01b0319831681179093556040519116919082907f8be0079c531659141344cd1fd0a4f28419497f9722a3daafe3b4186f6b6457e090600090a35050565b600054610100900460ff166123335760405162461bcd60e51b815260206004820152602b60248201527f496e697469616c697a61626c653a20636f6e7472616374206973206e6f74206960448201526a6e697469616c697a696e6760a81b6064820152608401610ab4565b611210612561565b60608160000361237e57505060408051808201909152600181527f3000000000000000000000000000000000000000000000000000000000000000602082015290565b8160005b81156123a8578061239281613156565b91506123a19050600a83613296565b9150612382565b60008167ffffffffffffffff8111156123c3576123c3612974565b6040519080825280601f01601f1916602001820160405280156123ed576020820181803683370190505b5090505b8415612470576124026001836130a8565b915061240f600a866132aa565b61241a906030613104565b60f81b81838151811061242f5761242f61307c565b60200101907effffffffffffffffffffffffffffffffffffffffffffffffffffffffffffff1916908160001a905350612469600a86613296565b94506123f1565b949350505050565b6001600160a01b0381163b6124f55760405162461bcd60e51b815260206004820152602d60248201527f455243313936373a206e657720696d706c656d656e746174696f6e206973206e60448201527f6f74206120636f6e7472616374000000000000000000000000000000000000006064820152608401610ab4565b7f360894a13ba1a3210667c828492db98dca3e2076cc3735a920a3ca505d382bbc80546001600160a01b0319166001600160a01b0392909216919091179055565b61253f836125d5565b60008251118061254c5750805b156121045761255b8383612615565b50505050565b600054610100900460ff166125cc5760405162461bcd60e51b815260206004820152602b60248201527f496e697469616c697a61626c653a20636f6e7472616374206973206e6f74206960448201526a6e697469616c697a696e6760a81b6064820152608401610ab4565b61121033612276565b6125de81612478565b6040516001600160a01b038216907fbc7cd75a20ee27fd9adebab32041f755214dbc6bffa90cc0225b39da2e5c2d3b90600090a250565b60606001600160a01b0383163b6126945760405162461bcd60e51b815260206004820152602660248201527f416464726573733a2064656c65676174652063616c6c20746f206e6f6e2d636f60448201527f6e747261637400000000000000000000000000000000000000000000000000006064820152608401610ab4565b600080846001600160a01b0316846040516126af91906132be565b600060405180830381855af49150503d80600081146126ea576040519150601f19603f3d011682016040523d82523d6000602084013e6126ef565b606091505b509150915061271782826040518060600160405280602781526020016132db60279139612720565b95945050505050565b6060831561272f575081612759565b82511561273f5782518084602001fd5b8160405162461bcd60e51b8152600401610ab49190612b50565b9392505050565b82600381019282156127a0579160200282015b828111156127a05782518051612790918491602090910190612808565b5091602001919060010190612773565b506127ac9291506128c0565b5090565b82600381019282156127de579160200282015b828111156127de5782518255916020019190600101906127c3565b506127ac9291506128dd565b60405180606001604052806003906020820280368337509192915050565b8280546128149061311c565b90600052602060002090601f01602090048101928261283657600085556127de565b82601f1061284f57805160ff19168380011785556127de565b828001600101855582156127de57918201828111156127de5782518255916020019190600101906127c3565b6040518060c001604052806006906020820280368337509192915050565b60405180606001604052806003905b60608152602001906001900390816128a85790505090565b808211156127ac5760006128d482826128f2565b506001016128c0565b5b808211156127ac57600081556001016128de565b5080546128fe9061311c565b6000825580601f1061290e575050565b601f016020900490600052602060002090810190610ef491906128dd565b60008060006060848603121561294157600080fd5b505081359360208301359350604090920135919050565b80356001600160a01b038116811461296f57600080fd5b919050565b634e487b7160e01b600052604160045260246000fd5b6040516060810167ffffffffffffffff811182821017156129ad576129ad612974565b60405290565b60405160c0810167ffffffffffffffff811182821017156129ad576129ad612974565b604051601f8201601f1916810167ffffffffffffffff811182821017156129ff576129ff612974565b604052919050565b600082601f830112612a1857600080fd5b813567ffffffffffffffff811115612a3257612a32612974565b612a45601f8201601f19166020016129d6565b818152846020838601011115612a5a57600080fd5b816020850160208301376000918101602001919091529392505050565b60008060008060808587031215612a8d57600080fd5b612a9685612958565b9350612aa460208601612958565b925060408501359150606085013567ffffffffffffffff811115612ac757600080fd5b612ad387828801612a07565b91505092959194509250565b600060208284031215612af157600080fd5b5035919050565b60005b83811015612b13578181015183820152602001612afb565b8381111561255b5750506000910152565b60008151808452612b3c816020860160208601612af8565b601f01601f19169290920160200192915050565b6020815260006127596020830184612b24565b600082601f830112612b7457600080fd5b612b7c61298a565b806060840185811115612b8e57600080fd5b845b81811015612bcb57803567ffffffffffffffff811115612bb05760008081fd5b612bbc88828901612a07565b85525060209384019301612b90565b509095945050505050565b600060208284031215612be857600080fd5b813567ffffffffffffffff811115612bff57600080fd5b61247084828501612b63565b8035801515811461296f57600080fd5b600060208284031215612c2d57600080fd5b61275982612c0b565b600060208284031215612c4857600080fd5b61275982612958565b60008060408385031215612c6457600080fd5b612c6d83612958565b9150602083013567ffffffffffffffff811115612c8957600080fd5b612c9585828601612a07565b9150509250929050565b600082601f830112612cb057600080fd5b612cb861298a565b806060840185811115612cca57600080fd5b845b81811015612bcb578035845260209384019301612ccc565b600060608284031215612cf657600080fd5b6127598383612c9f565b60608101818360005b6003811015612d28578151835260209283019290910190600101612d09565b50505092915050565b600060208284031215612d4357600080fd5b813567ffffffffffffffff811115612d5a57600080fd5b61247084828501612a07565b6020808252825182820181905260009190848201906040850190845b81811015612d9e57835183529284019291840191600101612d82565b50909695505050505050565b60c08101818360005b6006811015612d285781516001600160a01b0316835260209283019290910190600101612db3565b600080600080600080600080610260898b031215612df857600080fd5b89601f8a0112612e0757600080fd5b612e0f6129b3565b8060c08b018c811115612e2157600080fd5b8b5b81811015612e4257612e3481612958565b845260209384019301612e23565b50819a50612e508d82612c9f565b9950505050612e638a6101208b01612c9f565b9550612e738a6101808b01612c9f565b94506101e089013567ffffffffffffffff80821115612e9157600080fd5b612e9d8c838d01612b63565b95506102008b0135915080821115612eb457600080fd5b50612ec18b828c01612a07565b935050612ed16102208a01612c0b565b915061024089013590509295985092959890939650565b60008060408385031215612efb57600080fd5b50508035926020909101359150565b60006020808385031215612f1d57600080fd5b823567ffffffffffffffff80821115612f3557600080fd5b818501915085601f830112612f4957600080fd5b813581811115612f5b57612f5b612974565b8060051b9150612f6c8483016129d6565b8181529183018401918481019088841115612f8657600080fd5b938501935b83851015612fa457843582529385019390850190612f8b565b98975050505050505050565b60208082526000906080830183820185845b6003811015612ff157601f19878503018352612fdf848351612b24565b93509184019190840190600101612fc2565b50919695505050505050565b60006060828403121561300f57600080fd5b82601f83011261301e57600080fd5b61302661298a565b80606084018581111561303857600080fd5b845b81811015612bcb57803561ffff811681146130555760008081fd5b84526020938401930161303a565b60006020828403121561307557600080fd5b5051919050565b634e487b7160e01b600052603260045260246000fd5b634e487b7160e01b600052601160045260246000fd5b6000828210156130ba576130ba613092565b500390565b60008160001904831182151516156130d9576130d9613092565b500290565b600061ffff8083168185168083038211156130fb576130fb613092565b01949350505050565b6000821982111561311757613117613092565b500190565b600181811c9082168061313057607f821691505b60208210810361315057634e487b7160e01b600052602260045260246000fd5b50919050565b60006001820161316857613168613092565b5060010190565b600061ffff8381169083168181101561318a5761318a613092565b039392505050565b8054600090600181811c90808316806131ac57607f831692505b602080841082036131cd57634e487b7160e01b600052602260045260246000fd5b8180156131e157600181146131f25761321f565b60ff1986168952848901965061321f565b60008881526020902060005b868110156132175781548b8201529085019083016131fe565b505084890196505b50505050505092915050565b60006132378286613192565b8451613247818360208901612af8565b61325381830186613192565b979650505050505050565b6001600160a01b03831681526040602082015260006124706040830184612b24565b634e487b7160e01b600052601260045260246000fd5b6000826132a5576132a5613280565b500490565b6000826132b9576132b9613280565b500690565b600082516132d0818460208701612af8565b919091019291505056fe416464726573733a206c6f772d6c6576656c2064656c65676174652063616c6c206661696c6564a264697066735822122056d2848f4d73762e78a6abee9e1695d90ac659e4879fd2ca3dfd70e217cd30a564736f6c634300080d0033",
    "linkReferences": {}
  },
  "methodIdentifiers": {
    "batchCreateNFTs(uint256,uint256,bytes32)": "065d8357",
    "changeAstroRestriction(bool)": "2a818c52",
    "changeCollectorAdd(address)": "8156b9d0",
    "createNFT(uint256,bytes32)": "eabaf1cd",
    "getAllAddresses()": "9516a104",
    "getAllNFTSold()": "7bd42ec5",
    "getAllReferralLinks()": "8bf2b661",
    "getBaseURIs()": "fcddb5af",
    "getDiscountPriceOfNFTs()": "a6995826",
    "getIsAstroNFTNeccesary()": "ecfe3022",
    "getNFTRemaining(uint256)": "8024ee64",
    "getNFTSold(uint256)": "678ab5c5",
    "getNFTTotal(uint256)": "d042896b",
    "getPriceOfNFTs()": "6e8b1eaf",
    "getRefLinkPurchaseDataOfRigel(bytes32)": "468a3c86",
    "getRefLinkPurchaseDataOfSirius(bytes32)": "17f35a8e",
    "getRefLinkPurchaseDataOfVega(bytes32)": "3c6caa58",
    "getRefLinkTotalPurchaseData(bytes32)": "a697298e",
    "getSaleEndTime()": "14b452e4",
    "getSuffix()": "1c0e1d09",
    "getTotalNFTs()": "30bdb351",
    "initialize(address[6],uint256[3],uint256[3],uint256[3],string[3],string,bool,uint256)": "a2c04339",
    "isEligible(address)": "66e305fd",
    "isValidReferral(bytes32)": "38f16139",
    "onERC721Received(address,address,uint256,bytes)": "150b7a02",
    "owner()": "8da5cb5b",
    "proxiableUUID()": "52d1902d",
    "removeAllReferralLinks()": "75d8f19d",
    "removeReferralLink(bytes32)": "7bf75d98",
    "renounceOwnership()": "715018a6",
    "setAstrolistAddress(address)": "ddff84e5",
    "setBaseURI(string[3])": "1c2e624d",
    "setBuyPrice(uint256[3])": "9fe70378",
    "setDiscountOnPresale(uint256[3])": "c43c069b",
    "setERC20TokenAddress(address)": "eae483c5",
    "setNFTPresaleQuant(uint16[3])": "fdc38de7",
    "setPresaleDiscount(uint256[3])": "5d7e5d2a",
    "setReferralLinks(bytes32[])": "fa5e622a",
    "setRigelAddress(address)": "787048d0",
    "setSaleEndTime(uint256)": "d132391a",
    "setSiriusAddress(address)": "f88592b1",
    "setSuffix(string)": "75d5ae9f",
    "setVegaAddress(address)": "fb605eb7",
    "transferOwnership(address)": "f2fde38b",
    "upgradeTo(address)": "3659cfe6",
    "upgradeToAndCall(address,bytes)": "4f1ef286"
  },
  "id": 7
}