{
  "abi": [
    {
      "anonymous": false,
      "inputs": [
        {
          "indexed": false,
          "internalType": "address",
          "name": "previousAdmin",
          "type": "address"
        },
        {
          "indexed": false,
          "internalType": "address",
          "name": "newAdmin",
          "type": "address"
        }
      ],
      "name": "AdminChanged",
      "type": "event"
    },
    {
      "anonymous": false,
      "inputs": [
        {
          "indexed": true,
          "internalType": "address",
          "name": "beacon",
          "type": "address"
        }
      ],
      "name": "BeaconUpgraded",
      "type": "event"
    },
    {
      "anonymous": false,
      "inputs": [
        {
          "indexed": false,
          "internalType": "uint8",
          "name": "version",
          "type": "uint8"
        }
      ],
      "name": "Initialized",
      "type": "event"
    },
    {
      "anonymous": false,
      "inputs": [
        {
          "indexed": true,
          "internalType": "address",
          "name": "previousOwner",
          "type": "address"
        },
        {
          "indexed": true,
          "internalType": "address",
          "name": "newOwner",
          "type": "address"
        }
      ],
      "name": "OwnershipTransferred",
      "type": "event"
    },
    {
      "anonymous": false,
      "inputs": [
        {
          "indexed": true,
          "internalType": "address",
          "name": "implementation",
          "type": "address"
        }
      ],
      "name": "Upgraded",
      "type": "event"
    },
    {
      "inputs": [
        {
          "internalType": "uint256",
          "name": "tokenId",
          "type": "uint256"
        },
        {
          "internalType": "bytes32",
          "name": "referral",
          "type": "bytes32"
        }
      ],
      "name": "buyNft",
      "outputs": [],
      "stateMutability": "nonpayable",
      "type": "function"
    },
    {
      "inputs": [
        {
          "internalType": "bytes32",
          "name": "referral",
          "type": "bytes32"
        }
      ],
      "name": "claimReward",
      "outputs": [],
      "stateMutability": "nonpayable",
      "type": "function"
    },
    {
      "inputs": [
        {
          "internalType": "uint256",
          "name": "tokenId",
          "type": "uint256"
        },
        {
          "internalType": "bytes32",
          "name": "referral",
          "type": "bytes32"
        }
      ],
      "name": "claimRewardByTokenId",
      "outputs": [],
      "stateMutability": "nonpayable",
      "type": "function"
    },
    {
      "inputs": [],
      "name": "getAllReferrals",
      "outputs": [
        {
          "internalType": "bytes32[]",
          "name": "",
          "type": "bytes32[]"
        }
      ],
      "stateMutability": "view",
      "type": "function"
    },
    {
      "inputs": [],
      "name": "getBaseUri",
      "outputs": [
        {
          "internalType": "string",
          "name": "",
          "type": "string"
        }
      ],
      "stateMutability": "view",
      "type": "function"
    },
    {
      "inputs": [],
      "name": "getCollectorAddress",
      "outputs": [
        {
          "internalType": "address",
          "name": "",
          "type": "address"
        }
      ],
      "stateMutability": "view",
      "type": "function"
    },
    {
      "inputs": [],
      "name": "getERC20Address",
      "outputs": [
        {
          "internalType": "address",
          "name": "",
          "type": "address"
        }
      ],
      "stateMutability": "view",
      "type": "function"
    },
    {
      "inputs": [],
      "name": "getNFTAddress",
      "outputs": [
        {
          "internalType": "address",
          "name": "",
          "type": "address"
        }
      ],
      "stateMutability": "view",
      "type": "function"
    },
    {
      "inputs": [],
      "name": "getNfts",
      "outputs": [
        {
          "components": [
            {
              "internalType": "string",
              "name": "uri",
              "type": "string"
            },
            {
              "internalType": "uint256",
              "name": "tokenId",
              "type": "uint256"
            }
          ],
          "internalType": "struct AstrolistSell.TokenUri[]",
          "name": "",
          "type": "tuple[]"
        }
      ],
      "stateMutability": "view",
      "type": "function"
    },
    {
      "inputs": [],
      "name": "getPrice",
      "outputs": [
        {
          "internalType": "uint256",
          "name": "",
          "type": "uint256"
        }
      ],
      "stateMutability": "view",
      "type": "function"
    },
    {
      "inputs": [
        {
          "internalType": "bytes32",
          "name": "referral",
          "type": "bytes32"
        }
      ],
      "name": "getReferralData",
      "outputs": [
        {
          "internalType": "uint256",
          "name": "",
          "type": "uint256"
        },
        {
          "internalType": "uint256",
          "name": "",
          "type": "uint256"
        },
        {
          "internalType": "address[]",
          "name": "",
          "type": "address[]"
        },
        {
          "internalType": "address[]",
          "name": "",
          "type": "address[]"
        }
      ],
      "stateMutability": "view",
      "type": "function"
    },
    {
      "inputs": [],
      "name": "getWhitelistedAddresses",
      "outputs": [
        {
          "internalType": "address[]",
          "name": "",
          "type": "address[]"
        }
      ],
      "stateMutability": "view",
      "type": "function"
    },
    {
      "inputs": [
        {
          "internalType": "address",
          "name": "nftAddress",
          "type": "address"
        },
        {
          "internalType": "address",
          "name": "erc20Address",
          "type": "address"
        },
        {
          "internalType": "address",
          "name": "collectorAddress",
          "type": "address"
        },
        {
          "internalType": "string",
          "name": "baseUri",
          "type": "string"
        },
        {
          "internalType": "uint256",
          "name": "price",
          "type": "uint256"
        }
      ],
      "name": "initialize",
      "outputs": [],
      "stateMutability": "nonpayable",
      "type": "function"
    },
    {
      "inputs": [
        {
          "internalType": "uint256",
          "name": "tokenId",
          "type": "uint256"
        }
      ],
      "name": "isIdTaken",
      "outputs": [
        {
          "internalType": "bool",
          "name": "",
          "type": "bool"
        }
      ],
      "stateMutability": "view",
      "type": "function"
    },
    {
      "inputs": [
        {
          "internalType": "address",
          "name": "userAddress",
          "type": "address"
        }
      ],
      "name": "isNotEligible",
      "outputs": [
        {
          "internalType": "bool",
          "name": "",
          "type": "bool"
        }
      ],
      "stateMutability": "view",
      "type": "function"
    },
    {
      "inputs": [
        {
          "internalType": "bytes32",
          "name": "referral",
          "type": "bytes32"
        }
      ],
      "name": "isValidReferralId",
      "outputs": [
        {
          "internalType": "bool",
          "name": "",
          "type": "bool"
        }
      ],
      "stateMutability": "view",
      "type": "function"
    },
    {
      "inputs": [
        {
          "internalType": "address",
          "name": "userAddress",
          "type": "address"
        }
      ],
      "name": "isWhiteListed",
      "outputs": [
        {
          "internalType": "bool",
          "name": "",
          "type": "bool"
        }
      ],
      "stateMutability": "view",
      "type": "function"
    },
    {
      "inputs": [
        {
          "internalType": "address[]",
          "name": "userAddresses",
          "type": "address[]"
        },
        {
          "internalType": "bool",
          "name": "value",
          "type": "bool"
        }
      ],
      "name": "makeAddressesEligibleOrRemoveIt",
      "outputs": [],
      "stateMutability": "nonpayable",
      "type": "function"
    },
    {
      "inputs": [
        {
          "internalType": "address",
          "name": "to",
          "type": "address"
        },
        {
          "internalType": "uint256",
          "name": "tokenId",
          "type": "uint256"
        }
      ],
      "name": "mintNFT",
      "outputs": [],
      "stateMutability": "nonpayable",
      "type": "function"
    },
    {
      "inputs": [],
      "name": "owner",
      "outputs": [
        {
          "internalType": "address",
          "name": "",
          "type": "address"
        }
      ],
      "stateMutability": "view",
      "type": "function"
    },
    {
      "inputs": [],
      "name": "proxiableUUID",
      "outputs": [
        {
          "internalType": "bytes32",
          "name": "",
          "type": "bytes32"
        }
      ],
      "stateMutability": "view",
      "type": "function"
    },
    {
      "inputs": [
        {
          "internalType": "bytes32",
          "name": "referral",
          "type": "bytes32"
        }
      ],
      "name": "removeReferral",
      "outputs": [],
      "stateMutability": "nonpayable",
      "type": "function"
    },
    {
      "inputs": [
        {
          "internalType": "address[]",
          "name": "userAddresses",
          "type": "address[]"
        }
      ],
      "name": "removeWhiteListedAddresses",
      "outputs": [],
      "stateMutability": "nonpayable",
      "type": "function"
    },
    {
      "inputs": [],
      "name": "renounceOwnership",
      "outputs": [],
      "stateMutability": "nonpayable",
      "type": "function"
    },
    {
      "inputs": [
        {
          "internalType": "string",
          "name": "baseURI",
          "type": "string"
        }
      ],
      "name": "setBaseURI",
      "outputs": [],
      "stateMutability": "nonpayable",
      "type": "function"
    },
    {
      "inputs": [
        {
          "internalType": "address",
          "name": "collectorAddress",
          "type": "address"
        }
      ],
      "name": "setCollectorAddress",
      "outputs": [],
      "stateMutability": "nonpayable",
      "type": "function"
    },
    {
      "inputs": [
        {
          "internalType": "address",
          "name": "erc20Address",
          "type": "address"
        }
      ],
      "name": "setERC20TokenAddress",
      "outputs": [],
      "stateMutability": "nonpayable",
      "type": "function"
    },
    {
      "inputs": [
        {
          "internalType": "uint256[]",
          "name": "ids",
          "type": "uint256[]"
        },
        {
          "internalType": "bool",
          "name": "value",
          "type": "bool"
        }
      ],
      "name": "setIsIdTaken",
      "outputs": [],
      "stateMutability": "nonpayable",
      "type": "function"
    },
    {
      "inputs": [
        {
          "internalType": "address",
          "name": "nftAddress",
          "type": "address"
        }
      ],
      "name": "setNFTTokenAddress",
      "outputs": [],
      "stateMutability": "nonpayable",
      "type": "function"
    },
    {
      "inputs": [
        {
          "internalType": "uint256",
          "name": "price",
          "type": "uint256"
        }
      ],
      "name": "setPrice",
      "outputs": [],
      "stateMutability": "nonpayable",
      "type": "function"
    },
    {
      "inputs": [
        {
          "internalType": "uint256",
          "name": "totalBuyes",
          "type": "uint256"
        },
        {
          "internalType": "uint256",
          "name": "totalClaimes",
          "type": "uint256"
        },
        {
          "internalType": "address[]",
          "name": "buyerAddresses",
          "type": "address[]"
        },
        {
          "internalType": "address[]",
          "name": "claimerAddresses",
          "type": "address[]"
        }
      ],
      "name": "setReferralData",
      "outputs": [],
      "stateMutability": "nonpayable",
      "type": "function"
    },
    {
      "inputs": [
        {
          "internalType": "bytes32[]",
          "name": "referrals",
          "type": "bytes32[]"
        }
      ],
      "name": "setReferrals",
      "outputs": [],
      "stateMutability": "nonpayable",
      "type": "function"
    },
    {
      "inputs": [
        {
          "internalType": "address",
          "name": "newOwner",
          "type": "address"
        }
      ],
      "name": "transferOwnership",
      "outputs": [],
      "stateMutability": "nonpayable",
      "type": "function"
    },
    {
      "inputs": [
        {
          "internalType": "address",
          "name": "newImplementation",
          "type": "address"
        }
      ],
      "name": "upgradeTo",
      "outputs": [],
      "stateMutability": "nonpayable",
      "type": "function"
    },
    {
      "inputs": [
        {
          "internalType": "address",
          "name": "newImplementation",
          "type": "address"
        },
        {
          "internalType": "bytes",
          "name": "data",
          "type": "bytes"
        }
      ],
      "name": "upgradeToAndCall",
      "outputs": [],
      "stateMutability": "payable",
      "type": "function"
    },
    {
      "inputs": [
        {
          "internalType": "address[]",
          "name": "userAddresses",
          "type": "address[]"
        }
      ],
      "name": "whiteListAddresses",
      "outputs": [],
      "stateMutability": "nonpayable",
      "type": "function"
    }
  ],
  "bytecode": {
    "object": "0x60a06040523060805234801561001457600080fd5b506080516130d961004c600039600081816109a601528181610a3001528181610c3301528181610cb80152610e1201526130d96000f3fe60806040526004361061024e5760003560e01c80636f9170f611610138578063d635ff12116100b0578063eae483c51161007f578063f541402311610064578063f5414023146106e0578063f8150f2d14610700578063fa6a65961461072057600080fd5b8063eae483c5146106a0578063f2fde38b146106c057600080fd5b8063d635ff12146105fe578063d8cb55e31461062e578063d9c000af14610650578063e13639db1461068057600080fd5b80638da5cb5b1161010757806398d5fdca116100ec57806398d5fdca146105ad578063b9618478146105c2578063b9f890de146105e057600080fd5b80638da5cb5b1461056f57806391b7f5ed1461058d57600080fd5b80636f9170f6146104e1578063715018a61461051a57806376fc5c621461052f5780637e19275f1461054f57600080fd5b80634f1ef286116101cb57806355f804b31161019a57806369f192b31161017f57806369f192b31461047d5780636d0280271461049d5780636e797238146104bf57600080fd5b806355f804b31461043d5780635dd109251461045d57600080fd5b80634f1ef286146103b7578063508cfd8d146103ca578063529a6bf1146103fa57806352d1902d1461041a57600080fd5b80632848eeb8116102225780633659cfe6116102075780633659cfe6146103575780633c168eab14610377578063480a74721461039757600080fd5b80632848eeb8146103055780632c4df7341461033757600080fd5b8062184335146102535780630cac36b2146102a15780631bcbfbec146102c35780631dd13983146102e5575b600080fd5b34801561025f57600080fd5b5061028c61026e3660046127be565b6001600160a01b0316600090815260ca602052604090205460ff1690565b60405190151581526020015b60405180910390f35b3480156102ad57600080fd5b506102b6610740565b6040516102989190612831565b3480156102cf57600080fd5b506102e36102de366004612921565b6107d2565b005b3480156102f157600080fd5b506102e3610300366004612956565b6108b7565b34801561031157600080fd5b5060cc546001600160a01b03165b6040516001600160a01b039091168152602001610298565b34801561034357600080fd5b506102e36103523660046127be565b610972565b34801561036357600080fd5b506102e36103723660046127be565b61099c565b34801561038357600080fd5b506102e36103923660046129cd565b610b1c565b3480156103a357600080fd5b506102e36103b23660046127be565b610bff565b6102e36103c5366004612a4f565b610c29565b3480156103d657600080fd5b5061028c6103e5366004612ab1565b600090815260d2602052604090205460ff1690565b34801561040657600080fd5b506102e3610415366004612ada565b610d91565b34801561042657600080fd5b5061042f610e05565b604051908152602001610298565b34801561044957600080fd5b506102e3610458366004612b48565b610eca565b34801561046957600080fd5b506102e3610478366004612b7d565b610ee5565b34801561048957600080fd5b506102e3610498366004612ab1565b610f50565b3480156104a957600080fd5b506104b2611086565b6040516102989190612c64565b3480156104cb57600080fd5b506104d46110e7565b6040516102989190612c77565b3480156104ed57600080fd5b5061028c6104fc3660046127be565b6001600160a01b0316600090815260c9602052604090205460ff1690565b34801561052657600080fd5b506102e361113e565b34801561053b57600080fd5b506102e361054a366004612cbb565b611152565b34801561055b57600080fd5b506102e361056a366004612cdd565b6112df565b34801561057b57600080fd5b506033546001600160a01b031661031f565b34801561059957600080fd5b506102e36105a8366004612ab1565b611461565b3480156105b957600080fd5b5060cf5461042f565b3480156105ce57600080fd5b5060cd546001600160a01b031661031f565b3480156105ec57600080fd5b5060ce546001600160a01b031661031f565b34801561060a57600080fd5b5061028c610619366004612ab1565b600090815260cb602052604090205460ff1690565b34801561063a57600080fd5b5061064361146e565b6040516102989190612d54565b34801561065c57600080fd5b5061067061066b366004612ab1565b6115c3565b6040516102989493929190612dca565b34801561068c57600080fd5b506102e361069b366004612921565b6116ab565b3480156106ac57600080fd5b506102e36106bb3660046127be565b6117b9565b3480156106cc57600080fd5b506102e36106db3660046127be565b6117e3565b3480156106ec57600080fd5b506102e36106fb366004612ab1565b611870565b34801561070c57600080fd5b506102e361071b366004612cbb565b6119cf565b34801561072c57600080fd5b506102e361073b366004612e06565b611c81565b606060d0805461074f90612e8c565b80601f016020809104026020016040519081016040528092919081815260200182805461077b90612e8c565b80156107c85780601f1061079d576101008083540402835291602001916107c8565b820191906000526020600020905b8154815290600101906020018083116107ab57829003601f168201915b5050505050905090565b6107da611d1f565b60005b81518110156108b35760c960008383815181106107fc576107fc612ec6565b6020908102919091018101516001600160a01b031682528101919091526040016000205460ff16156108a157600060c9600084848151811061084057610840612ec6565b60200260200101516001600160a01b03166001600160a01b0316815260200190815260200160002060006101000a81548160ff0219169083151502179055506108a182828151811061089457610894612ec6565b6020026020010151611d79565b806108ab81612ef2565b9150506107dd565b5050565b6108bf611d1f565b600080805260d360209081527f938258ec6d8d468a3507d140e1c026dc2afa285c097847a088da7b50946fb91b8590557f938258ec6d8d468a3507d140e1c026dc2afa285c097847a088da7b50946fb91c8690558351610944917f938258ec6d8d468a3507d140e1c026dc2afa285c097847a088da7b50946fb91d91908601906126b4565b50600081815260d360209081526040909120835161096a926003909201918501906126b4565b505050505050565b61097a611d1f565b60cc80546001600160a01b0319166001600160a01b0392909216919091179055565b6001600160a01b037f0000000000000000000000000000000000000000000000000000000000000000163003610a2e5760405162461bcd60e51b815260206004820152602c60248201527f46756e6374696f6e206d7573742062652063616c6c6564207468726f7567682060448201526b19195b1959d85d1958d85b1b60a21b60648201526084015b60405180910390fd5b7f00000000000000000000000000000000000000000000000000000000000000006001600160a01b0316610a897f360894a13ba1a3210667c828492db98dca3e2076cc3735a920a3ca505d382bbc546001600160a01b031690565b6001600160a01b031614610af45760405162461bcd60e51b815260206004820152602c60248201527f46756e6374696f6e206d7573742062652063616c6c6564207468726f7567682060448201526b6163746976652070726f787960a01b6064820152608401610a25565b610afd81611e7f565b60408051600080825260208201909252610b1991839190611e87565b50565b610b24611d1f565b600081815260cb602052604090205460ff1615610b835760405162461bcd60e51b815260206004820152601960248201527f546f6b656e20496420697320616c72656164792074616b656e000000000000006044820152606401610a25565b600081815260cb602052604090819020805460ff1916600117905560cd549051632851206560e21b81526001600160a01b038481166004830152602482018490529091169063a144819490604401600060405180830381600087803b158015610beb57600080fd5b505af115801561096a573d6000803e3d6000fd5b610c07611d1f565b60cd80546001600160a01b0319166001600160a01b0392909216919091179055565b6001600160a01b037f0000000000000000000000000000000000000000000000000000000000000000163003610cb65760405162461bcd60e51b815260206004820152602c60248201527f46756e6374696f6e206d7573742062652063616c6c6564207468726f7567682060448201526b19195b1959d85d1958d85b1b60a21b6064820152608401610a25565b7f00000000000000000000000000000000000000000000000000000000000000006001600160a01b0316610d117f360894a13ba1a3210667c828492db98dca3e2076cc3735a920a3ca505d382bbc546001600160a01b031690565b6001600160a01b031614610d7c5760405162461bcd60e51b815260206004820152602c60248201527f46756e6374696f6e206d7573742062652063616c6c6564207468726f7567682060448201526b6163746976652070726f787960a01b6064820152608401610a25565b610d8582611e7f565b6108b382826001611e87565b610d99611d1f565b60005b8251811015610e00578160ca6000858481518110610dbc57610dbc612ec6565b6020908102919091018101516001600160a01b03168252810191909152604001600020805460ff191691151591909117905580610df881612ef2565b915050610d9c565b505050565b6000306001600160a01b037f00000000000000000000000000000000000000000000000000000000000000001614610ea55760405162461bcd60e51b815260206004820152603860248201527f555550535570677261646561626c653a206d757374206e6f742062652063616c60448201527f6c6564207468726f7567682064656c656761746563616c6c00000000000000006064820152608401610a25565b507f360894a13ba1a3210667c828492db98dca3e2076cc3735a920a3ca505d382bbc90565b610ed2611d1f565b80516108b39060d0906020840190612719565b610eed611d1f565b60005b8251811015610e00578160cb6000858481518110610f1057610f10612ec6565b6020026020010151815260200190815260200160002060006101000a81548160ff0219169083151502179055508080610f4890612ef2565b915050610ef0565b610f58611d1f565b600081815260d2602052604090205460ff16610fb65760405162461bcd60e51b815260206004820152601b60248201527f526566657272616c20697320616c72656164792072656d6f76656400000000006044820152606401610a25565b600081815260d260205260408120805460ff1916905560d454610fdb90600190612f0b565b905060005b818111610e00578260d48281548110610ffb57610ffb612ec6565b9060005260206000200154036110745760d4828154811061101e5761101e612ec6565b906000526020600020015460d4828154811061103c5761103c612ec6565b60009182526020909120015560d480548061105957611059612f22565b60019003818190600052602060002001600090559055505050565b8061107e81612ef2565b915050610fe0565b606060d18054806020026020016040519081016040528092919081815260200182805480156107c857602002820191906000526020600020905b81546001600160a01b031681526001909101906020018083116110c0575050505050905090565b606060d48054806020026020016040519081016040528092919081815260200182805480156107c857602002820191906000526020600020905b815481526020019060010190808311611121575050505050905090565b611146611d1f565b6111506000612027565b565b600082815260cb6020526040902054339060ff16156111b35760405162461bcd60e51b815260206004820152601860248201527f546f6b656e496420697320616c72656164792074616b656e00000000000000006044820152606401610a25565b6111bd8183612079565b600082815260d3602052604081208054916111d783612ef2565b9091555050600082815260d36020908152604080832060030180546001810182559084528284200180546001600160a01b0319166001600160a01b038616908117909155835260c99091529020805460ff1916905561123581611d79565b60cd54604051632851206560e21b81526001600160a01b038381166004830152602482018690529091169063a144819490604401600060405180830381600087803b15801561128357600080fd5b505af1158015611297573d6000803e3d6000fd5b50505060009384525060cb60209081526040808520805460ff1990811660019081179092556001600160a01b03909416865260ca909252909320805490911690921790915550565b600054610100900460ff16158080156112ff5750600054600160ff909116105b806113195750303b158015611319575060005460ff166001145b61138b5760405162461bcd60e51b815260206004820152602e60248201527f496e697469616c697a61626c653a20636f6e747261637420697320616c72656160448201527f647920696e697469616c697a65640000000000000000000000000000000000006064820152608401610a25565b6000805460ff1916600117905580156113ae576000805461ff0019166101001790555b60cd80546001600160a01b038089166001600160a01b03199283161790925560ce805488841690831617905560cc80549287169290911691909117905582516113fe9060d0906020860190612719565b5060cf82905561140c6121b1565b611414612224565b801561096a576000805461ff0019169055604051600181527f7f26b83ff96e1f2b6a682f133852f6798a09c465da95921460cefb38474024989060200160405180910390a1505050505050565b611469611d1f565b60cf55565b606060008060015b6101f58110156114b657600081815260cb602052604090205460ff166114a457826114a081612ef2565b9350505b806114ae81612ef2565b915050611476565b5060008267ffffffffffffffff8111156114d2576114d2612844565b60405190808252806020026020018201604052801561151857816020015b6040805180820190915260608152600060208201528152602001906001900390816114f05790505b50905060015b6101f58110156115bb57600081815260cb602052604090205460ff166115a957604051806040016040528060d06115548461228f565b604051602001611565929190612f54565b60405160208183030381529060405281526020018281525082848151811061158f5761158f612ec6565b602002602001018190525082806115a590612ef2565b9350505b806115b381612ef2565b91505061151e565b509392505050565b600081815260d360209081526040808320600181015481546002830180548551818802810188019096528086528796606096879660030192909184919083018282801561163957602002820191906000526020600020905b81546001600160a01b0316815260019091019060200180831161161b575b505050505091508080548060200260200160405190810160405280929190818152602001828054801561169557602002820191906000526020600020905b81546001600160a01b03168152600190910190602001808311611677575b5050505050905093509350935093509193509193565b6116b3611d1f565b60005b81518110156108b35760c960008383815181106116d5576116d5612ec6565b6020908102919091018101516001600160a01b031682528101919091526040016000205460ff166117a757600160c9600084848151811061171857611718612ec6565b60200260200101516001600160a01b03166001600160a01b0316815260200190815260200160002060006101000a81548160ff02191690831515021790555060d182828151811061176b5761176b612ec6565b60209081029190910181015182546001810184556000938452919092200180546001600160a01b0319166001600160a01b039092169190911790555b806117b181612ef2565b9150506116b6565b6117c1611d1f565b60ce80546001600160a01b0319166001600160a01b0392909216919091179055565b6117eb611d1f565b6001600160a01b0381166118675760405162461bcd60e51b815260206004820152602660248201527f4f776e61626c653a206e6577206f776e657220697320746865207a65726f206160448201527f64647265737300000000000000000000000000000000000000000000000000006064820152608401610a25565b610b1981612027565b3361187b8183612079565b600082815260d36020526040812080549161189583612ef2565b9091555050600082815260d36020908152604080832060030180546001810182559084528284200180546001600160a01b0319166001600160a01b038616908117909155835260c99091529020805460ff191690556118f381611d79565b60015b6101f5811015610e0057600081815260cb602052604090205460ff166119bd5760cd54604051632851206560e21b81526001600160a01b038481166004830152602482018490529091169063a144819490604401600060405180830381600087803b15801561196457600080fd5b505af1158015611978573d6000803e3d6000fd5b50505060009182525060cb602090815260408083208054600160ff1991821681179092556001600160a01b0395909516845260ca909252909120805490921617905550565b806119c781612ef2565b9150506118f6565b600082815260cb602052604090205460ff1615611a2e5760405162461bcd60e51b815260206004820152601960248201527f546f6b656e20496420697320616c72656164792074616b656e000000000000006044820152606401610a25565b33600081815260ca602052604090205460ff1615611a8e5760405162461bcd60e51b815260206004820152601460248201527f596f7520617265206e6f7420656c696769626c650000000000000000000000006044820152606401610a25565b600082815260d2602052604090205460ff1680611aa9575081155b611af55760405162461bcd60e51b815260206004820152601360248201527f526566657272616c20697320696e76616c6964000000000000000000000000006044820152606401610a25565b600082815260d360205260408120600101805491611b1283612ef2565b9091555050600082815260d3602090815260408083206002018054600181018255908452919092200180546001600160a01b0319166001600160a01b0384811691821790925560ce5460cc5460cf5494517f23b872dd00000000000000000000000000000000000000000000000000000000815260048101939093528316602483015260448201939093529116906323b872dd90606401600060405180830381600087803b158015611bc357600080fd5b505af1158015611bd7573d6000803e3d6000fd5b505060cd54604051632851206560e21b81526001600160a01b03858116600483015260248201889052909116925063a14481949150604401600060405180830381600087803b158015611c2957600080fd5b505af1158015611c3d573d6000803e3d6000fd5b505050506001600160a01b0316600090815260ca602090815260408083208054600160ff19918216811790925595845260cb90925290912080549093161790915550565b611c89611d1f565b60005b81518110156108b357600160d26000848481518110611cad57611cad612ec6565b6020026020010151815260200190815260200160002060006101000a81548160ff02191690831515021790555060d4828281518110611cee57611cee612ec6565b6020908102919091018101518254600181018455600093845291909220015580611d1781612ef2565b915050611c8c565b6033546001600160a01b031633146111505760405162461bcd60e51b815260206004820181905260248201527f4f776e61626c653a2063616c6c6572206973206e6f7420746865206f776e65726044820152606401610a25565b60d15460005b81811015610e0057826001600160a01b031660d18281548110611da457611da4612ec6565b6000918252602090912001546001600160a01b031603611e6d5760d1611dcb600184612f0b565b81548110611ddb57611ddb612ec6565b60009182526020909120015460d180546001600160a01b039092169183908110611e0757611e07612ec6565b9060005260206000200160006101000a8154816001600160a01b0302191690836001600160a01b0316021790555060d1805480611e4657611e46612f22565b600082815260209020810160001990810180546001600160a01b0319169055019055505050565b80611e7781612ef2565b915050611d7f565b610b19611d1f565b7f4910fdfa16fed3260ed0e7147f7cc6da11a60208b5b9406d12a635614ffd91435460ff1615611eba57610e00836123cc565b826001600160a01b03166352d1902d6040518163ffffffff1660e01b8152600401602060405180830381865afa925050508015611f14575060408051601f3d908101601f19168201909252611f1191810190612ff1565b60015b611f865760405162461bcd60e51b815260206004820152602e60248201527f45524331393637557067726164653a206e657720696d706c656d656e7461746960448201527f6f6e206973206e6f7420555550530000000000000000000000000000000000006064820152608401610a25565b7f360894a13ba1a3210667c828492db98dca3e2076cc3735a920a3ca505d382bbc811461201b5760405162461bcd60e51b815260206004820152602960248201527f45524331393637557067726164653a20756e737570706f727465642070726f7860448201527f6961626c655555494400000000000000000000000000000000000000000000006064820152608401610a25565b50610e0083838361248a565b603380546001600160a01b038381166001600160a01b0319831681179093556040519116919082907f8be0079c531659141344cd1fd0a4f28419497f9722a3daafe3b4186f6b6457e090600090a35050565b6001600160a01b038216600090815260c9602052604090205460ff166120e15760405162461bcd60e51b815260206004820152601a60248201527f41646472657373206973206e6f742057686974654c69737465640000000000006044820152606401610a25565b6001600160a01b038216600090815260ca602052604090205460ff161561214a5760405162461bcd60e51b815260206004820152601460248201527f596f7520617265206e6f7420656c696769626c650000000000000000000000006044820152606401610a25565b600081815260d2602052604090205460ff1680612165575080155b6108b35760405162461bcd60e51b815260206004820152601360248201527f526566657272616c20697320696e76616c6964000000000000000000000000006044820152606401610a25565b600054610100900460ff1661221c5760405162461bcd60e51b815260206004820152602b60248201527f496e697469616c697a61626c653a20636f6e7472616374206973206e6f74206960448201526a6e697469616c697a696e6760a81b6064820152608401610a25565b6111506124b5565b600054610100900460ff166111505760405162461bcd60e51b815260206004820152602b60248201527f496e697469616c697a61626c653a20636f6e7472616374206973206e6f74206960448201526a6e697469616c697a696e6760a81b6064820152608401610a25565b6060816000036122d257505060408051808201909152600181527f3000000000000000000000000000000000000000000000000000000000000000602082015290565b8160005b81156122fc57806122e681612ef2565b91506122f59050600a83613020565b91506122d6565b60008167ffffffffffffffff81111561231757612317612844565b6040519080825280601f01601f191660200182016040528015612341576020820181803683370190505b5090505b84156123c457612356600183612f0b565b9150612363600a86613034565b61236e906030613048565b60f81b81838151811061238357612383612ec6565b60200101907effffffffffffffffffffffffffffffffffffffffffffffffffffffffffffff1916908160001a9053506123bd600a86613020565b9450612345565b949350505050565b6001600160a01b0381163b6124495760405162461bcd60e51b815260206004820152602d60248201527f455243313936373a206e657720696d706c656d656e746174696f6e206973206e60448201527f6f74206120636f6e7472616374000000000000000000000000000000000000006064820152608401610a25565b7f360894a13ba1a3210667c828492db98dca3e2076cc3735a920a3ca505d382bbc80546001600160a01b0319166001600160a01b0392909216919091179055565b61249383612529565b6000825111806124a05750805b15610e00576124af8383612569565b50505050565b600054610100900460ff166125205760405162461bcd60e51b815260206004820152602b60248201527f496e697469616c697a61626c653a20636f6e7472616374206973206e6f74206960448201526a6e697469616c697a696e6760a81b6064820152608401610a25565b61115033612027565b612532816123cc565b6040516001600160a01b038216907fbc7cd75a20ee27fd9adebab32041f755214dbc6bffa90cc0225b39da2e5c2d3b90600090a250565b60606001600160a01b0383163b6125e85760405162461bcd60e51b815260206004820152602660248201527f416464726573733a2064656c65676174652063616c6c20746f206e6f6e2d636f60448201527f6e747261637400000000000000000000000000000000000000000000000000006064820152608401610a25565b600080846001600160a01b0316846040516126039190613060565b600060405180830381855af49150503d806000811461263e576040519150601f19603f3d011682016040523d82523d6000602084013e612643565b606091505b509150915061266b828260405180606001604052806027815260200161307d60279139612674565b95945050505050565b606083156126835750816126ad565b8251156126935782518084602001fd5b8160405162461bcd60e51b8152600401610a259190612831565b9392505050565b828054828255906000526020600020908101928215612709579160200282015b8281111561270957825182546001600160a01b0319166001600160a01b039091161782556020909201916001909101906126d4565b5061271592915061278d565b5090565b82805461272590612e8c565b90600052602060002090601f0160209004810192826127475760008555612709565b82601f1061276057805160ff1916838001178555612709565b82800160010185558215612709579182015b82811115612709578251825591602001919060010190612772565b5b80821115612715576000815560010161278e565b80356001600160a01b03811681146127b957600080fd5b919050565b6000602082840312156127d057600080fd5b6126ad826127a2565b60005b838110156127f45781810151838201526020016127dc565b838111156124af5750506000910152565b6000815180845261281d8160208601602086016127d9565b601f01601f19169290920160200192915050565b6020815260006126ad6020830184612805565b634e487b7160e01b600052604160045260246000fd5b604051601f8201601f1916810167ffffffffffffffff8111828210171561288357612883612844565b604052919050565b600067ffffffffffffffff8211156128a5576128a5612844565b5060051b60200190565b600082601f8301126128c057600080fd5b813560206128d56128d08361288b565b61285a565b82815260059290921b840181019181810190868411156128f457600080fd5b8286015b8481101561291657612909816127a2565b83529183019183016128f8565b509695505050505050565b60006020828403121561293357600080fd5b813567ffffffffffffffff81111561294a57600080fd5b6123c4848285016128af565b6000806000806080858703121561296c57600080fd5b8435935060208501359250604085013567ffffffffffffffff8082111561299257600080fd5b61299e888389016128af565b935060608701359150808211156129b457600080fd5b506129c1878288016128af565b91505092959194509250565b600080604083850312156129e057600080fd5b6129e9836127a2565b946020939093013593505050565b600067ffffffffffffffff831115612a1157612a11612844565b612a24601f8401601f191660200161285a565b9050828152838383011115612a3857600080fd5b828260208301376000602084830101529392505050565b60008060408385031215612a6257600080fd5b612a6b836127a2565b9150602083013567ffffffffffffffff811115612a8757600080fd5b8301601f81018513612a9857600080fd5b612aa7858235602084016129f7565b9150509250929050565b600060208284031215612ac357600080fd5b5035919050565b803580151581146127b957600080fd5b60008060408385031215612aed57600080fd5b823567ffffffffffffffff811115612b0457600080fd5b612b10858286016128af565b925050612b1f60208401612aca565b90509250929050565b600082601f830112612b3957600080fd5b6126ad838335602085016129f7565b600060208284031215612b5a57600080fd5b813567ffffffffffffffff811115612b7157600080fd5b6123c484828501612b28565b60008060408385031215612b9057600080fd5b823567ffffffffffffffff811115612ba757600080fd5b8301601f81018513612bb857600080fd5b80356020612bc86128d08361288b565b82815260059290921b83018101918181019088841115612be757600080fd5b938201935b83851015612c0557843582529382019390820190612bec565b9550612c149050868201612aca565b93505050509250929050565b600081518084526020808501945080840160005b83811015612c595781516001600160a01b031687529582019590820190600101612c34565b509495945050505050565b6020815260006126ad6020830184612c20565b6020808252825182820181905260009190848201906040850190845b81811015612caf57835183529284019291840191600101612c93565b50909695505050505050565b60008060408385031215612cce57600080fd5b50508035926020909101359150565b600080600080600060a08688031215612cf557600080fd5b612cfe866127a2565b9450612d0c602087016127a2565b9350612d1a604087016127a2565b9250606086013567ffffffffffffffff811115612d3657600080fd5b612d4288828901612b28565b95989497509295608001359392505050565b60006020808301818452808551808352604092508286019150828160051b87010184880160005b83811015612dbc57888303603f1901855281518051878552612d9f88860182612805565b918901519489019490945294870194925090860190600101612d7b565b509098975050505050505050565b848152836020820152608060408201526000612de96080830185612c20565b8281036060840152612dfb8185612c20565b979650505050505050565b60006020808385031215612e1957600080fd5b823567ffffffffffffffff811115612e3057600080fd5b8301601f81018513612e4157600080fd5b8035612e4f6128d08261288b565b81815260059190911b82018301908381019087831115612e6e57600080fd5b928401925b82841015612dfb57833582529284019290840190612e73565b600181811c90821680612ea057607f821691505b602082108103612ec057634e487b7160e01b600052602260045260246000fd5b50919050565b634e487b7160e01b600052603260045260246000fd5b634e487b7160e01b600052601160045260246000fd5b600060018201612f0457612f04612edc565b5060010190565b600082821015612f1d57612f1d612edc565b500390565b634e487b7160e01b600052603160045260246000fd5b60008151612f4a8185602086016127d9565b9290920192915050565b600080845481600182811c915080831680612f7057607f831692505b60208084108203612f8f57634e487b7160e01b86526022600452602486fd5b818015612fa35760018114612fb457612fe1565b60ff19861689528489019650612fe1565b60008b81526020902060005b86811015612fd95781548b820152908501908301612fc0565b505084890196505b50505050505061266b8185612f38565b60006020828403121561300357600080fd5b5051919050565b634e487b7160e01b600052601260045260246000fd5b60008261302f5761302f61300a565b500490565b6000826130435761304361300a565b500690565b6000821982111561305b5761305b612edc565b500190565b600082516130728184602087016127d9565b919091019291505056fe416464726573733a206c6f772d6c6576656c2064656c65676174652063616c6c206661696c6564a2646970667358221220324602213c26d566cb5b700c1749c769d076638468cfdfd1bb172faef1108b0464736f6c634300080d0033",
    "linkReferences": {}
  },
  "methodIdentifiers": {
    "buyNft(uint256,bytes32)": "f8150f2d",
    "claimReward(bytes32)": "f5414023",
    "claimRewardByTokenId(uint256,bytes32)": "76fc5c62",
    "getAllReferrals()": "6e797238",
    "getBaseUri()": "0cac36b2",
    "getCollectorAddress()": "2848eeb8",
    "getERC20Address()": "b9f890de",
    "getNFTAddress()": "b9618478",
    "getNfts()": "d8cb55e3",
    "getPrice()": "98d5fdca",
    "getReferralData(bytes32)": "d9c000af",
    "getWhitelistedAddresses()": "6d028027",
    "initialize(address,address,address,string,uint256)": "7e19275f",
    "isIdTaken(uint256)": "d635ff12",
    "isNotEligible(address)": "00184335",
    "isValidReferralId(bytes32)": "508cfd8d",
    "isWhiteListed(address)": "6f9170f6",
    "makeAddressesEligibleOrRemoveIt(address[],bool)": "529a6bf1",
    "mintNFT(address,uint256)": "3c168eab",
    "owner()": "8da5cb5b",
    "proxiableUUID()": "52d1902d",
    "removeReferral(bytes32)": "69f192b3",
    "removeWhiteListedAddresses(address[])": "1bcbfbec",
    "renounceOwnership()": "715018a6",
    "setBaseURI(string)": "55f804b3",
    "setCollectorAddress(address)": "2c4df734",
    "setERC20TokenAddress(address)": "eae483c5",
    "setIsIdTaken(uint256[],bool)": "5dd10925",
    "setNFTTokenAddress(address)": "480a7472",
    "setPrice(uint256)": "91b7f5ed",
    "setReferralData(uint256,uint256,address[],address[])": "1dd13983",
    "setReferrals(bytes32[])": "fa6a6596",
    "transferOwnership(address)": "f2fde38b",
    "upgradeTo(address)": "3659cfe6",
    "upgradeToAndCall(address,bytes)": "4f1ef286",
    "whiteListAddresses(address[])": "e13639db"
  },
  "id": 1
}